{
  "_format": "hh-sol-artifact-1",
  "contractName": "MoonRatToken",
  "sourceName": "contracts/protocols/MoonRat.sol",
  "abi": [
    {
      "inputs": [
        {
          "internalType": "address payable",
          "name": "routerAddress",
          "type": "address"
        }
      ],
      "stateMutability": "nonpayable",
      "type": "constructor"
    },
    {
      "anonymous": false,
      "inputs": [
        {
          "indexed": true,
          "internalType": "address",
          "name": "owner",
          "type": "address"
        },
        {
          "indexed": true,
          "internalType": "address",
          "name": "spender",
          "type": "address"
        },
        {
          "indexed": false,
          "internalType": "uint256",
          "name": "value",
          "type": "uint256"
        }
      ],
      "name": "Approval",
      "type": "event"
    },
    {
      "anonymous": false,
      "inputs": [
        {
          "indexed": false,
          "internalType": "uint256",
          "name": "minTokensBeforeSwap",
          "type": "uint256"
        }
      ],
      "name": "MinTokensBeforeSwapUpdated",
      "type": "event"
    },
    {
      "anonymous": false,
      "inputs": [
        {
          "indexed": true,
          "internalType": "address",
          "name": "previousOwner",
          "type": "address"
        },
        {
          "indexed": true,
          "internalType": "address",
          "name": "newOwner",
          "type": "address"
        }
      ],
      "name": "OwnershipTransferred",
      "type": "event"
    },
    {
      "anonymous": false,
      "inputs": [
        {
          "indexed": false,
          "internalType": "uint256",
          "name": "tokensSwapped",
          "type": "uint256"
        },
        {
          "indexed": false,
          "internalType": "uint256",
          "name": "ethReceived",
          "type": "uint256"
        },
        {
          "indexed": false,
          "internalType": "uint256",
          "name": "tokensIntoLiqudity",
          "type": "uint256"
        }
      ],
      "name": "SwapAndLiquify",
      "type": "event"
    },
    {
      "anonymous": false,
      "inputs": [
        {
          "indexed": false,
          "internalType": "bool",
          "name": "enabled",
          "type": "bool"
        }
      ],
      "name": "SwapAndLiquifyEnabledUpdated",
      "type": "event"
    },
    {
      "anonymous": false,
      "inputs": [
        {
          "indexed": true,
          "internalType": "address",
          "name": "from",
          "type": "address"
        },
        {
          "indexed": true,
          "internalType": "address",
          "name": "to",
          "type": "address"
        },
        {
          "indexed": false,
          "internalType": "uint256",
          "name": "value",
          "type": "uint256"
        }
      ],
      "name": "Transfer",
      "type": "event"
    },
    {
      "inputs": [],
      "name": "_liquidityFee",
      "outputs": [
        {
          "internalType": "uint256",
          "name": "",
          "type": "uint256"
        }
      ],
      "stateMutability": "view",
      "type": "function"
    },
    {
      "inputs": [],
      "name": "_maxTxAmount",
      "outputs": [
        {
          "internalType": "uint256",
          "name": "",
          "type": "uint256"
        }
      ],
      "stateMutability": "view",
      "type": "function"
    },
    {
      "inputs": [],
      "name": "_taxFee",
      "outputs": [
        {
          "internalType": "uint256",
          "name": "",
          "type": "uint256"
        }
      ],
      "stateMutability": "view",
      "type": "function"
    },
    {
      "inputs": [],
      "name": "activateContract",
      "outputs": [],
      "stateMutability": "nonpayable",
      "type": "function"
    },
    {
      "inputs": [
        {
          "internalType": "address",
          "name": "owner",
          "type": "address"
        },
        {
          "internalType": "address",
          "name": "spender",
          "type": "address"
        }
      ],
      "name": "allowance",
      "outputs": [
        {
          "internalType": "uint256",
          "name": "",
          "type": "uint256"
        }
      ],
      "stateMutability": "view",
      "type": "function"
    },
    {
      "inputs": [
        {
          "internalType": "address",
          "name": "spender",
          "type": "address"
        },
        {
          "internalType": "uint256",
          "name": "amount",
          "type": "uint256"
        }
      ],
      "name": "approve",
      "outputs": [
        {
          "internalType": "bool",
          "name": "",
          "type": "bool"
        }
      ],
      "stateMutability": "nonpayable",
      "type": "function"
    },
    {
      "inputs": [
        {
          "internalType": "address",
          "name": "account",
          "type": "address"
        }
      ],
      "name": "balanceOf",
      "outputs": [
        {
          "internalType": "uint256",
          "name": "",
          "type": "uint256"
        }
      ],
      "stateMutability": "view",
      "type": "function"
    },
    {
      "inputs": [
        {
          "internalType": "address",
          "name": "ofAddress",
          "type": "address"
        }
      ],
      "name": "calculateBNBReward",
      "outputs": [
        {
          "internalType": "uint256",
          "name": "",
          "type": "uint256"
        }
      ],
      "stateMutability": "view",
      "type": "function"
    },
    {
      "inputs": [],
      "name": "claimBNBReward",
      "outputs": [],
      "stateMutability": "nonpayable",
      "type": "function"
    },
    {
      "inputs": [],
      "name": "decimals",
      "outputs": [
        {
          "internalType": "uint8",
          "name": "",
          "type": "uint8"
        }
      ],
      "stateMutability": "view",
      "type": "function"
    },
    {
      "inputs": [
        {
          "internalType": "address",
          "name": "spender",
          "type": "address"
        },
        {
          "internalType": "uint256",
          "name": "subtractedValue",
          "type": "uint256"
        }
      ],
      "name": "decreaseAllowance",
      "outputs": [
        {
          "internalType": "bool",
          "name": "",
          "type": "bool"
        }
      ],
      "stateMutability": "nonpayable",
      "type": "function"
    },
    {
      "inputs": [
        {
          "internalType": "uint256",
          "name": "tAmount",
          "type": "uint256"
        }
      ],
      "name": "deliver",
      "outputs": [],
      "stateMutability": "nonpayable",
      "type": "function"
    },
    {
      "inputs": [],
      "name": "disableEasyRewardFrom",
      "outputs": [
        {
          "internalType": "uint256",
          "name": "",
          "type": "uint256"
        }
      ],
      "stateMutability": "view",
      "type": "function"
    },
    {
      "inputs": [],
      "name": "disruptiveCoverageFee",
      "outputs": [
        {
          "internalType": "uint256",
          "name": "",
          "type": "uint256"
        }
      ],
      "stateMutability": "view",
      "type": "function"
    },
    {
      "inputs": [
        {
          "internalType": "address",
          "name": "recipient",
          "type": "address"
        },
        {
          "internalType": "uint256",
          "name": "amount",
          "type": "uint256"
        }
      ],
      "name": "disruptiveTransfer",
      "outputs": [
        {
          "internalType": "bool",
          "name": "",
          "type": "bool"
        }
      ],
      "stateMutability": "payable",
      "type": "function"
    },
    {
      "inputs": [],
      "name": "disruptiveTransferEnabledFrom",
      "outputs": [
        {
          "internalType": "uint256",
          "name": "",
          "type": "uint256"
        }
      ],
      "stateMutability": "view",
      "type": "function"
    },
    {
      "inputs": [],
      "name": "easyRewardCycleBlock",
      "outputs": [
        {
          "internalType": "uint256",
          "name": "",
          "type": "uint256"
        }
      ],
      "stateMutability": "view",
      "type": "function"
    },
    {
      "inputs": [
        {
          "internalType": "address",
          "name": "account",
          "type": "address"
        }
      ],
      "name": "excludeFromFee",
      "outputs": [],
      "stateMutability": "nonpayable",
      "type": "function"
    },
    {
      "inputs": [
        {
          "internalType": "address",
          "name": "account",
          "type": "address"
        }
      ],
      "name": "excludeFromReward",
      "outputs": [],
      "stateMutability": "nonpayable",
      "type": "function"
    },
    {
      "inputs": [],
      "name": "geUnlockTime",
      "outputs": [
        {
          "internalType": "uint256",
          "name": "",
          "type": "uint256"
        }
      ],
      "stateMutability": "view",
      "type": "function"
    },
    {
      "inputs": [],
      "name": "getRewardCycleBlock",
      "outputs": [
        {
          "internalType": "uint256",
          "name": "",
          "type": "uint256"
        }
      ],
      "stateMutability": "view",
      "type": "function"
    },
    {
      "inputs": [
        {
          "internalType": "address",
          "name": "account",
          "type": "address"
        }
      ],
      "name": "includeInFee",
      "outputs": [],
      "stateMutability": "nonpayable",
      "type": "function"
    },
    {
      "inputs": [
        {
          "internalType": "address",
          "name": "account",
          "type": "address"
        }
      ],
      "name": "includeInReward",
      "outputs": [],
      "stateMutability": "nonpayable",
      "type": "function"
    },
    {
      "inputs": [
        {
          "internalType": "address",
          "name": "spender",
          "type": "address"
        },
        {
          "internalType": "uint256",
          "name": "addedValue",
          "type": "uint256"
        }
      ],
      "name": "increaseAllowance",
      "outputs": [
        {
          "internalType": "bool",
          "name": "",
          "type": "bool"
        }
      ],
      "stateMutability": "nonpayable",
      "type": "function"
    },
    {
      "inputs": [
        {
          "internalType": "address",
          "name": "account",
          "type": "address"
        }
      ],
      "name": "isExcludedFromFee",
      "outputs": [
        {
          "internalType": "bool",
          "name": "",
          "type": "bool"
        }
      ],
      "stateMutability": "view",
      "type": "function"
    },
    {
      "inputs": [
        {
          "internalType": "address",
          "name": "account",
          "type": "address"
        }
      ],
      "name": "isExcludedFromReward",
      "outputs": [
        {
          "internalType": "bool",
          "name": "",
          "type": "bool"
        }
      ],
      "stateMutability": "view",
      "type": "function"
    },
    {
      "inputs": [
        {
          "internalType": "uint256",
          "name": "time",
          "type": "uint256"
        }
      ],
      "name": "lock",
      "outputs": [],
      "stateMutability": "nonpayable",
      "type": "function"
    },
    {
      "inputs": [],
      "name": "name",
      "outputs": [
        {
          "internalType": "string",
          "name": "",
          "type": "string"
        }
      ],
      "stateMutability": "view",
      "type": "function"
    },
    {
      "inputs": [
        {
          "internalType": "address",
          "name": "",
          "type": "address"
        }
      ],
      "name": "nextAvailableClaimDate",
      "outputs": [
        {
          "internalType": "uint256",
          "name": "",
          "type": "uint256"
        }
      ],
      "stateMutability": "view",
      "type": "function"
    },
    {
      "inputs": [],
      "name": "owner",
      "outputs": [
        {
          "internalType": "address",
          "name": "",
          "type": "address"
        }
      ],
      "stateMutability": "view",
      "type": "function"
    },
    {
      "inputs": [],
      "name": "pancakePair",
      "outputs": [
        {
          "internalType": "address",
          "name": "",
          "type": "address"
        }
      ],
      "stateMutability": "view",
      "type": "function"
    },
    {
      "inputs": [],
      "name": "pancakeRouter",
      "outputs": [
        {
          "internalType": "contract IPancakeRouter02",
          "name": "",
          "type": "address"
        }
      ],
      "stateMutability": "view",
      "type": "function"
    },
    {
      "inputs": [
        {
          "internalType": "uint256",
          "name": "tAmount",
          "type": "uint256"
        },
        {
          "internalType": "bool",
          "name": "deductTransferFee",
          "type": "bool"
        }
      ],
      "name": "reflectionFromToken",
      "outputs": [
        {
          "internalType": "uint256",
          "name": "",
          "type": "uint256"
        }
      ],
      "stateMutability": "view",
      "type": "function"
    },
    {
      "inputs": [],
      "name": "renounceOwnership",
      "outputs": [],
      "stateMutability": "nonpayable",
      "type": "function"
    },
    {
      "inputs": [],
      "name": "rewardCycleBlock",
      "outputs": [
        {
          "internalType": "uint256",
          "name": "",
          "type": "uint256"
        }
      ],
      "stateMutability": "view",
      "type": "function"
    },
    {
      "inputs": [
        {
          "internalType": "uint256",
          "name": "durationTime",
          "type": "uint256"
        }
      ],
      "name": "setDisableEasyRewardFrom",
      "outputs": [],
      "stateMutability": "nonpayable",
      "type": "function"
    },
    {
      "inputs": [
        {
          "internalType": "uint256",
          "name": "value",
          "type": "uint256"
        }
      ],
      "name": "setDisruptiveCoverageFee",
      "outputs": [],
      "stateMutability": "nonpayable",
      "type": "function"
    },
    {
      "inputs": [
        {
          "internalType": "uint256",
          "name": "durationTime",
          "type": "uint256"
        }
      ],
      "name": "setDisruptiveTransferEnabledFrom",
      "outputs": [],
      "stateMutability": "nonpayable",
      "type": "function"
    },
    {
      "inputs": [
        {
          "internalType": "uint256",
          "name": "liquidityFee",
          "type": "uint256"
        }
      ],
      "name": "setLiquidityFeePercent",
      "outputs": [],
      "stateMutability": "nonpayable",
      "type": "function"
    },
    {
      "inputs": [
        {
          "internalType": "uint256",
          "name": "maxTxPercent",
          "type": "uint256"
        }
      ],
      "name": "setMaxTxPercent",
      "outputs": [],
      "stateMutability": "nonpayable",
      "type": "function"
    },
    {
      "inputs": [
        {
          "internalType": "uint256",
          "name": "value",
          "type": "uint256"
        }
      ],
      "name": "setRewardCycleBlock",
      "outputs": [],
      "stateMutability": "nonpayable",
      "type": "function"
    },
    {
      "inputs": [
        {
          "internalType": "bool",
          "name": "_enabled",
          "type": "bool"
        }
      ],
      "name": "setSwapAndLiquifyEnabled",
      "outputs": [],
      "stateMutability": "nonpayable",
      "type": "function"
    },
    {
      "inputs": [
        {
          "internalType": "uint256",
          "name": "taxFee",
          "type": "uint256"
        }
      ],
      "name": "setTaxFeePercent",
      "outputs": [],
      "stateMutability": "nonpayable",
      "type": "function"
    },
    {
      "inputs": [
        {
          "internalType": "uint256",
          "name": "value",
          "type": "uint256"
        }
      ],
      "name": "setThreshHoldTopUpRate",
      "outputs": [],
      "stateMutability": "nonpayable",
      "type": "function"
    },
    {
      "inputs": [
        {
          "internalType": "uint256",
          "name": "value",
          "type": "uint256"
        }
      ],
      "name": "setWinningDoubleRewardPercentage",
      "outputs": [],
      "stateMutability": "nonpayable",
      "type": "function"
    },
    {
      "inputs": [],
      "name": "swapAndLiquifyEnabled",
      "outputs": [
        {
          "internalType": "bool",
          "name": "",
          "type": "bool"
        }
      ],
      "stateMutability": "view",
      "type": "function"
    },
    {
      "inputs": [],
      "name": "symbol",
      "outputs": [
        {
          "internalType": "string",
          "name": "",
          "type": "string"
        }
      ],
      "stateMutability": "view",
      "type": "function"
    },
    {
      "inputs": [],
      "name": "threshHoldTopUpRate",
      "outputs": [
        {
          "internalType": "uint256",
          "name": "",
          "type": "uint256"
        }
      ],
      "stateMutability": "view",
      "type": "function"
    },
    {
      "inputs": [
        {
          "internalType": "uint256",
          "name": "rAmount",
          "type": "uint256"
        }
      ],
      "name": "tokenFromReflection",
      "outputs": [
        {
          "internalType": "uint256",
          "name": "",
          "type": "uint256"
        }
      ],
      "stateMutability": "view",
      "type": "function"
    },
    {
      "inputs": [],
      "name": "totalFees",
      "outputs": [
        {
          "internalType": "uint256",
          "name": "",
          "type": "uint256"
        }
      ],
      "stateMutability": "view",
      "type": "function"
    },
    {
      "inputs": [],
      "name": "totalSupply",
      "outputs": [
        {
          "internalType": "uint256",
          "name": "",
          "type": "uint256"
        }
      ],
      "stateMutability": "view",
      "type": "function"
    },
    {
      "inputs": [
        {
          "internalType": "address",
          "name": "recipient",
          "type": "address"
        },
        {
          "internalType": "uint256",
          "name": "amount",
          "type": "uint256"
        }
      ],
      "name": "transfer",
      "outputs": [
        {
          "internalType": "bool",
          "name": "",
          "type": "bool"
        }
      ],
      "stateMutability": "nonpayable",
      "type": "function"
    },
    {
      "inputs": [
        {
          "internalType": "address",
          "name": "sender",
          "type": "address"
        },
        {
          "internalType": "address",
          "name": "recipient",
          "type": "address"
        },
        {
          "internalType": "uint256",
          "name": "amount",
          "type": "uint256"
        }
      ],
      "name": "transferFrom",
      "outputs": [
        {
          "internalType": "bool",
          "name": "",
          "type": "bool"
        }
      ],
      "stateMutability": "nonpayable",
      "type": "function"
    },
    {
      "inputs": [
        {
          "internalType": "address",
          "name": "newOwner",
          "type": "address"
        }
      ],
      "name": "transferOwnership",
      "outputs": [],
      "stateMutability": "nonpayable",
      "type": "function"
    },
    {
      "inputs": [],
      "name": "unlock",
      "outputs": [],
      "stateMutability": "nonpayable",
      "type": "function"
    },
    {
      "inputs": [],
      "name": "winningDoubleRewardPercentage",
      "outputs": [
        {
          "internalType": "uint256",
          "name": "",
          "type": "uint256"
        }
      ],
      "stateMutability": "view",
      "type": "function"
    },
    {
      "stateMutability": "payable",
      "type": "receive"
    }
  ],
  "bytecode": "0x60c060405269d3c21bcecceda1000000600955600954600019816200002057fe5b0660001903600a556040518060400160405280600e81526020017f4d6f6f6e2052617420546f6b656e000000000000000000000000000000000000815250600c908051906020019062000075929190620006cc565b506040518060400160405280600481526020017f4d52415400000000000000000000000000000000000000000000000000000000815250600d9080519060200190620000c3929190620006cc565b506009600e60006101000a81548160ff021916908360ff16021790555062093a80600f55620151806010556002601155600954601255671bc16d674ec800006013556000601560006101000a81548160ff0219169083151502179055506000601655600060175560056018556002601955601954601a556008601b55601b54601c5562000162600a601254620005e460201b62002ff81790919060201c565b601d553480156200017257600080fd5b50604051620067ad380380620067ad8339818101604052810190620001989190620007d5565b6000620001aa6200063660201b60201c565b9050806000806101000a81548173ffffffffffffffffffffffffffffffffffffffff021916908373ffffffffffffffffffffffffffffffffffffffff1602179055508073ffffffffffffffffffffffffffffffffffffffff16600073ffffffffffffffffffffffffffffffffffffffff167f8be0079c531659141344cd1fd0a4f28419497f9722a3daafe3b4186f6b6457e060405160405180910390a350600a54600360006200025f6200063660201b60201c565b73ffffffffffffffffffffffffffffffffffffffff1673ffffffffffffffffffffffffffffffffffffffff1681526020019081526020016000208190555060008190508073ffffffffffffffffffffffffffffffffffffffff1663c45a01556040518163ffffffff1660e01b815260040160206040518083038186803b158015620002e957600080fd5b505afa158015620002fe573d6000803e3d6000fd5b505050506040513d601f19601f82011682018060405250810190620003249190620007a9565b73ffffffffffffffffffffffffffffffffffffffff1663c9c65396308373ffffffffffffffffffffffffffffffffffffffff1663ad5c46486040518163ffffffff1660e01b815260040160206040518083038186803b1580156200038757600080fd5b505afa1580156200039c573d6000803e3d6000fd5b505050506040513d601f19601f82011682018060405250810190620003c29190620007a9565b6040518363ffffffff1660e01b8152600401620003e192919062000875565b602060405180830381600087803b158015620003fc57600080fd5b505af115801562000411573d6000803e3d6000fd5b505050506040513d601f19601f82011682018060405250810190620004379190620007a9565b73ffffffffffffffffffffffffffffffffffffffff1660a08173ffffffffffffffffffffffffffffffffffffffff1660601b815250508073ffffffffffffffffffffffffffffffffffffffff1660808173ffffffffffffffffffffffffffffffffffffffff1660601b81525050600160066000620004ba6200063e60201b60201c565b73ffffffffffffffffffffffffffffffffffffffff1673ffffffffffffffffffffffffffffffffffffffff16815260200190815260200160002060006101000a81548160ff0219169083151502179055506001600660003073ffffffffffffffffffffffffffffffffffffffff1673ffffffffffffffffffffffffffffffffffffffff16815260200190815260200160002060006101000a81548160ff021916908315150217905550620005736200063660201b60201c565b73ffffffffffffffffffffffffffffffffffffffff16600073ffffffffffffffffffffffffffffffffffffffff167fddf252ad1be2c89b69c2b068fc378daa952ba7f163c4a11628f55a4df523b3ef600954604051620005d49190620008c6565b60405180910390a3505062000a08565b60006200062e83836040518060400160405280601a81526020017f536166654d6174683a206469766973696f6e206279207a65726f0000000000008152506200066760201b60201c565b905092915050565b600033905090565b60008060009054906101000a900473ffffffffffffffffffffffffffffffffffffffff16905090565b60008083118290620006b1576040517f08c379a0000000000000000000000000000000000000000000000000000000008152600401620006a89190620008a2565b60405180910390fd5b506000838581620006be57fe5b049050809150509392505050565b828054600181600116156101000203166002900490600052602060002090601f016020900481019282601f106200070f57805160ff191683800117855562000740565b8280016001018555821562000740579182015b828111156200073f57825182559160200191906001019062000722565b5b5090506200074f919062000753565b5090565b6200077891905b80821115620007745760008160009055506001016200075a565b5090565b90565b6000815190506200078c81620009d4565b92915050565b600081519050620007a381620009ee565b92915050565b600060208284031215620007bc57600080fd5b6000620007cc848285016200077b565b91505092915050565b600060208284031215620007e857600080fd5b6000620007f88482850162000792565b91505092915050565b6200080c8162000951565b82525050565b6200081d81620008ff565b82525050565b60006200083082620008e3565b6200083c8185620008ee565b93506200084e8185602086016200098d565b6200085981620009c3565b840191505092915050565b6200086f8162000947565b82525050565b60006040820190506200088c600083018562000801565b6200089b602083018462000812565b9392505050565b60006020820190508181036000830152620008be818462000823565b905092915050565b6000602082019050620008dd600083018462000864565b92915050565b600081519050919050565b600082825260208201905092915050565b60006200090c8262000927565b9050919050565b6000620009208262000927565b9050919050565b600073ffffffffffffffffffffffffffffffffffffffff82169050919050565b6000819050919050565b60006200095e8262000965565b9050919050565b6000620009728262000979565b9050919050565b6000620009868262000927565b9050919050565b60005b83811015620009ad57808201518184015260208101905062000990565b83811115620009bd576000848401525b50505050565b6000601f19601f8301169050919050565b620009df81620008ff565b8114620009eb57600080fd5b50565b620009f98162000913565b811462000a0557600080fd5b50565b60805160601c60a05160601c615d6262000a4b60003980612841528061378d52806138335250806124485280612865528061391952806139d15250615d626000f3fe60806040526004361061036f5760003560e01c806370f93508116101c6578063a69df4b5116100f7578063d543dbeb11610095578063dd62ed3e1161006f578063dd62ed3e14610ca6578063ea2f0b3714610ce3578063f2fde38b14610d0c578063fda48a7314610d3557610376565b8063d543dbeb14610c2b578063dc45a85d14610c54578063dd46706414610c7d57610376565b8063b6c52324116100d1578063b6c5232414610b81578063b8c9d25c14610bac578063c21ebd0714610bd7578063c49b9a8014610c0257610376565b8063a69df4b514610af0578063a9059cbb14610b07578063b47fd56314610b4457610376565b80638ee88c531161016457806395ba68d71161013e57806395ba68d714610a3257806395d89b4114610a5d5780639bb4dc6014610a88578063a457c2d714610ab357610376565b80638ee88c53146109c75780638fda356d146109f05780638feed79a14610a0757610376565b80637d1db4a5116101a05780637d1db4a51461090b57806388f82020146109365780638c250c61146109735780638da5cb5b1461099c57610376565b806370f93508146108a0578063715018a6146108c95780637217f4bc146108e057610376565b80633bd5d173116102a05780635342acb41161023e5780636a40701c116102185780636a40701c146107f65780636bc87c3a1461080d5780636d33a4681461083857806370a082311461086357610376565b80635342acb4146107655780635c9827a7146107a25780635e4196ab146107cb57610376565b80634549b0391161027a5780634549b039146106ab5780634a74bb02146106e8578063519c05831461071357806352390c021461073c57610376565b80633bd5d173146106295780633d87ea7514610652578063437823ec1461068257610376565b806323b872dd1161030d5780633685d419116102e75780633685d4191461056d57806337ad7cf51461059657806339509351146105c15780633b124fe7146105fe57610376565b806323b872dd146104c85780632d83811914610505578063313ce5671461054257610376565b8063095ea7b311610349578063095ea7b3146103f857806313114a9d1461043557806318160ddd146104605780632060995e1461048b57610376565b806304bd6b1d1461037b578063061c82d0146103a457806306fdde03146103cd57610376565b3661037657005b600080fd5b34801561038757600080fd5b506103a2600480360381019061039d9190614fdb565b610d60565b005b3480156103b057600080fd5b506103cb60048036038101906103c69190614fdb565b610e02565b005b3480156103d957600080fd5b506103e2610ea2565b6040516103ef9190615841565b60405180910390f35b34801561040457600080fd5b5061041f600480360381019061041a9190614f76565b610f44565b60405161042c919061580b565b60405180910390f35b34801561044157600080fd5b5061044a610f62565b6040516104579190615aa3565b60405180910390f35b34801561046c57600080fd5b50610475610f6c565b6040516104829190615aa3565b60405180910390f35b34801561049757600080fd5b506104b260048036038101906104ad9190614ec2565b610f76565b6040516104bf9190615aa3565b60405180910390f35b3480156104d457600080fd5b506104ef60048036038101906104ea9190614f27565b61105a565b6040516104fc919061580b565b60405180910390f35b34801561051157600080fd5b5061052c60048036038101906105279190614fdb565b611135565b6040516105399190615aa3565b60405180910390f35b34801561054e57600080fd5b506105576111a3565b6040516105649190615b9b565b60405180910390f35b34801561057957600080fd5b50610594600480360381019061058f9190614ec2565b6111ba565b005b3480156105a257600080fd5b506105ab6114e2565b6040516105b89190615aa3565b60405180910390f35b3480156105cd57600080fd5b506105e860048036038101906105e39190614f76565b6114e8565b6040516105f5919061580b565b60405180910390f35b34801561060a57600080fd5b5061061361159b565b6040516106209190615aa3565b60405180910390f35b34801561063557600080fd5b50610650600480360381019061064b9190614fdb565b6115a1565b005b61066c60048036038101906106679190614f76565b61171c565b604051610679919061580b565b60405180910390f35b34801561068e57600080fd5b506106a960048036038101906106a49190614ec2565b61173b565b005b3480156106b757600080fd5b506106d260048036038101906106cd919061502d565b61182c565b6040516106df9190615aa3565b60405180910390f35b3480156106f457600080fd5b506106fd6118b0565b60405161070a919061580b565b60405180910390f35b34801561071f57600080fd5b5061073a60048036038101906107359190614fdb565b6118c3565b005b34801561074857600080fd5b50610763600480360381019061075e9190614ec2565b611963565b005b34801561077157600080fd5b5061078c60048036038101906107879190614ec2565b611c18565b604051610799919061580b565b60405180910390f35b3480156107ae57600080fd5b506107c960048036038101906107c49190614fdb565b611c6e565b005b3480156107d757600080fd5b506107e0611d0e565b6040516107ed9190615aa3565b60405180910390f35b34801561080257600080fd5b5061080b611d14565b005b34801561081957600080fd5b50610822611ea0565b60405161082f9190615aa3565b60405180910390f35b34801561084457600080fd5b5061084d611ea6565b60405161085a9190615aa3565b60405180910390f35b34801561086f57600080fd5b5061088a60048036038101906108859190614ec2565b611eac565b6040516108979190615aa3565b60405180910390f35b3480156108ac57600080fd5b506108c760048036038101906108c29190614fdb565b611f97565b005b3480156108d557600080fd5b506108de612039565b005b3480156108ec57600080fd5b506108f561218e565b6040516109029190615aa3565b60405180910390f35b34801561091757600080fd5b50610920612194565b60405161092d9190615aa3565b60405180910390f35b34801561094257600080fd5b5061095d60048036038101906109589190614ec2565b61219a565b60405161096a919061580b565b60405180910390f35b34801561097f57600080fd5b5061099a60048036038101906109959190614fdb565b6121f0565b005b3480156109a857600080fd5b506109b1612290565b6040516109be9190615782565b60405180910390f35b3480156109d357600080fd5b506109ee60048036038101906109e99190614fdb565b6122b9565b005b3480156109fc57600080fd5b50610a05612359565b005b348015610a1357600080fd5b50610a1c61248f565b604051610a299190615aa3565b60405180910390f35b348015610a3e57600080fd5b50610a47612495565b604051610a549190615aa3565b60405180910390f35b348015610a6957600080fd5b50610a7261249b565b604051610a7f9190615841565b60405180910390f35b348015610a9457600080fd5b50610a9d61253d565b604051610aaa9190615aa3565b60405180910390f35b348015610abf57600080fd5b50610ada6004803603810190610ad59190614f76565b61255b565b604051610ae7919061580b565b60405180910390f35b348015610afc57600080fd5b50610b05612628565b005b348015610b1357600080fd5b50610b2e6004803603810190610b299190614f76565b6127fd565b604051610b3b919061580b565b60405180910390f35b348015610b5057600080fd5b50610b6b6004803603810190610b669190614ec2565b61281d565b604051610b789190615aa3565b60405180910390f35b348015610b8d57600080fd5b50610b96612835565b604051610ba39190615aa3565b60405180910390f35b348015610bb857600080fd5b50610bc161283f565b604051610bce9190615782565b60405180910390f35b348015610be357600080fd5b50610bec612863565b604051610bf99190615826565b60405180910390f35b348015610c0e57600080fd5b50610c296004803603810190610c249190614fb2565b612887565b005b348015610c3757600080fd5b50610c526004803603810190610c4d9190614fdb565b612971565b005b348015610c6057600080fd5b50610c7b6004803603810190610c769190614fdb565b612a55565b005b348015610c8957600080fd5b50610ca46004803603810190610c9f9190614fdb565b612af5565b005b348015610cb257600080fd5b50610ccd6004803603810190610cc89190614eeb565b612cb6565b604051610cda9190615aa3565b60405180910390f35b348015610cef57600080fd5b50610d0a6004803603810190610d059190614ec2565b612d3d565b005b348015610d1857600080fd5b50610d336004803603810190610d2e9190614ec2565b612e2e565b005b348015610d4157600080fd5b50610d4a612ff2565b604051610d579190615aa3565b60405180910390f35b610d68613042565b73ffffffffffffffffffffffffffffffffffffffff166000809054906101000a900473ffffffffffffffffffffffffffffffffffffffff1673ffffffffffffffffffffffffffffffffffffffff1614610df6576040517f08c379a0000000000000000000000000000000000000000000000000000000008152600401610ded906159a3565b60405180910390fd5b80420160168190555050565b610e0a613042565b73ffffffffffffffffffffffffffffffffffffffff166000809054906101000a900473ffffffffffffffffffffffffffffffffffffffff1673ffffffffffffffffffffffffffffffffffffffff1614610e98576040517f08c379a0000000000000000000000000000000000000000000000000000000008152600401610e8f906159a3565b60405180910390fd5b8060198190555050565b6060600c8054600181600116156101000203166002900480601f016020809104026020016040519081016040528092919081815260200182805460018160011615610100020316600290048015610f3a5780601f10610f0f57610100808354040283529160200191610f3a565b820191906000526020600020905b815481529060010190602001808311610f1d57829003601f168201915b5050505050905090565b6000610f58610f51613042565b848461304a565b6001905092915050565b6000600b54905090565b6000600954905090565b600080610fb3610f8761dead611eac565b610fa5610f946000611eac565b60095461321590919063ffffffff16565b61321590919063ffffffff16565b905073__$53bcfff703058d1366cb9df10eca7db15d$__63163296bc600954610fdb86611eac565b4760185486896040518763ffffffff1660e01b815260040161100296959493929190615b3a565b60206040518083038186803b15801561101a57600080fd5b505af415801561102e573d6000803e3d6000fd5b505050506040513d601f19601f820116820180604052508101906110529190615004565b915050919050565b6000611069848484600061325f565b61112a84611075613042565b61112585604051806060016040528060288152602001615ce060289139600560008b73ffffffffffffffffffffffffffffffffffffffff1673ffffffffffffffffffffffffffffffffffffffff16815260200190815260200160002060006110db613042565b73ffffffffffffffffffffffffffffffffffffffff1673ffffffffffffffffffffffffffffffffffffffff1681526020019081526020016000205461345c9092919063ffffffff16565b61304a565b600190509392505050565b6000600a5482111561117c576040517f08c379a0000000000000000000000000000000000000000000000000000000008152600401611173906158c3565b60405180910390fd5b60006111866134b7565b905061119b8184612ff890919063ffffffff16565b915050919050565b6000600e60009054906101000a900460ff16905090565b6111c2613042565b73ffffffffffffffffffffffffffffffffffffffff166000809054906101000a900473ffffffffffffffffffffffffffffffffffffffff1673ffffffffffffffffffffffffffffffffffffffff1614611250576040517f08c379a0000000000000000000000000000000000000000000000000000000008152600401611247906159a3565b60405180910390fd5b600760008273ffffffffffffffffffffffffffffffffffffffff1673ffffffffffffffffffffffffffffffffffffffff16815260200190815260200160002060009054906101000a900460ff166112dc576040517f08c379a00000000000000000000000000000000000000000000000000000000081526004016112d390615923565b60405180910390fd5b60008090505b6008805490508110156114de578173ffffffffffffffffffffffffffffffffffffffff166008828154811061131357fe5b9060005260206000200160009054906101000a900473ffffffffffffffffffffffffffffffffffffffff1673ffffffffffffffffffffffffffffffffffffffff1614156114d15760086001600880549050038154811061136f57fe5b9060005260206000200160009054906101000a900473ffffffffffffffffffffffffffffffffffffffff16600882815481106113a757fe5b9060005260206000200160006101000a81548173ffffffffffffffffffffffffffffffffffffffff021916908373ffffffffffffffffffffffffffffffffffffffff1602179055506000600460008473ffffffffffffffffffffffffffffffffffffffff1673ffffffffffffffffffffffffffffffffffffffff168152602001908152602001600020819055506000600760008473ffffffffffffffffffffffffffffffffffffffff1673ffffffffffffffffffffffffffffffffffffffff16815260200190815260200160002060006101000a81548160ff021916908315150217905550600880548061149757fe5b6001900381819060005260206000200160006101000a81549073ffffffffffffffffffffffffffffffffffffffff021916905590556114de565b80806001019150506112e2565b5050565b60105481565b60006115916114f5613042565b8461158c8560056000611506613042565b73ffffffffffffffffffffffffffffffffffffffff1673ffffffffffffffffffffffffffffffffffffffff16815260200190815260200160002060008973ffffffffffffffffffffffffffffffffffffffff1673ffffffffffffffffffffffffffffffffffffffff168152602001908152602001600020546134e290919063ffffffff16565b61304a565b6001905092915050565b60195481565b60006115ab613042565b9050600760008273ffffffffffffffffffffffffffffffffffffffff1673ffffffffffffffffffffffffffffffffffffffff16815260200190815260200160002060009054906101000a900460ff161561163a576040517f08c379a000000000000000000000000000000000000000000000000000000000815260040161163190615a43565b60405180910390fd5b600061164583613537565b5050505050905061169e81600360008573ffffffffffffffffffffffffffffffffffffffff1673ffffffffffffffffffffffffffffffffffffffff1681526020019081526020016000205461321590919063ffffffff16565b600360008473ffffffffffffffffffffffffffffffffffffffff1673ffffffffffffffffffffffffffffffffffffffff168152602001908152602001600020819055506116f681600a5461321590919063ffffffff16565b600a8190555061171183600b546134e290919063ffffffff16565b600b81905550505050565b6000611731611729613042565b84843461325f565b6001905092915050565b611743613042565b73ffffffffffffffffffffffffffffffffffffffff166000809054906101000a900473ffffffffffffffffffffffffffffffffffffffff1673ffffffffffffffffffffffffffffffffffffffff16146117d1576040517f08c379a00000000000000000000000000000000000000000000000000000000081526004016117c8906159a3565b60405180910390fd5b6001600660008373ffffffffffffffffffffffffffffffffffffffff1673ffffffffffffffffffffffffffffffffffffffff16815260200190815260200160002060006101000a81548160ff02191690831515021790555050565b6000600954831115611873576040517f08c379a000000000000000000000000000000000000000000000000000000000815260040161186a90615943565b60405180910390fd5b8161189357600061188384613537565b50505050509050809150506118aa565b600061189e84613537565b50505050915050809150505b92915050565b601560009054906101000a900460ff1681565b6118cb613042565b73ffffffffffffffffffffffffffffffffffffffff166000809054906101000a900473ffffffffffffffffffffffffffffffffffffffff1673ffffffffffffffffffffffffffffffffffffffff1614611959576040517f08c379a0000000000000000000000000000000000000000000000000000000008152600401611950906159a3565b60405180910390fd5b8060138190555050565b61196b613042565b73ffffffffffffffffffffffffffffffffffffffff166000809054906101000a900473ffffffffffffffffffffffffffffffffffffffff1673ffffffffffffffffffffffffffffffffffffffff16146119f9576040517f08c379a00000000000000000000000000000000000000000000000000000000081526004016119f0906159a3565b60405180910390fd5b600760008273ffffffffffffffffffffffffffffffffffffffff1673ffffffffffffffffffffffffffffffffffffffff16815260200190815260200160002060009054906101000a900460ff1615611a86576040517f08c379a0000000000000000000000000000000000000000000000000000000008152600401611a7d90615923565b60405180910390fd5b6000600360008373ffffffffffffffffffffffffffffffffffffffff1673ffffffffffffffffffffffffffffffffffffffff168152602001908152602001600020541115611b5a57611b16600360008373ffffffffffffffffffffffffffffffffffffffff1673ffffffffffffffffffffffffffffffffffffffff16815260200190815260200160002054611135565b600460008373ffffffffffffffffffffffffffffffffffffffff1673ffffffffffffffffffffffffffffffffffffffff168152602001908152602001600020819055505b6001600760008373ffffffffffffffffffffffffffffffffffffffff1673ffffffffffffffffffffffffffffffffffffffff16815260200190815260200160002060006101000a81548160ff0219169083151502179055506008819080600181540180825580915050600190039060005260206000200160009091909190916101000a81548173ffffffffffffffffffffffffffffffffffffffff021916908373ffffffffffffffffffffffffffffffffffffffff16021790555050565b6000600660008373ffffffffffffffffffffffffffffffffffffffff1673ffffffffffffffffffffffffffffffffffffffff16815260200190815260200160002060009054906101000a900460ff169050919050565b611c76613042565b73ffffffffffffffffffffffffffffffffffffffff166000809054906101000a900473ffffffffffffffffffffffffffffffffffffffff1673ffffffffffffffffffffffffffffffffffffffff1614611d04576040517f08c379a0000000000000000000000000000000000000000000000000000000008152600401611cfb906159a3565b60405180910390fd5b8060188190555050565b60165481565b42601460003373ffffffffffffffffffffffffffffffffffffffff1673ffffffffffffffffffffffffffffffffffffffff168152602001908152602001600020541115611d96576040517f08c379a0000000000000000000000000000000000000000000000000000000008152600401611d8d90615863565b60405180910390fd5b6000611da133610f76565b905060003373ffffffffffffffffffffffffffffffffffffffff1682604051611dc99061576d565b60006040518083038185875af1925050503d8060008114611e06576040519150601f19603f3d011682016040523d82523d6000602084013e611e0b565b606091505b5050905080611e4f576040517f08c379a0000000000000000000000000000000000000000000000000000000008152600401611e4690615a03565b60405180910390fd5b611e5761253d565b4201601460003373ffffffffffffffffffffffffffffffffffffffff1673ffffffffffffffffffffffffffffffffffffffff168152602001908152602001600020819055505050565b601b5481565b60135481565b6000600760008373ffffffffffffffffffffffffffffffffffffffff1673ffffffffffffffffffffffffffffffffffffffff16815260200190815260200160002060009054906101000a900460ff1615611f4757600460008373ffffffffffffffffffffffffffffffffffffffff1673ffffffffffffffffffffffffffffffffffffffff168152602001908152602001600020549050611f92565b611f8f600360008473ffffffffffffffffffffffffffffffffffffffff1673ffffffffffffffffffffffffffffffffffffffff16815260200190815260200160002054611135565b90505b919050565b611f9f613042565b73ffffffffffffffffffffffffffffffffffffffff166000809054906101000a900473ffffffffffffffffffffffffffffffffffffffff1673ffffffffffffffffffffffffffffffffffffffff161461202d576040517f08c379a0000000000000000000000000000000000000000000000000000000008152600401612024906159a3565b60405180910390fd5b80420160178190555050565b612041613042565b73ffffffffffffffffffffffffffffffffffffffff166000809054906101000a900473ffffffffffffffffffffffffffffffffffffffff1673ffffffffffffffffffffffffffffffffffffffff16146120cf576040517f08c379a00000000000000000000000000000000000000000000000000000000081526004016120c6906159a3565b60405180910390fd5b600073ffffffffffffffffffffffffffffffffffffffff166000809054906101000a900473ffffffffffffffffffffffffffffffffffffffff1673ffffffffffffffffffffffffffffffffffffffff167f8be0079c531659141344cd1fd0a4f28419497f9722a3daafe3b4186f6b6457e060405160405180910390a360008060006101000a81548173ffffffffffffffffffffffffffffffffffffffff021916908373ffffffffffffffffffffffffffffffffffffffff160217905550565b600f5481565b60125481565b6000600760008373ffffffffffffffffffffffffffffffffffffffff1673ffffffffffffffffffffffffffffffffffffffff16815260200190815260200160002060009054906101000a900460ff169050919050565b6121f8613042565b73ffffffffffffffffffffffffffffffffffffffff166000809054906101000a900473ffffffffffffffffffffffffffffffffffffffff1673ffffffffffffffffffffffffffffffffffffffff1614612286576040517f08c379a000000000000000000000000000000000000000000000000000000000815260040161227d906159a3565b60405180910390fd5b80600f8190555050565b60008060009054906101000a900473ffffffffffffffffffffffffffffffffffffffff16905090565b6122c1613042565b73ffffffffffffffffffffffffffffffffffffffff166000809054906101000a900473ffffffffffffffffffffffffffffffffffffffff1673ffffffffffffffffffffffffffffffffffffffff161461234f576040517f08c379a0000000000000000000000000000000000000000000000000000000008152600401612346906159a3565b60405180910390fd5b80601b8190555050565b612361613042565b73ffffffffffffffffffffffffffffffffffffffff166000809054906101000a900473ffffffffffffffffffffffffffffffffffffffff1673ffffffffffffffffffffffffffffffffffffffff16146123ef576040517f08c379a00000000000000000000000000000000000000000000000000000000081526004016123e6906159a3565b60405180910390fd5b6123f96005612971565b6124036001612887565b61240f62093a806121f0565b612420671bc16d674ec800006118c3565b61242c62093a80610d60565b61243862093a80611f97565b6124426005611c6e565b61248d307f00000000000000000000000000000000000000000000000000000000000000007fffffffffffffffffffffffffffffffffffffffffffffffffffffffffffffffff61304a565b565b60185481565b60175481565b6060600d8054600181600116156101000203166002900480601f0160208091040260200160405190810160405280929190818152602001828054600181600116156101000203166002900480156125335780601f1061250857610100808354040283529160200191612533565b820191906000526020600020905b81548152906001019060200180831161251657829003601f168201915b5050505050905090565b6000601754421061255257600f549050612558565b60105490505b90565b600061261e612568613042565b8461261985604051806060016040528060258152602001615d086025913960056000612592613042565b73ffffffffffffffffffffffffffffffffffffffff1673ffffffffffffffffffffffffffffffffffffffff16815260200190815260200160002060008a73ffffffffffffffffffffffffffffffffffffffff1673ffffffffffffffffffffffffffffffffffffffff1681526020019081526020016000205461345c9092919063ffffffff16565b61304a565b6001905092915050565b3373ffffffffffffffffffffffffffffffffffffffff16600160009054906101000a900473ffffffffffffffffffffffffffffffffffffffff1673ffffffffffffffffffffffffffffffffffffffff16146126b8576040517f08c379a00000000000000000000000000000000000000000000000000000000081526004016126af90615a83565b60405180910390fd5b60025442116126fc576040517f08c379a00000000000000000000000000000000000000000000000000000000081526004016126f390615a23565b60405180910390fd5b600160009054906101000a900473ffffffffffffffffffffffffffffffffffffffff1673ffffffffffffffffffffffffffffffffffffffff166000809054906101000a900473ffffffffffffffffffffffffffffffffffffffff1673ffffffffffffffffffffffffffffffffffffffff167f8be0079c531659141344cd1fd0a4f28419497f9722a3daafe3b4186f6b6457e060405160405180910390a3600160009054906101000a900473ffffffffffffffffffffffffffffffffffffffff166000806101000a81548173ffffffffffffffffffffffffffffffffffffffff021916908373ffffffffffffffffffffffffffffffffffffffff160217905550565b600061281361280a613042565b8484600061325f565b6001905092915050565b60146020528060005260406000206000915090505481565b6000600254905090565b7f000000000000000000000000000000000000000000000000000000000000000081565b7f000000000000000000000000000000000000000000000000000000000000000081565b61288f613042565b73ffffffffffffffffffffffffffffffffffffffff166000809054906101000a900473ffffffffffffffffffffffffffffffffffffffff1673ffffffffffffffffffffffffffffffffffffffff161461291d576040517f08c379a0000000000000000000000000000000000000000000000000000000008152600401612914906159a3565b60405180910390fd5b80601560006101000a81548160ff0219169083151502179055507f53726dfcaf90650aa7eb35524f4d3220f07413c8d6cb404cc8c18bf5591bc15981604051612966919061580b565b60405180910390a150565b612979613042565b73ffffffffffffffffffffffffffffffffffffffff166000809054906101000a900473ffffffffffffffffffffffffffffffffffffffff1673ffffffffffffffffffffffffffffffffffffffff1614612a07576040517f08c379a00000000000000000000000000000000000000000000000000000000081526004016129fe906159a3565b60405180910390fd5b612a30612710612a228360095461359390919063ffffffff16565b612ff890919063ffffffff16565b601281905550612a4c600a601254612ff890919063ffffffff16565b601d8190555050565b612a5d613042565b73ffffffffffffffffffffffffffffffffffffffff166000809054906101000a900473ffffffffffffffffffffffffffffffffffffffff1673ffffffffffffffffffffffffffffffffffffffff1614612aeb576040517f08c379a0000000000000000000000000000000000000000000000000000000008152600401612ae2906159a3565b60405180910390fd5b8060118190555050565b612afd613042565b73ffffffffffffffffffffffffffffffffffffffff166000809054906101000a900473ffffffffffffffffffffffffffffffffffffffff1673ffffffffffffffffffffffffffffffffffffffff1614612b8b576040517f08c379a0000000000000000000000000000000000000000000000000000000008152600401612b82906159a3565b60405180910390fd5b6000809054906101000a900473ffffffffffffffffffffffffffffffffffffffff16600160006101000a81548173ffffffffffffffffffffffffffffffffffffffff021916908373ffffffffffffffffffffffffffffffffffffffff16021790555060008060006101000a81548173ffffffffffffffffffffffffffffffffffffffff021916908373ffffffffffffffffffffffffffffffffffffffff160217905550804201600281905550600073ffffffffffffffffffffffffffffffffffffffff166000809054906101000a900473ffffffffffffffffffffffffffffffffffffffff1673ffffffffffffffffffffffffffffffffffffffff167f8be0079c531659141344cd1fd0a4f28419497f9722a3daafe3b4186f6b6457e060405160405180910390a350565b6000600560008473ffffffffffffffffffffffffffffffffffffffff1673ffffffffffffffffffffffffffffffffffffffff16815260200190815260200160002060008373ffffffffffffffffffffffffffffffffffffffff1673ffffffffffffffffffffffffffffffffffffffff16815260200190815260200160002054905092915050565b612d45613042565b73ffffffffffffffffffffffffffffffffffffffff166000809054906101000a900473ffffffffffffffffffffffffffffffffffffffff1673ffffffffffffffffffffffffffffffffffffffff1614612dd3576040517f08c379a0000000000000000000000000000000000000000000000000000000008152600401612dca906159a3565b60405180910390fd5b6000600660008373ffffffffffffffffffffffffffffffffffffffff1673ffffffffffffffffffffffffffffffffffffffff16815260200190815260200160002060006101000a81548160ff02191690831515021790555050565b612e36613042565b73ffffffffffffffffffffffffffffffffffffffff166000809054906101000a900473ffffffffffffffffffffffffffffffffffffffff1673ffffffffffffffffffffffffffffffffffffffff1614612ec4576040517f08c379a0000000000000000000000000000000000000000000000000000000008152600401612ebb906159a3565b60405180910390fd5b600073ffffffffffffffffffffffffffffffffffffffff168173ffffffffffffffffffffffffffffffffffffffff161415612f34576040517f08c379a0000000000000000000000000000000000000000000000000000000008152600401612f2b906158e3565b60405180910390fd5b8073ffffffffffffffffffffffffffffffffffffffff166000809054906101000a900473ffffffffffffffffffffffffffffffffffffffff1673ffffffffffffffffffffffffffffffffffffffff167f8be0079c531659141344cd1fd0a4f28419497f9722a3daafe3b4186f6b6457e060405160405180910390a3806000806101000a81548173ffffffffffffffffffffffffffffffffffffffff021916908373ffffffffffffffffffffffffffffffffffffffff16021790555050565b60115481565b600061303a83836040518060400160405280601a81526020017f536166654d6174683a206469766973696f6e206279207a65726f000000000000815250613603565b905092915050565b600033905090565b600073ffffffffffffffffffffffffffffffffffffffff168373ffffffffffffffffffffffffffffffffffffffff1614156130ba576040517f08c379a00000000000000000000000000000000000000000000000000000000081526004016130b1906158a3565b60405180910390fd5b600073ffffffffffffffffffffffffffffffffffffffff168273ffffffffffffffffffffffffffffffffffffffff16141561312a576040517f08c379a000000000000000000000000000000000000000000000000000000000815260040161312190615a63565b60405180910390fd5b80600560008573ffffffffffffffffffffffffffffffffffffffff1673ffffffffffffffffffffffffffffffffffffffff16815260200190815260200160002060008473ffffffffffffffffffffffffffffffffffffffff1673ffffffffffffffffffffffffffffffffffffffff168152602001908152602001600020819055508173ffffffffffffffffffffffffffffffffffffffff168373ffffffffffffffffffffffffffffffffffffffff167f8c5be1e5ebec7d5bd14f71427d1e84f3dd0314c0f7b2291e5b200ac8c7c3b925836040516132089190615aa3565b60405180910390a3505050565b600061325783836040518060400160405280601e81526020017f536166654d6174683a207375627472616374696f6e206f766572666c6f77000081525061345c565b905092915050565b600073ffffffffffffffffffffffffffffffffffffffff168473ffffffffffffffffffffffffffffffffffffffff1614156132cf576040517f08c379a00000000000000000000000000000000000000000000000000000000081526004016132c690615883565b60405180910390fd5b600073ffffffffffffffffffffffffffffffffffffffff168373ffffffffffffffffffffffffffffffffffffffff16141561333f576040517f08c379a0000000000000000000000000000000000000000000000000000000008152600401613336906159e3565b60405180910390fd5b60008211613382576040517f08c379a0000000000000000000000000000000000000000000000000000000008152600401613379906159c3565b60405180910390fd5b61338e84848484613664565b6133988484613744565b600060019050600660008673ffffffffffffffffffffffffffffffffffffffff1673ffffffffffffffffffffffffffffffffffffffff16815260200190815260200160002060009054906101000a900460ff168061343f5750600660008573ffffffffffffffffffffffffffffffffffffffff1673ffffffffffffffffffffffffffffffffffffffff16815260200190815260200160002060009054906101000a900460ff165b1561344957600090505b61345585858584613a92565b5050505050565b60008383111582906134a4576040517f08c379a000000000000000000000000000000000000000000000000000000000815260040161349b9190615841565b60405180910390fd5b5060008385039050809150509392505050565b60008060006134c4613dad565b915091506134db8183612ff890919063ffffffff16565b9250505090565b60008082840190508381101561352d576040517f08c379a000000000000000000000000000000000000000000000000000000000815260040161352490615903565b60405180910390fd5b8091505092915050565b600080600080600080600080600061354e8a614041565b925092509250600080600061356c8d86866135676134b7565b61409b565b9250925092508282828888889b509b509b509b509b509b5050505050505091939550919395565b6000808314156135a657600090506135fd565b60008284029050828482816135b757fe5b04146135f8576040517f08c379a00000000000000000000000000000000000000000000000000000000081526004016135ef90615983565b60405180910390fd5b809150505b92915050565b6000808311829061364a576040517f08c379a00000000000000000000000000000000000000000000000000000000081526004016136419190615841565b60405180910390fd5b50600083858161365657fe5b049050809150509392505050565b61366c612290565b73ffffffffffffffffffffffffffffffffffffffff168473ffffffffffffffffffffffffffffffffffffffff16141580156136da57506136aa612290565b73ffffffffffffffffffffffffffffffffffffffff168373ffffffffffffffffffffffffffffffffffffffff1614155b1561373e57601354811080156136f257506016544210155b1561373d5760125482111561373c576040517f08c379a000000000000000000000000000000000000000000000000000000000815260040161373390615963565b60405180910390fd5b5b5b50505050565b600061374f30611eac565b905060125481106137605760125490505b6000601d548210159050600e60019054906101000a900460ff161580156137845750805b80156137dc57507f000000000000000000000000000000000000000000000000000000000000000073ffffffffffffffffffffffffffffffffffffffff168473ffffffffffffffffffffffffffffffffffffffff1614155b80156137f45750601560009054906101000a900460ff165b801561388357503073ffffffffffffffffffffffffffffffffffffffff168473ffffffffffffffffffffffffffffffffffffffff1614801561388157507f000000000000000000000000000000000000000000000000000000000000000073ffffffffffffffffffffffffffffffffffffffff168373ffffffffffffffffffffffffffffffffffffffff16145b155b15613a8c57600061389e600284612ff890919063ffffffff16565b905060006138c860026138ba848761321590919063ffffffff16565b612ff890919063ffffffff16565b905060006138df828661321590919063ffffffff16565b905060006138f683856134e290919063ffffffff16565b9050600047905073__$53bcfff703058d1366cb9df10eca7db15d$__6356feb11b7f0000000000000000000000000000000000000000000000000000000000000000846040518363ffffffff1660e01b81526004016139569291906157e2565b60006040518083038186803b15801561396e57600080fd5b505af4158015613982573d6000803e3d6000fd5b50505050600061399b824761321590919063ffffffff16565b905060006139b3600383612ff890919063ffffffff16565b905073__$53bcfff703058d1366cb9df10eca7db15d$__63cf6c62ea7f00000000000000000000000000000000000000000000000000000000000000006139f8612290565b88856040518563ffffffff1660e01b8152600401613a19949392919061579d565b60006040518083038186803b158015613a3157600080fd5b505af4158015613a45573d6000803e3d6000fd5b505050507f17bbfb9a6069321b6ded73bd96327c9e6b7212a5cd51ff219cd61370acafb561868387604051613a7c93929190615abe565b60405180910390a1505050505050505b50505050565b80613aa057613a9f614124565b5b613aaa8383614167565b600760008573ffffffffffffffffffffffffffffffffffffffff1673ffffffffffffffffffffffffffffffffffffffff16815260200190815260200160002060009054906101000a900460ff168015613b4d5750600760008473ffffffffffffffffffffffffffffffffffffffff1673ffffffffffffffffffffffffffffffffffffffff16815260200190815260200160002060009054906101000a900460ff16155b15613b6257613b5d848484614299565b613d99565b600760008573ffffffffffffffffffffffffffffffffffffffff1673ffffffffffffffffffffffffffffffffffffffff16815260200190815260200160002060009054906101000a900460ff16158015613c055750600760008473ffffffffffffffffffffffffffffffffffffffff1673ffffffffffffffffffffffffffffffffffffffff16815260200190815260200160002060009054906101000a900460ff165b15613c1a57613c158484846144f9565b613d98565b600760008573ffffffffffffffffffffffffffffffffffffffff1673ffffffffffffffffffffffffffffffffffffffff16815260200190815260200160002060009054906101000a900460ff16158015613cbe5750600760008473ffffffffffffffffffffffffffffffffffffffff1673ffffffffffffffffffffffffffffffffffffffff16815260200190815260200160002060009054906101000a900460ff16155b15613cd357613cce848484614759565b613d97565b600760008573ffffffffffffffffffffffffffffffffffffffff1673ffffffffffffffffffffffffffffffffffffffff16815260200190815260200160002060009054906101000a900460ff168015613d755750600760008473ffffffffffffffffffffffffffffffffffffffff1673ffffffffffffffffffffffffffffffffffffffff16815260200190815260200160002060009054906101000a900460ff165b15613d8a57613d85848484614924565b613d96565b613d95848484614759565b5b5b5b5b80613da757613da6614c19565b5b50505050565b6000806000600a5490506000600954905060008090505b60088054905081101561400457826003600060088481548110613de357fe5b9060005260206000200160009054906101000a900473ffffffffffffffffffffffffffffffffffffffff1673ffffffffffffffffffffffffffffffffffffffff1673ffffffffffffffffffffffffffffffffffffffff168152602001908152602001600020541180613eca5750816004600060088481548110613e6257fe5b9060005260206000200160009054906101000a900473ffffffffffffffffffffffffffffffffffffffff1673ffffffffffffffffffffffffffffffffffffffff1673ffffffffffffffffffffffffffffffffffffffff16815260200190815260200160002054115b15613ee157600a546009549450945050505061403d565b613f6a6003600060088481548110613ef557fe5b9060005260206000200160009054906101000a900473ffffffffffffffffffffffffffffffffffffffff1673ffffffffffffffffffffffffffffffffffffffff1673ffffffffffffffffffffffffffffffffffffffff168152602001908152602001600020548461321590919063ffffffff16565b9250613ff56004600060088481548110613f8057fe5b9060005260206000200160009054906101000a900473ffffffffffffffffffffffffffffffffffffffff1673ffffffffffffffffffffffffffffffffffffffff1673ffffffffffffffffffffffffffffffffffffffff168152602001908152602001600020548361321590919063ffffffff16565b91508080600101915050613dc4565b5061401c600954600a54612ff890919063ffffffff16565b82101561403457600a5460095493509350505061403d565b81819350935050505b9091565b60008060008061405085614c2d565b9050600061405d86614c5e565b9050600061408682614078858a61321590919063ffffffff16565b61321590919063ffffffff16565b90508083839550955095505050509193909250565b6000806000806140b4858961359390919063ffffffff16565b905060006140cb868961359390919063ffffffff16565b905060006140e2878961359390919063ffffffff16565b9050600061410b826140fd858761321590919063ffffffff16565b61321590919063ffffffff16565b9050838184965096509650505050509450945094915050565b600060195414801561413857506000601b54145b1561414257614165565b601954601a81905550601b54601c8190555060006019819055506000601b819055505b565b600061417283611eac565b9050600061417e61253d565b905073__$53bcfff703058d1366cb9df10eca7db15d$__638958b5a98383601154876040518563ffffffff1660e01b81526004016141bf9493929190615af5565b60206040518083038186803b1580156141d757600080fd5b505af41580156141eb573d6000803e3d6000fd5b505050506040513d601f19601f8201168201806040525081019061420f9190615004565b601460008673ffffffffffffffffffffffffffffffffffffffff1673ffffffffffffffffffffffffffffffffffffffff1681526020019081526020016000205401601460008673ffffffffffffffffffffffffffffffffffffffff1673ffffffffffffffffffffffffffffffffffffffff1681526020019081526020016000208190555050505050565b6000806000806000806142ab87613537565b95509550955095509550955061430987600460008c73ffffffffffffffffffffffffffffffffffffffff1673ffffffffffffffffffffffffffffffffffffffff1681526020019081526020016000205461321590919063ffffffff16565b600460008b73ffffffffffffffffffffffffffffffffffffffff1673ffffffffffffffffffffffffffffffffffffffff1681526020019081526020016000208190555061439e86600360008c73ffffffffffffffffffffffffffffffffffffffff1673ffffffffffffffffffffffffffffffffffffffff1681526020019081526020016000205461321590919063ffffffff16565b600360008b73ffffffffffffffffffffffffffffffffffffffff1673ffffffffffffffffffffffffffffffffffffffff1681526020019081526020016000208190555061443385600360008b73ffffffffffffffffffffffffffffffffffffffff1673ffffffffffffffffffffffffffffffffffffffff168152602001908152602001600020546134e290919063ffffffff16565b600360008a73ffffffffffffffffffffffffffffffffffffffff1673ffffffffffffffffffffffffffffffffffffffff1681526020019081526020016000208190555061447f81614c8f565b6144898483614e34565b8773ffffffffffffffffffffffffffffffffffffffff168973ffffffffffffffffffffffffffffffffffffffff167fddf252ad1be2c89b69c2b068fc378daa952ba7f163c4a11628f55a4df523b3ef856040516144e69190615aa3565b60405180910390a3505050505050505050565b60008060008060008061450b87613537565b95509550955095509550955061456986600360008c73ffffffffffffffffffffffffffffffffffffffff1673ffffffffffffffffffffffffffffffffffffffff1681526020019081526020016000205461321590919063ffffffff16565b600360008b73ffffffffffffffffffffffffffffffffffffffff1673ffffffffffffffffffffffffffffffffffffffff168152602001908152602001600020819055506145fe83600460008b73ffffffffffffffffffffffffffffffffffffffff1673ffffffffffffffffffffffffffffffffffffffff168152602001908152602001600020546134e290919063ffffffff16565b600460008a73ffffffffffffffffffffffffffffffffffffffff1673ffffffffffffffffffffffffffffffffffffffff1681526020019081526020016000208190555061469385600360008b73ffffffffffffffffffffffffffffffffffffffff1673ffffffffffffffffffffffffffffffffffffffff168152602001908152602001600020546134e290919063ffffffff16565b600360008a73ffffffffffffffffffffffffffffffffffffffff1673ffffffffffffffffffffffffffffffffffffffff168152602001908152602001600020819055506146df81614c8f565b6146e98483614e34565b8773ffffffffffffffffffffffffffffffffffffffff168973ffffffffffffffffffffffffffffffffffffffff167fddf252ad1be2c89b69c2b068fc378daa952ba7f163c4a11628f55a4df523b3ef856040516147469190615aa3565b60405180910390a3505050505050505050565b60008060008060008061476b87613537565b9550955095509550955095506147c986600360008c73ffffffffffffffffffffffffffffffffffffffff1673ffffffffffffffffffffffffffffffffffffffff1681526020019081526020016000205461321590919063ffffffff16565b600360008b73ffffffffffffffffffffffffffffffffffffffff1673ffffffffffffffffffffffffffffffffffffffff1681526020019081526020016000208190555061485e85600360008b73ffffffffffffffffffffffffffffffffffffffff1673ffffffffffffffffffffffffffffffffffffffff168152602001908152602001600020546134e290919063ffffffff16565b600360008a73ffffffffffffffffffffffffffffffffffffffff1673ffffffffffffffffffffffffffffffffffffffff168152602001908152602001600020819055506148aa81614c8f565b6148b48483614e34565b8773ffffffffffffffffffffffffffffffffffffffff168973ffffffffffffffffffffffffffffffffffffffff167fddf252ad1be2c89b69c2b068fc378daa952ba7f163c4a11628f55a4df523b3ef856040516149119190615aa3565b60405180910390a3505050505050505050565b60008060008060008061493687613537565b95509550955095509550955061499487600460008c73ffffffffffffffffffffffffffffffffffffffff1673ffffffffffffffffffffffffffffffffffffffff1681526020019081526020016000205461321590919063ffffffff16565b600460008b73ffffffffffffffffffffffffffffffffffffffff1673ffffffffffffffffffffffffffffffffffffffff16815260200190815260200160002081905550614a2986600360008c73ffffffffffffffffffffffffffffffffffffffff1673ffffffffffffffffffffffffffffffffffffffff1681526020019081526020016000205461321590919063ffffffff16565b600360008b73ffffffffffffffffffffffffffffffffffffffff1673ffffffffffffffffffffffffffffffffffffffff16815260200190815260200160002081905550614abe83600460008b73ffffffffffffffffffffffffffffffffffffffff1673ffffffffffffffffffffffffffffffffffffffff168152602001908152602001600020546134e290919063ffffffff16565b600460008a73ffffffffffffffffffffffffffffffffffffffff1673ffffffffffffffffffffffffffffffffffffffff16815260200190815260200160002081905550614b5385600360008b73ffffffffffffffffffffffffffffffffffffffff1673ffffffffffffffffffffffffffffffffffffffff168152602001908152602001600020546134e290919063ffffffff16565b600360008a73ffffffffffffffffffffffffffffffffffffffff1673ffffffffffffffffffffffffffffffffffffffff16815260200190815260200160002081905550614b9f81614c8f565b614ba98483614e34565b8773ffffffffffffffffffffffffffffffffffffffff168973ffffffffffffffffffffffffffffffffffffffff167fddf252ad1be2c89b69c2b068fc378daa952ba7f163c4a11628f55a4df523b3ef85604051614c069190615aa3565b60405180910390a3505050505050505050565b601a54601981905550601c54601b81905550565b6000614c576064614c496019548561359390919063ffffffff16565b612ff890919063ffffffff16565b9050919050565b6000614c886064614c7a601b548561359390919063ffffffff16565b612ff890919063ffffffff16565b9050919050565b6000614c996134b7565b90506000614cb0828461359390919063ffffffff16565b9050614d0481600360003073ffffffffffffffffffffffffffffffffffffffff1673ffffffffffffffffffffffffffffffffffffffff168152602001908152602001600020546134e290919063ffffffff16565b600360003073ffffffffffffffffffffffffffffffffffffffff1673ffffffffffffffffffffffffffffffffffffffff16815260200190815260200160002081905550600760003073ffffffffffffffffffffffffffffffffffffffff1673ffffffffffffffffffffffffffffffffffffffff16815260200190815260200160002060009054906101000a900460ff1615614e2f57614deb83600460003073ffffffffffffffffffffffffffffffffffffffff1673ffffffffffffffffffffffffffffffffffffffff168152602001908152602001600020546134e290919063ffffffff16565b600460003073ffffffffffffffffffffffffffffffffffffffff1673ffffffffffffffffffffffffffffffffffffffff168152602001908152602001600020819055505b505050565b614e4982600a5461321590919063ffffffff16565b600a81905550614e6481600b546134e290919063ffffffff16565b600b819055505050565b600081359050614e7d81615c9a565b92915050565b600081359050614e9281615cb1565b92915050565b600081359050614ea781615cc8565b92915050565b600081519050614ebc81615cc8565b92915050565b600060208284031215614ed457600080fd5b6000614ee284828501614e6e565b91505092915050565b60008060408385031215614efe57600080fd5b6000614f0c85828601614e6e565b9250506020614f1d85828601614e6e565b9150509250929050565b600080600060608486031215614f3c57600080fd5b6000614f4a86828701614e6e565b9350506020614f5b86828701614e6e565b9250506040614f6c86828701614e98565b9150509250925092565b60008060408385031215614f8957600080fd5b6000614f9785828601614e6e565b9250506020614fa885828601614e98565b9150509250929050565b600060208284031215614fc457600080fd5b6000614fd284828501614e83565b91505092915050565b600060208284031215614fed57600080fd5b6000614ffb84828501614e98565b91505092915050565b60006020828403121561501657600080fd5b600061502484828501614ead565b91505092915050565b6000806040838503121561504057600080fd5b600061504e85828601614e98565b925050602061505f85828601614e83565b9150509250929050565b61507281615bdd565b82525050565b61508181615bdd565b82525050565b61509081615bef565b82525050565b61509f81615c32565b82525050565b60006150b082615bb6565b6150ba8185615bcc565b93506150ca818560208601615c56565b6150d381615c89565b840191505092915050565b60006150eb602183615bcc565b91507f4572726f723a206e65787420617661696c61626c65206e6f742072656163686560008301527f64000000000000000000000000000000000000000000000000000000000000006020830152604082019050919050565b6000615151602583615bcc565b91507f42455032303a207472616e736665722066726f6d20746865207a65726f20616460008301527f64726573730000000000000000000000000000000000000000000000000000006020830152604082019050919050565b60006151b7602483615bcc565b91507f42455032303a20617070726f76652066726f6d20746865207a65726f2061646460008301527f72657373000000000000000000000000000000000000000000000000000000006020830152604082019050919050565b600061521d602a83615bcc565b91507f416d6f756e74206d757374206265206c657373207468616e20746f74616c207260008301527f65666c656374696f6e73000000000000000000000000000000000000000000006020830152604082019050919050565b6000615283602683615bcc565b91507f4f776e61626c653a206e6577206f776e657220697320746865207a65726f206160008301527f64647265737300000000000000000000000000000000000000000000000000006020830152604082019050919050565b60006152e9601b83615bcc565b91507f536166654d6174683a206164646974696f6e206f766572666c6f7700000000006000830152602082019050919050565b6000615329601b83615bcc565b91507f4163636f756e7420697320616c7265616479206578636c7564656400000000006000830152602082019050919050565b6000615369601f83615bcc565b91507f416d6f756e74206d757374206265206c657373207468616e20737570706c79006000830152602082019050919050565b60006153a9602883615bcc565b91507f5472616e7366657220616d6f756e74206578636565647320746865206d61785460008301527f78416d6f756e742e0000000000000000000000000000000000000000000000006020830152604082019050919050565b600061540f602183615bcc565b91507f536166654d6174683a206d756c7469706c69636174696f6e206f766572666c6f60008301527f77000000000000000000000000000000000000000000000000000000000000006020830152604082019050919050565b6000615475602083615bcc565b91507f4f776e61626c653a2063616c6c6572206973206e6f7420746865206f776e65726000830152602082019050919050565b60006154b5602983615bcc565b91507f5472616e7366657220616d6f756e74206d75737420626520677265617465722060008301527f7468616e207a65726f00000000000000000000000000000000000000000000006020830152604082019050919050565b600061551b602383615bcc565b91507f42455032303a207472616e7366657220746f20746865207a65726f206164647260008301527f65737300000000000000000000000000000000000000000000000000000000006020830152604082019050919050565b6000615581600083615bc1565b9150600082019050919050565b600061559b601d83615bcc565b91507f4572726f723a2043616e6e6f74207769746864726177207265776172640000006000830152602082019050919050565b60006155db601f83615bcc565b91507f436f6e7472616374206973206c6f636b656420756e74696c20372064617973006000830152602082019050919050565b600061561b602c83615bcc565b91507f4578636c75646564206164647265737365732063616e6e6f742063616c6c207460008301527f6869732066756e6374696f6e00000000000000000000000000000000000000006020830152604082019050919050565b6000615681602283615bcc565b91507f42455032303a20617070726f766520746f20746865207a65726f20616464726560008301527f73730000000000000000000000000000000000000000000000000000000000006020830152604082019050919050565b60006156e7602383615bcc565b91507f596f7520646f6e27742068617665207065726d697373696f6e20746f20756e6c60008301527f6f636b00000000000000000000000000000000000000000000000000000000006020830152604082019050919050565b61574981615c1b565b82525050565b61575881615c1b565b82525050565b61576781615c25565b82525050565b600061577882615574565b9150819050919050565b60006020820190506157976000830184615069565b92915050565b60006080820190506157b26000830187615078565b6157bf6020830186615078565b6157cc604083018561574f565b6157d9606083018461574f565b95945050505050565b60006040820190506157f76000830185615078565b615804602083018461574f565b9392505050565b60006020820190506158206000830184615087565b92915050565b600060208201905061583b6000830184615096565b92915050565b6000602082019050818103600083015261585b81846150a5565b905092915050565b6000602082019050818103600083015261587c816150de565b9050919050565b6000602082019050818103600083015261589c81615144565b9050919050565b600060208201905081810360008301526158bc816151aa565b9050919050565b600060208201905081810360008301526158dc81615210565b9050919050565b600060208201905081810360008301526158fc81615276565b9050919050565b6000602082019050818103600083015261591c816152dc565b9050919050565b6000602082019050818103600083015261593c8161531c565b9050919050565b6000602082019050818103600083015261595c8161535c565b9050919050565b6000602082019050818103600083015261597c8161539c565b9050919050565b6000602082019050818103600083015261599c81615402565b9050919050565b600060208201905081810360008301526159bc81615468565b9050919050565b600060208201905081810360008301526159dc816154a8565b9050919050565b600060208201905081810360008301526159fc8161550e565b9050919050565b60006020820190508181036000830152615a1c8161558e565b9050919050565b60006020820190508181036000830152615a3c816155ce565b9050919050565b60006020820190508181036000830152615a5c8161560e565b9050919050565b60006020820190508181036000830152615a7c81615674565b9050919050565b60006020820190508181036000830152615a9c816156da565b9050919050565b6000602082019050615ab86000830184615740565b92915050565b6000606082019050615ad36000830186615740565b615ae06020830185615740565b615aed6040830184615740565b949350505050565b6000608082019050615b0a600083018761574f565b615b17602083018661574f565b615b24604083018561574f565b615b31606083018461574f565b95945050505050565b600060c082019050615b4f600083018961574f565b615b5c602083018861574f565b615b69604083018761574f565b615b76606083018661574f565b615b83608083018561574f565b615b9060a0830184615078565b979650505050505050565b6000602082019050615bb0600083018461575e565b92915050565b600081519050919050565b600081905092915050565b600082825260208201905092915050565b6000615be882615bfb565b9050919050565b60008115159050919050565b600073ffffffffffffffffffffffffffffffffffffffff82169050919050565b6000819050919050565b600060ff82169050919050565b6000615c3d82615c44565b9050919050565b6000615c4f82615bfb565b9050919050565b60005b83811015615c74578082015181840152602081019050615c59565b83811115615c83576000848401525b50505050565b6000601f19601f8301169050919050565b615ca381615bdd565b8114615cae57600080fd5b50565b615cba81615bef565b8114615cc557600080fd5b50565b615cd181615c1b565b8114615cdc57600080fd5b5056fe42455032303a207472616e7366657220616d6f756e74206578636565647320616c6c6f77616e636542455032303a2064656372656173656420616c6c6f77616e63652062656c6f77207a65726fa2646970667358221220075dd08611c361fe0eaa0d1d43babaf8acf5c6ada71c038ad60c1260811785fa64736f6c63430006080033",
  "linkReferences": {
    "contracts/protocols/bep/Utils.sol": {
      "Utils": [
        {
          "length": 20,
          "start": 6658
        },
        {
          "length": 20,
          "start": 17226
        },
        {
          "length": 20,
          "start": 17410
        },
        {
          "length": 20,
          "start": 19405
        }
      ]
    }
  },
  "deployedLinkReferences": {
    "contracts/protocols/bep/Utils.sol": {
      "Utils": [
        {
          "length": 20,
          "start": 4023
        },
        {
          "length": 20,
          "start": 14591
        },
        {
          "length": 20,
          "start": 14775
        },
        {
          "length": 20,
          "start": 16770
        }
      ]
    }
  }
}