{
  "_format": "hh-sol-artifact-1",
  "contractName": "MoonRatAirdrop",
  "sourceName": "contracts/distribution/MoonRatAirdrop.sol",
  "abi": [
    {
      "inputs": [
        {
          "internalType": "address",
          "name": "_tokenInstance",
          "type": "address"
        },
        {
          "internalType": "uint256",
          "name": "_claimableAmount",
          "type": "uint256"
        },
        {
          "internalType": "uint256",
          "name": "_nextPeriodWaitTime",
          "type": "uint256"
        },
        {
          "internalType": "uint256",
          "name": "_bonusMinRate",
          "type": "uint256"
        },
        {
          "internalType": "uint256",
          "name": "_bonusMaxRate",
          "type": "uint256"
        },
        {
          "internalType": "address",
          "name": "routerAddress",
          "type": "address"
        }
      ],
      "stateMutability": "nonpayable",
      "type": "constructor"
    },
    {
      "inputs": [],
      "name": "claimableAmount",
      "outputs": [
        {
          "internalType": "uint256",
          "name": "",
          "type": "uint256"
        }
      ],
      "stateMutability": "view",
      "type": "function"
    },
    {
      "inputs": [],
      "name": "emergencyWithdraw",
      "outputs": [],
      "stateMutability": "nonpayable",
      "type": "function"
    },
    {
      "inputs": [],
      "name": "pancakeRouter",
      "outputs": [
        {
          "internalType": "contract IPancakeRouter02",
          "name": "",
          "type": "address"
        }
      ],
      "stateMutability": "view",
      "type": "function"
    },
    {
      "inputs": [
        {
          "internalType": "address",
          "name": "",
          "type": "address"
        }
      ],
      "name": "participantWaitTime",
      "outputs": [
        {
          "internalType": "uint256",
          "name": "",
          "type": "uint256"
        }
      ],
      "stateMutability": "view",
      "type": "function"
    },
    {
      "inputs": [
        {
          "internalType": "address",
          "name": "who",
          "type": "address"
        }
      ],
      "name": "participantWaitTimeOf",
      "outputs": [
        {
          "internalType": "uint256",
          "name": "",
          "type": "uint256"
        }
      ],
      "stateMutability": "view",
      "type": "function"
    },
    {
      "inputs": [],
      "name": "primaryToken",
      "outputs": [
        {
          "internalType": "address",
          "name": "",
          "type": "address"
        }
      ],
      "stateMutability": "view",
      "type": "function"
    },
    {
      "inputs": [],
      "name": "requestTokens",
      "outputs": [],
      "stateMutability": "payable",
      "type": "function"
    },
    {
      "inputs": [
        {
          "internalType": "uint256",
          "name": "from",
          "type": "uint256"
        },
        {
          "internalType": "uint256",
          "name": "to",
          "type": "uint256"
        }
      ],
      "name": "setBonusRate",
      "outputs": [],
      "stateMutability": "nonpayable",
      "type": "function"
    },
    {
      "inputs": [
        {
          "internalType": "uint256",
          "name": "_claimableAmount",
          "type": "uint256"
        }
      ],
      "name": "setClaimableAmount",
      "outputs": [],
      "stateMutability": "nonpayable",
      "type": "function"
    },
    {
      "inputs": [
        {
          "internalType": "bool",
          "name": "value",
          "type": "bool"
        }
      ],
      "name": "setEnableTaxFee",
      "outputs": [],
      "stateMutability": "nonpayable",
      "type": "function"
    },
    {
      "inputs": [
        {
          "internalType": "uint256",
          "name": "_nextPeriodWaitTime",
          "type": "uint256"
        }
      ],
      "name": "setNextPeriodWaitTime",
      "outputs": [],
      "stateMutability": "nonpayable",
      "type": "function"
    },
    {
      "inputs": [
        {
          "internalType": "address",
          "name": "_tokenInstance",
          "type": "address"
        }
      ],
      "name": "setPrimaryToken",
      "outputs": [],
      "stateMutability": "nonpayable",
      "type": "function"
    },
    {
      "inputs": [
        {
          "internalType": "address",
          "name": "routerAddress",
          "type": "address"
        }
      ],
      "name": "setRouter",
      "outputs": [],
      "stateMutability": "nonpayable",
      "type": "function"
    },
    {
      "inputs": [],
      "name": "tokenInstance",
      "outputs": [
        {
          "internalType": "contract ERC20UpgradeSafe",
          "name": "",
          "type": "address"
        }
      ],
      "stateMutability": "view",
      "type": "function"
    }
  ],
  "bytecode": "0x60806040526001600760146101000a81548160ff0219169083151502179055503480156200002c57600080fd5b5060405162002c9638038062002c96833981810160405281019062000052919062000635565b33600360006101000a81548173ffffffffffffffffffffffffffffffffffffffff021916908373ffffffffffffffffffffffffffffffffffffffff160217905550620000a486620000f560201b60201c565b620000b5856200027f60201b60201c565b620000c6846200036260201b60201c565b620000d883836200044660201b60201c565b620000e9816200053060201b60201c565b50505050505062000b14565b3373ffffffffffffffffffffffffffffffffffffffff16600360009054906101000a900473ffffffffffffffffffffffffffffffffffffffff1673ffffffffffffffffffffffffffffffffffffffff161462000188576040517f08c379a00000000000000000000000000000000000000000000000000000000081526004016200017f90620009c5565b60405180910390fd5b600073ffffffffffffffffffffffffffffffffffffffff168173ffffffffffffffffffffffffffffffffffffffff161415620001fb576040517f08c379a0000000000000000000000000000000000000000000000000000000008152600401620001f290620009e7565b60405180910390fd5b806000806101000a81548173ffffffffffffffffffffffffffffffffffffffff021916908373ffffffffffffffffffffffffffffffffffffffff16021790555080600860006101000a81548173ffffffffffffffffffffffffffffffffffffffff021916908373ffffffffffffffffffffffffffffffffffffffff16021790555050565b3373ffffffffffffffffffffffffffffffffffffffff16600360009054906101000a900473ffffffffffffffffffffffffffffffffffffffff1673ffffffffffffffffffffffffffffffffffffffff161462000312576040517f08c379a0000000000000000000000000000000000000000000000000000000008152600401620003099062000a4d565b60405180910390fd5b6000811162000358576040517f08c379a00000000000000000000000000000000000000000000000000000000081526004016200034f9062000a09565b60405180910390fd5b8060018190555050565b3373ffffffffffffffffffffffffffffffffffffffff16600360009054906101000a900473ffffffffffffffffffffffffffffffffffffffff1673ffffffffffffffffffffffffffffffffffffffff1614620003f5576040517f08c379a0000000000000000000000000000000000000000000000000000000008152600401620003ec90620009a3565b60405180910390fd5b603c8110156200043c576040517f08c379a0000000000000000000000000000000000000000000000000000000008152600401620004339062000a6f565b60405180910390fd5b8060048190555050565b3373ffffffffffffffffffffffffffffffffffffffff16600360009054906101000a900473ffffffffffffffffffffffffffffffffffffffff1673ffffffffffffffffffffffffffffffffffffffff1614620004d9576040517f08c379a0000000000000000000000000000000000000000000000000000000008152600401620004d090620009c5565b60405180910390fd5b8082106200051e576040517f08c379a0000000000000000000000000000000000000000000000000000000008152600401620005159062000a2b565b60405180910390fd5b81600581905550806006819055505050565b3373ffffffffffffffffffffffffffffffffffffffff16600360009054906101000a900473ffffffffffffffffffffffffffffffffffffffff1673ffffffffffffffffffffffffffffffffffffffff1614620005c3576040517f08c379a0000000000000000000000000000000000000000000000000000000008152600401620005ba90620009c5565b60405180910390fd5b80600760006101000a81548173ffffffffffffffffffffffffffffffffffffffff021916908373ffffffffffffffffffffffffffffffffffffffff16021790555050565b600081519050620006188162000ae0565b92915050565b6000815190506200062f8162000afa565b92915050565b60008060008060008060c087890312156200064f57600080fd5b60006200065f89828a0162000607565b96505060206200067289828a016200061e565b95505060406200068589828a016200061e565b94505060606200069889828a016200061e565b9350506080620006ab89828a016200061e565b92505060a0620006be89828a0162000607565b9150509295509295509295565b6000620006da60268362000a91565b91507f4572726f723a206f6e6c79206f776e65722063616e2061646a7573742077616960008301527f742074696d6500000000000000000000000000000000000000000000000000006020830152604082019050919050565b60006200074260278362000a91565b91507f4572726f723a206f6e6c79206f776e65722063616e2061646a75737420626f6e60008301527f75732072617465000000000000000000000000000000000000000000000000006020830152604082019050919050565b6000620007aa60258362000a91565b91507f4572726f723a2063616e6e6f742061646420746f6b656e206174204e6f57686560008301527f7265203a290000000000000000000000000000000000000000000000000000006020830152604082019050919050565b60006200081260268362000a91565b91507f4572726f723a20636c61696d61626c6520616d6f756e742063616e6e6f74206260008301527f65207a65726f00000000000000000000000000000000000000000000000000006020830152604082019050919050565b60006200087a602c8362000a91565b91507f4572726f723a2066726f6d2076616c7565206d757374206265206c657373207460008301527f68616e20746f2076616c756500000000000000000000000000000000000000006020830152604082019050919050565b6000620008e2602d8362000a91565b91507f4572726f723a206f6e6c79206f776e65722063616e2061646a75737420636c6160008301527f696d61626c6520616d6f756e74000000000000000000000000000000000000006020830152604082019050919050565b60006200094a602d8362000a91565b91507f4572726f723a20576169742074696d652073686f756c64206265206174206c6560008301527f6173742031206d696e75746573000000000000000000000000000000000000006020830152604082019050919050565b60006020820190508181036000830152620009be81620006cb565b9050919050565b60006020820190508181036000830152620009e08162000733565b9050919050565b6000602082019050818103600083015262000a02816200079b565b9050919050565b6000602082019050818103600083015262000a248162000803565b9050919050565b6000602082019050818103600083015262000a46816200086b565b9050919050565b6000602082019050818103600083015262000a6881620008d3565b9050919050565b6000602082019050818103600083015262000a8a816200093b565b9050919050565b600082825260208201905092915050565b600062000aaf8262000ab6565b9050919050565b600073ffffffffffffffffffffffffffffffffffffffff82169050919050565b6000819050919050565b62000aeb8162000aa2565b811462000af757600080fd5b50565b62000b058162000ad6565b811462000b1157600080fd5b50565b6121728062000b246000396000f3fe6080604052600436106100dd5760003560e01c806391ac094c1161007f578063a97cb8a711610059578063a97cb8a71461028b578063c0d78655146102b4578063c21ebd07146102dd578063db2e21bc14610308576100dd565b806391ac094c146101f85780639dd463e314610223578063a556f84614610260576100dd565b80636408406f116100bb5780636408406f1461013e578063658030b3146101675780636691a7e7146101925780638e7f15da146101bb576100dd565b8063359cf2b7146100e25780634fabee2f146100ec57806354df144d14610115575b600080fd5b6100ea61031f565b005b3480156100f857600080fd5b50610113600480360381019061010e91906115b5565b61062a565b005b34801561012157600080fd5b5061013c60048036038101906101379190611607565b6106d7565b005b34801561014a57600080fd5b5061016560048036038101906101609190611563565b6107b4565b005b34801561017357600080fd5b5061017c610938565b6040516101899190611cfa565b60405180910390f35b34801561019e57600080fd5b506101b960048036038101906101b49190611607565b61095d565b005b3480156101c757600080fd5b506101e260048036038101906101dd9190611563565b610a3b565b6040516101ef9190611f1e565b60405180910390f35b34801561020457600080fd5b5061020d610a53565b60405161021a9190611c8d565b60405180910390f35b34801561022f57600080fd5b5061024a60048036038101906102459190611563565b610a79565b6040516102579190611f1e565b60405180910390f35b34801561026c57600080fd5b50610275610ac2565b6040516102829190611f1e565b60405180910390f35b34801561029757600080fd5b506102b260048036038101906102ad9190611659565b610ac8565b005b3480156102c057600080fd5b506102db60048036038101906102d69190611563565b610bac565b005b3480156102e957600080fd5b506102f2610c80565b6040516102ff9190611d15565b60405180910390f35b34801561031457600080fd5b5061031d610ca6565b005b6000341015610363576040517f08c379a000000000000000000000000000000000000000000000000000000000815260040161035a90611e9e565b60405180910390fd5b600061036d610e90565b90506000610399606461038b84600154610ebf90919063ffffffff16565b610f2f90919063ffffffff16565b90506000816000809054906101000a900473ffffffffffffffffffffffffffffffffffffffff1673ffffffffffffffffffffffffffffffffffffffff166370a08231306040518263ffffffff1660e01b81526004016103f89190611c8d565b60206040518083038186803b15801561041057600080fd5b505afa158015610424573d6000803e3d6000fd5b505050506040513d601f19601f820116820180604052508101906104489190611630565b0390506000811361048e576040517f08c379a000000000000000000000000000000000000000000000000000000000815260040161048590611ebe565b60405180910390fd5b42600260003373ffffffffffffffffffffffffffffffffffffffff1673ffffffffffffffffffffffffffffffffffffffff168152602001908152602001600020541115610510576040517f08c379a000000000000000000000000000000000000000000000000000000000815260040161050790611dde565b60405180910390fd5b6000809054906101000a900473ffffffffffffffffffffffffffffffffffffffff1673ffffffffffffffffffffffffffffffffffffffff1663a9059cbb33846040518363ffffffff1660e01b815260040161056c929190611ca8565b602060405180830381600087803b15801561058657600080fd5b505af115801561059a573d6000803e3d6000fd5b505050506040513d601f19601f820116820180604052508101906105be91906115de565b506004544201600260003373ffffffffffffffffffffffffffffffffffffffff1673ffffffffffffffffffffffffffffffffffffffff16815260200190815260200160002081905550600760149054906101000a900460ff161561062557610624610f79565b5b505050565b3373ffffffffffffffffffffffffffffffffffffffff16600360009054906101000a900473ffffffffffffffffffffffffffffffffffffffff1673ffffffffffffffffffffffffffffffffffffffff16146106ba576040517f08c379a00000000000000000000000000000000000000000000000000000000081526004016106b190611dbe565b60405180910390fd5b80600760146101000a81548160ff02191690831515021790555050565b3373ffffffffffffffffffffffffffffffffffffffff16600360009054906101000a900473ffffffffffffffffffffffffffffffffffffffff1673ffffffffffffffffffffffffffffffffffffffff1614610767576040517f08c379a000000000000000000000000000000000000000000000000000000000815260040161075e90611ede565b60405180910390fd5b600081116107aa576040517f08c379a00000000000000000000000000000000000000000000000000000000081526004016107a190611e5e565b60405180910390fd5b8060018190555050565b3373ffffffffffffffffffffffffffffffffffffffff16600360009054906101000a900473ffffffffffffffffffffffffffffffffffffffff1673ffffffffffffffffffffffffffffffffffffffff1614610844576040517f08c379a000000000000000000000000000000000000000000000000000000000815260040161083b90611dbe565b60405180910390fd5b600073ffffffffffffffffffffffffffffffffffffffff168173ffffffffffffffffffffffffffffffffffffffff1614156108b4576040517f08c379a00000000000000000000000000000000000000000000000000000000081526004016108ab90611dfe565b60405180910390fd5b806000806101000a81548173ffffffffffffffffffffffffffffffffffffffff021916908373ffffffffffffffffffffffffffffffffffffffff16021790555080600860006101000a81548173ffffffffffffffffffffffffffffffffffffffff021916908373ffffffffffffffffffffffffffffffffffffffff16021790555050565b6000809054906101000a900473ffffffffffffffffffffffffffffffffffffffff1681565b3373ffffffffffffffffffffffffffffffffffffffff16600360009054906101000a900473ffffffffffffffffffffffffffffffffffffffff1673ffffffffffffffffffffffffffffffffffffffff16146109ed576040517f08c379a00000000000000000000000000000000000000000000000000000000081526004016109e490611d9e565b60405180910390fd5b603c811015610a31576040517f08c379a0000000000000000000000000000000000000000000000000000000008152600401610a2890611efe565b60405180910390fd5b8060048190555050565b60026020528060005260406000206000915090505481565b600860009054906101000a900473ffffffffffffffffffffffffffffffffffffffff1681565b6000600260008373ffffffffffffffffffffffffffffffffffffffff1673ffffffffffffffffffffffffffffffffffffffff168152602001908152602001600020549050919050565b60015481565b3373ffffffffffffffffffffffffffffffffffffffff16600360009054906101000a900473ffffffffffffffffffffffffffffffffffffffff1673ffffffffffffffffffffffffffffffffffffffff1614610b58576040517f08c379a0000000000000000000000000000000000000000000000000000000008152600401610b4f90611dbe565b60405180910390fd5b808210610b9a576040517f08c379a0000000000000000000000000000000000000000000000000000000008152600401610b9190611e7e565b60405180910390fd5b81600581905550806006819055505050565b3373ffffffffffffffffffffffffffffffffffffffff16600360009054906101000a900473ffffffffffffffffffffffffffffffffffffffff1673ffffffffffffffffffffffffffffffffffffffff1614610c3c576040517f08c379a0000000000000000000000000000000000000000000000000000000008152600401610c3390611dbe565b60405180910390fd5b80600760006101000a81548173ffffffffffffffffffffffffffffffffffffffff021916908373ffffffffffffffffffffffffffffffffffffffff16021790555050565b600760009054906101000a900473ffffffffffffffffffffffffffffffffffffffff1681565b3373ffffffffffffffffffffffffffffffffffffffff16600360009054906101000a900473ffffffffffffffffffffffffffffffffffffffff1673ffffffffffffffffffffffffffffffffffffffff1614610d36576040517f08c379a0000000000000000000000000000000000000000000000000000000008152600401610d2d90611e3e565b60405180910390fd5b6000809054906101000a900473ffffffffffffffffffffffffffffffffffffffff1673ffffffffffffffffffffffffffffffffffffffff1663a9059cbb336000809054906101000a900473ffffffffffffffffffffffffffffffffffffffff1673ffffffffffffffffffffffffffffffffffffffff166370a08231306040518263ffffffff1660e01b8152600401610dce9190611c8d565b60206040518083038186803b158015610de657600080fd5b505afa158015610dfa573d6000803e3d6000fd5b505050506040513d601f19601f82011682018060405250810190610e1e9190611630565b6040518363ffffffff1660e01b8152600401610e3b929190611ca8565b602060405180830381600087803b158015610e5557600080fd5b505af1158015610e69573d6000803e3d6000fd5b505050506040513d601f19601f82011682018060405250810190610e8d91906115de565b50565b600080610eb6603260643373ffffffffffffffffffffffffffffffffffffffff1661131e565b90508091505090565b600080831415610ed25760009050610f29565b6000828402905082848281610ee357fe5b0414610f24576040517f08c379a0000000000000000000000000000000000000000000000000000000008152600401610f1b90611e1e565b60405180910390fd5b809150505b92915050565b6000610f7183836040518060400160405280601a81526020017f536166654d6174683a206469766973696f6e206279207a65726f0000000000008152506113de565b905092915050565b6060600267ffffffffffffffff81118015610f9357600080fd5b50604051908082528060200260200182016040528015610fc25781602001602082028036833780820191505090505b509050600760009054906101000a900473ffffffffffffffffffffffffffffffffffffffff1673ffffffffffffffffffffffffffffffffffffffff1663ad5c46486040518163ffffffff1660e01b815260040160206040518083038186803b15801561102d57600080fd5b505afa158015611041573d6000803e3d6000fd5b505050506040513d601f19601f82011682018060405250810190611065919061158c565b8160008151811061107257fe5b602002602001019073ffffffffffffffffffffffffffffffffffffffff16908173ffffffffffffffffffffffffffffffffffffffff1681525050600860009054906101000a900473ffffffffffffffffffffffffffffffffffffffff16816001815181106110dc57fe5b602002602001019073ffffffffffffffffffffffffffffffffffffffff16908173ffffffffffffffffffffffffffffffffffffffff168152505060003490508160008151811061112857fe5b602002602001015173ffffffffffffffffffffffffffffffffffffffff1663095ea7b330836040518363ffffffff1660e01b815260040161116a929190611cd1565b602060405180830381600087803b15801561118457600080fd5b505af1158015611198573d6000803e3d6000fd5b505050506040513d601f19601f820116820180604052508101906111bc91906115de565b50816000815181106111ca57fe5b602002602001015173ffffffffffffffffffffffffffffffffffffffff1663095ea7b3600760009054906101000a900473ffffffffffffffffffffffffffffffffffffffff16836040518363ffffffff1660e01b815260040161122e929190611cd1565b602060405180830381600087803b15801561124857600080fd5b505af115801561125c573d6000803e3d6000fd5b505050506040513d601f19601f8201168201806040525081019061128091906115de565b50600760009054906101000a900473ffffffffffffffffffffffffffffffffffffffff1673ffffffffffffffffffffffffffffffffffffffff1663b6f9de95826000853061016842016040518663ffffffff1660e01b81526004016112e89493929190611d30565b6000604051808303818588803b15801561130157600080fd5b505af1158015611315573d6000803e3d6000fd5b50505050505050565b600080824342336040516020016113359190611c57565b6040516020818303038152906040528051906020012060001c8161135557fe5b044542416040516020016113699190611c57565b6040516020818303038152906040528051906020012060001c8161138957fe5b0444420101010101016040516020016113a29190611c72565b6040516020818303038152906040528051906020012060001c9050846113d38686038361143f90919063ffffffff16565b019150509392505050565b60008083118290611425576040517f08c379a000000000000000000000000000000000000000000000000000000000815260040161141c9190611d7c565b60405180910390fd5b50600083858161143157fe5b049050809150509392505050565b600061148183836040518060400160405280601881526020017f536166654d6174683a206d6f64756c6f206279207a65726f0000000000000000815250611489565b905092915050565b60008083141582906114d1576040517f08c379a00000000000000000000000000000000000000000000000000000000081526004016114c89190611d7c565b60405180910390fd5b508284816114db57fe5b0690509392505050565b6000813590506114f4816120f7565b92915050565b600081519050611509816120f7565b92915050565b60008135905061151e8161210e565b92915050565b6000815190506115338161210e565b92915050565b60008135905061154881612125565b92915050565b60008151905061155d81612125565b92915050565b60006020828403121561157557600080fd5b6000611583848285016114e5565b91505092915050565b60006020828403121561159e57600080fd5b60006115ac848285016114fa565b91505092915050565b6000602082840312156115c757600080fd5b60006115d58482850161150f565b91505092915050565b6000602082840312156115f057600080fd5b60006115fe84828501611524565b91505092915050565b60006020828403121561161957600080fd5b600061162784828501611539565b91505092915050565b60006020828403121561164257600080fd5b60006116508482850161154e565b91505092915050565b6000806040838503121561166c57600080fd5b600061167a85828601611539565b925050602061168b85828601611539565b9150509250929050565b60006116a183836116d3565b60208301905092915050565b6116b681611fe8565b82525050565b6116cd6116c882611fa0565b6120ab565b82525050565b6116dc81611f8e565b82525050565b6116eb81611f8e565b82525050565b60006116fc82611f49565b6117068185611f6c565b935061171183611f39565b8060005b838110156117425781516117298882611695565b975061173483611f5f565b925050600181019050611715565b5085935050505092915050565b61175881611ffa565b82525050565b6117678161201e565b82525050565b61177681612042565b82525050565b600061178782611f54565b6117918185611f7d565b93506117a1818560208601612078565b6117aa816120d9565b840191505092915050565b60006117c2602683611f7d565b91507f4572726f723a206f6e6c79206f776e65722063616e2061646a7573742077616960008301527f742074696d6500000000000000000000000000000000000000000000000000006020830152604082019050919050565b6000611828602783611f7d565b91507f4572726f723a206f6e6c79206f776e65722063616e2061646a75737420626f6e60008301527f75732072617465000000000000000000000000000000000000000000000000006020830152604082019050919050565b600061188e602b83611f7d565b91507f4572726f723a207061727469636970616e7420776169742074696d652069732060008301527f6e6f7420726561636865640000000000000000000000000000000000000000006020830152604082019050919050565b60006118f4602583611f7d565b91507f4572726f723a2063616e6e6f742061646420746f6b656e206174204e6f57686560008301527f7265203a290000000000000000000000000000000000000000000000000000006020830152604082019050919050565b600061195a602183611f7d565b91507f536166654d6174683a206d756c7469706c69636174696f6e206f766572666c6f60008301527f77000000000000000000000000000000000000000000000000000000000000006020830152604082019050919050565b60006119c0602b83611f7d565b91507f4572726f723a206f6e6c79206f776e65722063616e2068616e646c652074686960008301527f73206f7065726174696f6e0000000000000000000000000000000000000000006020830152604082019050919050565b6000611a26602683611f7d565b91507f4572726f723a20636c61696d61626c6520616d6f756e742063616e6e6f74206260008301527f65207a65726f00000000000000000000000000000000000000000000000000006020830152604082019050919050565b6000611a8c602c83611f7d565b91507f4572726f723a2066726f6d2076616c7565206d757374206265206c657373207460008301527f68616e20746f2076616c756500000000000000000000000000000000000000006020830152604082019050919050565b6000611af2601f83611f7d565b91507f4572726f723a20656d70747920746178206973206e6f7420616c6c6f776564006000830152602082019050919050565b6000611b32602083611f7d565b91507f4572726f723a20636f6e74726163742066756e642069732065786365656465646000830152602082019050919050565b6000611b72602d83611f7d565b91507f4572726f723a206f6e6c79206f776e65722063616e2061646a75737420636c6160008301527f696d61626c6520616d6f756e74000000000000000000000000000000000000006020830152604082019050919050565b6000611bd8602d83611f7d565b91507f4572726f723a20576169742074696d652073686f756c64206265206174206c6560008301527f6173742031206d696e75746573000000000000000000000000000000000000006020830152604082019050919050565b611c3a81611fde565b82525050565b611c51611c4c82611fde565b6120cf565b82525050565b6000611c6382846116bc565b60148201915081905092915050565b6000611c7e8284611c40565b60208201915081905092915050565b6000602082019050611ca260008301846116e2565b92915050565b6000604082019050611cbd60008301856116ad565b611cca6020830184611c31565b9392505050565b6000604082019050611ce660008301856116e2565b611cf36020830184611c31565b9392505050565b6000602082019050611d0f600083018461174f565b92915050565b6000602082019050611d2a600083018461175e565b92915050565b6000608082019050611d45600083018761176d565b8181036020830152611d5781866116f1565b9050611d6660408301856116e2565b611d736060830184611c31565b95945050505050565b60006020820190508181036000830152611d96818461177c565b905092915050565b60006020820190508181036000830152611db7816117b5565b9050919050565b60006020820190508181036000830152611dd78161181b565b9050919050565b60006020820190508181036000830152611df781611881565b9050919050565b60006020820190508181036000830152611e17816118e7565b9050919050565b60006020820190508181036000830152611e378161194d565b9050919050565b60006020820190508181036000830152611e57816119b3565b9050919050565b60006020820190508181036000830152611e7781611a19565b9050919050565b60006020820190508181036000830152611e9781611a7f565b9050919050565b60006020820190508181036000830152611eb781611ae5565b9050919050565b60006020820190508181036000830152611ed781611b25565b9050919050565b60006020820190508181036000830152611ef781611b65565b9050919050565b60006020820190508181036000830152611f1781611bcb565b9050919050565b6000602082019050611f336000830184611c31565b92915050565b6000819050602082019050919050565b600081519050919050565b600081519050919050565b6000602082019050919050565b600082825260208201905092915050565b600082825260208201905092915050565b6000611f9982611fbe565b9050919050565b6000611fab82611fbe565b9050919050565b60008115159050919050565b600073ffffffffffffffffffffffffffffffffffffffff82169050919050565b6000819050919050565b6000611ff382612054565b9050919050565b60006120058261200c565b9050919050565b600061201782611fbe565b9050919050565b600061202982612030565b9050919050565b600061203b82611fbe565b9050919050565b600061204d82611fde565b9050919050565b600061205f82612066565b9050919050565b600061207182611fbe565b9050919050565b60005b8381101561209657808201518184015260208101905061207b565b838111156120a5576000848401525b50505050565b60006120b6826120bd565b9050919050565b60006120c8826120ea565b9050919050565b6000819050919050565b6000601f19601f8301169050919050565b60008160601b9050919050565b61210081611f8e565b811461210b57600080fd5b50565b61211781611fb2565b811461212257600080fd5b50565b61212e81611fde565b811461213957600080fd5b5056fea2646970667358221220269c61b18bd569f5edb9e83db22e633d24d97adc916d6eec8680ed34ba2aa40964736f6c63430006080033",
  "linkReferences": {},
  "deployedLinkReferences": {}
}