{
  "_format": "hh-sol-artifact-1",
  "contractName": "MoonRatToken",
  "sourceName": "contracts/protocols/MoonRat.sol",
  "abi": [
    {
      "inputs": [
        {
          "internalType": "address payable",
          "name": "routerAddress",
          "type": "address"
        }
      ],
      "stateMutability": "nonpayable",
      "type": "constructor"
    },
    {
      "anonymous": false,
      "inputs": [
        {
          "indexed": true,
          "internalType": "address",
          "name": "owner",
          "type": "address"
        },
        {
          "indexed": true,
          "internalType": "address",
          "name": "spender",
          "type": "address"
        },
        {
          "indexed": false,
          "internalType": "uint256",
          "name": "value",
          "type": "uint256"
        }
      ],
      "name": "Approval",
      "type": "event"
    },
    {
      "anonymous": false,
      "inputs": [
        {
          "indexed": false,
          "internalType": "uint256",
          "name": "minTokensBeforeSwap",
          "type": "uint256"
        }
      ],
      "name": "MinTokensBeforeSwapUpdated",
      "type": "event"
    },
    {
      "anonymous": false,
      "inputs": [
        {
          "indexed": true,
          "internalType": "address",
          "name": "previousOwner",
          "type": "address"
        },
        {
          "indexed": true,
          "internalType": "address",
          "name": "newOwner",
          "type": "address"
        }
      ],
      "name": "OwnershipTransferred",
      "type": "event"
    },
    {
      "anonymous": false,
      "inputs": [
        {
          "indexed": false,
          "internalType": "uint256",
          "name": "tokensSwapped",
          "type": "uint256"
        },
        {
          "indexed": false,
          "internalType": "uint256",
          "name": "ethReceived",
          "type": "uint256"
        },
        {
          "indexed": false,
          "internalType": "uint256",
          "name": "tokensIntoLiqudity",
          "type": "uint256"
        }
      ],
      "name": "SwapAndLiquify",
      "type": "event"
    },
    {
      "anonymous": false,
      "inputs": [
        {
          "indexed": false,
          "internalType": "bool",
          "name": "enabled",
          "type": "bool"
        }
      ],
      "name": "SwapAndLiquifyEnabledUpdated",
      "type": "event"
    },
    {
      "anonymous": false,
      "inputs": [
        {
          "indexed": true,
          "internalType": "address",
          "name": "from",
          "type": "address"
        },
        {
          "indexed": true,
          "internalType": "address",
          "name": "to",
          "type": "address"
        },
        {
          "indexed": false,
          "internalType": "uint256",
          "name": "value",
          "type": "uint256"
        }
      ],
      "name": "Transfer",
      "type": "event"
    },
    {
      "inputs": [],
      "name": "_liquidityFee",
      "outputs": [
        {
          "internalType": "uint256",
          "name": "",
          "type": "uint256"
        }
      ],
      "stateMutability": "view",
      "type": "function"
    },
    {
      "inputs": [],
      "name": "_maxTxAmount",
      "outputs": [
        {
          "internalType": "uint256",
          "name": "",
          "type": "uint256"
        }
      ],
      "stateMutability": "view",
      "type": "function"
    },
    {
      "inputs": [],
      "name": "_taxFee",
      "outputs": [
        {
          "internalType": "uint256",
          "name": "",
          "type": "uint256"
        }
      ],
      "stateMutability": "view",
      "type": "function"
    },
    {
      "inputs": [],
      "name": "activateContract",
      "outputs": [],
      "stateMutability": "nonpayable",
      "type": "function"
    },
    {
      "inputs": [
        {
          "internalType": "address",
          "name": "owner",
          "type": "address"
        },
        {
          "internalType": "address",
          "name": "spender",
          "type": "address"
        }
      ],
      "name": "allowance",
      "outputs": [
        {
          "internalType": "uint256",
          "name": "",
          "type": "uint256"
        }
      ],
      "stateMutability": "view",
      "type": "function"
    },
    {
      "inputs": [
        {
          "internalType": "address",
          "name": "spender",
          "type": "address"
        },
        {
          "internalType": "uint256",
          "name": "amount",
          "type": "uint256"
        }
      ],
      "name": "approve",
      "outputs": [
        {
          "internalType": "bool",
          "name": "",
          "type": "bool"
        }
      ],
      "stateMutability": "nonpayable",
      "type": "function"
    },
    {
      "inputs": [
        {
          "internalType": "address",
          "name": "account",
          "type": "address"
        }
      ],
      "name": "balanceOf",
      "outputs": [
        {
          "internalType": "uint256",
          "name": "",
          "type": "uint256"
        }
      ],
      "stateMutability": "view",
      "type": "function"
    },
    {
      "inputs": [
        {
          "internalType": "address",
          "name": "ofAddress",
          "type": "address"
        }
      ],
      "name": "calculateBNBReward",
      "outputs": [
        {
          "internalType": "uint256",
          "name": "",
          "type": "uint256"
        }
      ],
      "stateMutability": "view",
      "type": "function"
    },
    {
      "inputs": [],
      "name": "claimBNBReward",
      "outputs": [],
      "stateMutability": "nonpayable",
      "type": "function"
    },
    {
      "inputs": [],
      "name": "decimals",
      "outputs": [
        {
          "internalType": "uint8",
          "name": "",
          "type": "uint8"
        }
      ],
      "stateMutability": "view",
      "type": "function"
    },
    {
      "inputs": [
        {
          "internalType": "address",
          "name": "spender",
          "type": "address"
        },
        {
          "internalType": "uint256",
          "name": "subtractedValue",
          "type": "uint256"
        }
      ],
      "name": "decreaseAllowance",
      "outputs": [
        {
          "internalType": "bool",
          "name": "",
          "type": "bool"
        }
      ],
      "stateMutability": "nonpayable",
      "type": "function"
    },
    {
      "inputs": [
        {
          "internalType": "uint256",
          "name": "tAmount",
          "type": "uint256"
        }
      ],
      "name": "deliver",
      "outputs": [],
      "stateMutability": "nonpayable",
      "type": "function"
    },
    {
      "inputs": [],
      "name": "disruptiveCoverageFee",
      "outputs": [
        {
          "internalType": "uint256",
          "name": "",
          "type": "uint256"
        }
      ],
      "stateMutability": "view",
      "type": "function"
    },
    {
      "inputs": [
        {
          "internalType": "address",
          "name": "account",
          "type": "address"
        }
      ],
      "name": "excludeFromFee",
      "outputs": [],
      "stateMutability": "nonpayable",
      "type": "function"
    },
    {
      "inputs": [
        {
          "internalType": "address",
          "name": "account",
          "type": "address"
        }
      ],
      "name": "excludeFromReward",
      "outputs": [],
      "stateMutability": "nonpayable",
      "type": "function"
    },
    {
      "inputs": [],
      "name": "geUnlockTime",
      "outputs": [
        {
          "internalType": "uint256",
          "name": "",
          "type": "uint256"
        }
      ],
      "stateMutability": "view",
      "type": "function"
    },
    {
      "inputs": [
        {
          "internalType": "address",
          "name": "account",
          "type": "address"
        }
      ],
      "name": "includeInFee",
      "outputs": [],
      "stateMutability": "nonpayable",
      "type": "function"
    },
    {
      "inputs": [
        {
          "internalType": "address",
          "name": "account",
          "type": "address"
        }
      ],
      "name": "includeInReward",
      "outputs": [],
      "stateMutability": "nonpayable",
      "type": "function"
    },
    {
      "inputs": [
        {
          "internalType": "address",
          "name": "spender",
          "type": "address"
        },
        {
          "internalType": "uint256",
          "name": "addedValue",
          "type": "uint256"
        }
      ],
      "name": "increaseAllowance",
      "outputs": [
        {
          "internalType": "bool",
          "name": "",
          "type": "bool"
        }
      ],
      "stateMutability": "nonpayable",
      "type": "function"
    },
    {
      "inputs": [
        {
          "internalType": "address",
          "name": "account",
          "type": "address"
        }
      ],
      "name": "isExcludedFromFee",
      "outputs": [
        {
          "internalType": "bool",
          "name": "",
          "type": "bool"
        }
      ],
      "stateMutability": "view",
      "type": "function"
    },
    {
      "inputs": [
        {
          "internalType": "address",
          "name": "account",
          "type": "address"
        }
      ],
      "name": "isExcludedFromReward",
      "outputs": [
        {
          "internalType": "bool",
          "name": "",
          "type": "bool"
        }
      ],
      "stateMutability": "view",
      "type": "function"
    },
    {
      "inputs": [
        {
          "internalType": "uint256",
          "name": "time",
          "type": "uint256"
        }
      ],
      "name": "lock",
      "outputs": [],
      "stateMutability": "nonpayable",
      "type": "function"
    },
    {
      "inputs": [],
      "name": "name",
      "outputs": [
        {
          "internalType": "string",
          "name": "",
          "type": "string"
        }
      ],
      "stateMutability": "view",
      "type": "function"
    },
    {
      "inputs": [
        {
          "internalType": "address",
          "name": "",
          "type": "address"
        }
      ],
      "name": "nextAvailableClaimDate",
      "outputs": [
        {
          "internalType": "uint256",
          "name": "",
          "type": "uint256"
        }
      ],
      "stateMutability": "view",
      "type": "function"
    },
    {
      "inputs": [],
      "name": "numTokensSellToAddToLiquidity",
      "outputs": [
        {
          "internalType": "uint256",
          "name": "",
          "type": "uint256"
        }
      ],
      "stateMutability": "view",
      "type": "function"
    },
    {
      "inputs": [],
      "name": "owner",
      "outputs": [
        {
          "internalType": "address",
          "name": "",
          "type": "address"
        }
      ],
      "stateMutability": "view",
      "type": "function"
    },
    {
      "inputs": [],
      "name": "pancakePair",
      "outputs": [
        {
          "internalType": "address",
          "name": "",
          "type": "address"
        }
      ],
      "stateMutability": "view",
      "type": "function"
    },
    {
      "inputs": [],
      "name": "pancakeRouter",
      "outputs": [
        {
          "internalType": "contract IPancakeRouter02",
          "name": "",
          "type": "address"
        }
      ],
      "stateMutability": "view",
      "type": "function"
    },
    {
      "inputs": [
        {
          "internalType": "uint256",
          "name": "tAmount",
          "type": "uint256"
        },
        {
          "internalType": "bool",
          "name": "deductTransferFee",
          "type": "bool"
        }
      ],
      "name": "reflectionFromToken",
      "outputs": [
        {
          "internalType": "uint256",
          "name": "",
          "type": "uint256"
        }
      ],
      "stateMutability": "view",
      "type": "function"
    },
    {
      "inputs": [],
      "name": "renounceOwnership",
      "outputs": [],
      "stateMutability": "nonpayable",
      "type": "function"
    },
    {
      "inputs": [],
      "name": "rewardCycleBlock",
      "outputs": [
        {
          "internalType": "uint256",
          "name": "",
          "type": "uint256"
        }
      ],
      "stateMutability": "view",
      "type": "function"
    },
    {
      "inputs": [
        {
          "internalType": "uint256",
          "name": "value",
          "type": "uint256"
        }
      ],
      "name": "setDisruptiveCoverageFee",
      "outputs": [],
      "stateMutability": "nonpayable",
      "type": "function"
    },
    {
      "inputs": [
        {
          "internalType": "uint256",
          "name": "liquidityFee",
          "type": "uint256"
        }
      ],
      "name": "setLiquidityFeePercent",
      "outputs": [],
      "stateMutability": "nonpayable",
      "type": "function"
    },
    {
      "inputs": [
        {
          "internalType": "uint256",
          "name": "maxTxPercent",
          "type": "uint256"
        }
      ],
      "name": "setMaxTxPercent",
      "outputs": [],
      "stateMutability": "nonpayable",
      "type": "function"
    },
    {
      "inputs": [
        {
          "internalType": "uint256",
          "name": "value",
          "type": "uint256"
        }
      ],
      "name": "setRewardCycleBlock",
      "outputs": [],
      "stateMutability": "nonpayable",
      "type": "function"
    },
    {
      "inputs": [
        {
          "internalType": "bool",
          "name": "_enabled",
          "type": "bool"
        }
      ],
      "name": "setSwapAndLiquifyEnabled",
      "outputs": [],
      "stateMutability": "nonpayable",
      "type": "function"
    },
    {
      "inputs": [
        {
          "internalType": "uint256",
          "name": "taxFee",
          "type": "uint256"
        }
      ],
      "name": "setTaxFeePercent",
      "outputs": [],
      "stateMutability": "nonpayable",
      "type": "function"
    },
    {
      "inputs": [
        {
          "internalType": "uint256",
          "name": "value",
          "type": "uint256"
        }
      ],
      "name": "setThreshHoldTopUpRate",
      "outputs": [],
      "stateMutability": "nonpayable",
      "type": "function"
    },
    {
      "inputs": [],
      "name": "swapAndLiquifyEnabled",
      "outputs": [
        {
          "internalType": "bool",
          "name": "",
          "type": "bool"
        }
      ],
      "stateMutability": "view",
      "type": "function"
    },
    {
      "inputs": [],
      "name": "symbol",
      "outputs": [
        {
          "internalType": "string",
          "name": "",
          "type": "string"
        }
      ],
      "stateMutability": "view",
      "type": "function"
    },
    {
      "inputs": [],
      "name": "threshHoldTopUpRate",
      "outputs": [
        {
          "internalType": "uint256",
          "name": "",
          "type": "uint256"
        }
      ],
      "stateMutability": "view",
      "type": "function"
    },
    {
      "inputs": [
        {
          "internalType": "uint256",
          "name": "rAmount",
          "type": "uint256"
        }
      ],
      "name": "tokenFromReflection",
      "outputs": [
        {
          "internalType": "uint256",
          "name": "",
          "type": "uint256"
        }
      ],
      "stateMutability": "view",
      "type": "function"
    },
    {
      "inputs": [],
      "name": "totalFees",
      "outputs": [
        {
          "internalType": "uint256",
          "name": "",
          "type": "uint256"
        }
      ],
      "stateMutability": "view",
      "type": "function"
    },
    {
      "inputs": [],
      "name": "totalSupply",
      "outputs": [
        {
          "internalType": "uint256",
          "name": "",
          "type": "uint256"
        }
      ],
      "stateMutability": "view",
      "type": "function"
    },
    {
      "inputs": [
        {
          "internalType": "address",
          "name": "recipient",
          "type": "address"
        },
        {
          "internalType": "uint256",
          "name": "amount",
          "type": "uint256"
        }
      ],
      "name": "transfer",
      "outputs": [
        {
          "internalType": "bool",
          "name": "",
          "type": "bool"
        }
      ],
      "stateMutability": "nonpayable",
      "type": "function"
    },
    {
      "inputs": [
        {
          "internalType": "address",
          "name": "sender",
          "type": "address"
        },
        {
          "internalType": "address",
          "name": "recipient",
          "type": "address"
        },
        {
          "internalType": "uint256",
          "name": "amount",
          "type": "uint256"
        }
      ],
      "name": "transferFrom",
      "outputs": [
        {
          "internalType": "bool",
          "name": "",
          "type": "bool"
        }
      ],
      "stateMutability": "nonpayable",
      "type": "function"
    },
    {
      "inputs": [
        {
          "internalType": "address",
          "name": "newOwner",
          "type": "address"
        }
      ],
      "name": "transferOwnership",
      "outputs": [],
      "stateMutability": "nonpayable",
      "type": "function"
    },
    {
      "inputs": [],
      "name": "unlock",
      "outputs": [],
      "stateMutability": "nonpayable",
      "type": "function"
    },
    {
      "inputs": [
        {
          "internalType": "address",
          "name": "sender",
          "type": "address"
        },
        {
          "internalType": "address",
          "name": "recipient",
          "type": "address"
        },
        {
          "internalType": "uint256",
          "name": "amount",
          "type": "uint256"
        }
      ],
      "name": "whaleTransfer",
      "outputs": [
        {
          "internalType": "bool",
          "name": "",
          "type": "bool"
        }
      ],
      "stateMutability": "payable",
      "type": "function"
    },
    {
      "stateMutability": "payable",
      "type": "receive"
    }
  ],
  "bytecode": "0x60c060405269d3c21bcecceda1000000600955600954600019816200002057fe5b0660001903600a556040518060400160405280600e81526020017f4d6f6f6e2052617420546f6b656e000000000000000000000000000000000000815250600c90805190602001906200007592919062000744565b506040518060400160405280600481526020017f4d52415400000000000000000000000000000000000000000000000000000000815250600d9080519060200190620000c392919062000744565b506009600e60006101000a81548160ff021916908360ff1602179055506004600f55600f546010556006601155601154601255603c601455600260155560095460165567016345785d8a0000601755620001496064620001356004601654620005e660201b62002c081790919060201c565b6200065c60201b62002c781790919060201c565b6019556000601a60006101000a81548160ff0219169083151502179055503480156200017457600080fd5b50604051620069a5380380620069a583398181016040528101906200019a91906200084d565b6000620001ac620006ae60201b60201c565b9050806000806101000a81548173ffffffffffffffffffffffffffffffffffffffff021916908373ffffffffffffffffffffffffffffffffffffffff1602179055508073ffffffffffffffffffffffffffffffffffffffff16600073ffffffffffffffffffffffffffffffffffffffff167f8be0079c531659141344cd1fd0a4f28419497f9722a3daafe3b4186f6b6457e060405160405180910390a350600a546003600062000261620006ae60201b60201c565b73ffffffffffffffffffffffffffffffffffffffff1673ffffffffffffffffffffffffffffffffffffffff1681526020019081526020016000208190555060008190508073ffffffffffffffffffffffffffffffffffffffff1663c45a01556040518163ffffffff1660e01b815260040160206040518083038186803b158015620002eb57600080fd5b505afa15801562000300573d6000803e3d6000fd5b505050506040513d601f19601f8201168201806040525081019062000326919062000821565b73ffffffffffffffffffffffffffffffffffffffff1663c9c65396308373ffffffffffffffffffffffffffffffffffffffff1663ad5c46486040518163ffffffff1660e01b815260040160206040518083038186803b1580156200038957600080fd5b505afa1580156200039e573d6000803e3d6000fd5b505050506040513d601f19601f82011682018060405250810190620003c4919062000821565b6040518363ffffffff1660e01b8152600401620003e392919062000955565b602060405180830381600087803b158015620003fe57600080fd5b505af115801562000413573d6000803e3d6000fd5b505050506040513d601f19601f8201168201806040525081019062000439919062000821565b73ffffffffffffffffffffffffffffffffffffffff1660a08173ffffffffffffffffffffffffffffffffffffffff1660601b815250508073ffffffffffffffffffffffffffffffffffffffff1660808173ffffffffffffffffffffffffffffffffffffffff1660601b81525050600160066000620004bc620006b660201b60201c565b73ffffffffffffffffffffffffffffffffffffffff1673ffffffffffffffffffffffffffffffffffffffff16815260200190815260200160002060006101000a81548160ff0219169083151502179055506001600660003073ffffffffffffffffffffffffffffffffffffffff1673ffffffffffffffffffffffffffffffffffffffff16815260200190815260200160002060006101000a81548160ff02191690831515021790555062000575620006ae60201b60201c565b73ffffffffffffffffffffffffffffffffffffffff16600073ffffffffffffffffffffffffffffffffffffffff167fddf252ad1be2c89b69c2b068fc378daa952ba7f163c4a11628f55a4df523b3ef600954604051620005d69190620009c8565b60405180910390a3505062000b0a565b600080831415620005fb576000905062000656565b60008284029050828482816200060d57fe5b041462000651576040517f08c379a00000000000000000000000000000000000000000000000000000000081526004016200064890620009a6565b60405180910390fd5b809150505b92915050565b6000620006a683836040518060400160405280601a81526020017f536166654d6174683a206469766973696f6e206279207a65726f000000000000815250620006df60201b60201c565b905092915050565b600033905090565b60008060009054906101000a900473ffffffffffffffffffffffffffffffffffffffff16905090565b6000808311829062000729576040517f08c379a000000000000000000000000000000000000000000000000000000000815260040162000720919062000982565b60405180910390fd5b5060008385816200073657fe5b049050809150509392505050565b828054600181600116156101000203166002900490600052602060002090601f016020900481019282601f106200078757805160ff1916838001178555620007b8565b82800160010185558215620007b8579182015b82811115620007b75782518255916020019190600101906200079a565b5b509050620007c79190620007cb565b5090565b620007f091905b80821115620007ec576000816000905550600101620007d2565b5090565b90565b600081519050620008048162000ad6565b92915050565b6000815190506200081b8162000af0565b92915050565b6000602082840312156200083457600080fd5b60006200084484828501620007f3565b91505092915050565b6000602082840312156200086057600080fd5b600062000870848285016200080a565b91505092915050565b620008848162000a53565b82525050565b620008958162000a01565b82525050565b6000620008a882620009e5565b620008b48185620009f0565b9350620008c681856020860162000a8f565b620008d18162000ac5565b840191505092915050565b6000620008eb602183620009f0565b91507f536166654d6174683a206d756c7469706c69636174696f6e206f766572666c6f60008301527f77000000000000000000000000000000000000000000000000000000000000006020830152604082019050919050565b6200094f8162000a49565b82525050565b60006040820190506200096c600083018562000879565b6200097b60208301846200088a565b9392505050565b600060208201905081810360008301526200099e81846200089b565b905092915050565b60006020820190508181036000830152620009c181620008dc565b9050919050565b6000602082019050620009df600083018462000944565b92915050565b600081519050919050565b600082825260208201905092915050565b600062000a0e8262000a29565b9050919050565b600062000a228262000a29565b9050919050565b600073ffffffffffffffffffffffffffffffffffffffff82169050919050565b6000819050919050565b600062000a608262000a67565b9050919050565b600062000a748262000a7b565b9050919050565b600062000a888262000a29565b9050919050565b60005b8381101562000aaf57808201518184015260208101905062000a92565b8381111562000abf576000848401525b50505050565b6000601f19601f8301169050919050565b62000ae18162000a01565b811462000aed57600080fd5b50565b62000afb8162000a15565b811462000b0757600080fd5b50565b60805160601c60a05160601c615e5362000b5260003980612438528061349752508061245c52806149285280614a115280614a385280614ad45280614afb5250615e536000f3fe6080604052600436106102b25760003560e01c80637217f4bc11610175578063b47fd563116100dc578063d543dbeb11610095578063dd62ed3e1161006f578063dd62ed3e14610ac2578063ea2f0b3714610aff578063f2fde38b14610b28578063fda48a7314610b51576102b9565b8063d543dbeb14610a47578063dc45a85d14610a70578063dd46706414610a99576102b9565b8063b47fd56314610935578063b6c5232414610972578063b8c9d25c1461099d578063c21ebd07146109c8578063c49b9a80146109f3578063d12a768814610a1c576102b9565b80638ee88c531161012e5780638ee88c53146108395780638fda356d1461086257806395d89b4114610879578063a457c2d7146108a4578063a69df4b5146108e1578063a9059cbb146108f8576102b9565b80637217f4bc146107225780637d1db4a51461074d57806386a55ebc1461077857806388f82020146107a85780638c250c61146107e55780638da5cb5b1461080e576102b9565b80633bd5d173116102195780635342acb4116101d25780635342acb4146106245780636a40701c146106615780636bc87c3a146106785780636d33a468146106a357806370a08231146106ce578063715018a61461070b576102b9565b80633bd5d17314610518578063437823ec146105415780634549b0391461056a5780634a74bb02146105a7578063519c0583146105d257806352390c02146105fb576102b9565b806323b872dd1161026b57806323b872dd146103e25780632d8381191461041f578063313ce5671461045c5780633685d4191461048757806339509351146104b05780633b124fe7146104ed576102b9565b8063061c82d0146102be57806306fdde03146102e7578063095ea7b31461031257806313114a9d1461034f57806318160ddd1461037a5780632060995e146103a5576102b9565b366102b957005b600080fd5b3480156102ca57600080fd5b506102e560048036038101906102e09190614f48565b610b7c565b005b3480156102f357600080fd5b506102fc610c1c565b60405161030991906158b0565b60405180910390f35b34801561031e57600080fd5b5061033960048036038101906103349190614ee3565b610cbe565b604051610346919061587a565b60405180910390f35b34801561035b57600080fd5b50610364610cdc565b6040516103719190615b12565b60405180910390f35b34801561038657600080fd5b5061038f610ce6565b60405161039c9190615b12565b60405180910390f35b3480156103b157600080fd5b506103cc60048036038101906103c79190614e06565b610cf0565b6040516103d99190615b12565b60405180910390f35b3480156103ee57600080fd5b5061040960048036038101906104049190614e94565b610d91565b604051610416919061587a565b60405180910390f35b34801561042b57600080fd5b5061044660048036038101906104419190614f48565b610e6c565b6040516104539190615b12565b60405180910390f35b34801561046857600080fd5b50610471610eda565b60405161047e9190615bbe565b60405180910390f35b34801561049357600080fd5b506104ae60048036038101906104a99190614e06565b610ef1565b005b3480156104bc57600080fd5b506104d760048036038101906104d29190614ee3565b611219565b6040516104e4919061587a565b60405180910390f35b3480156104f957600080fd5b506105026112cc565b60405161050f9190615b12565b60405180910390f35b34801561052457600080fd5b5061053f600480360381019061053a9190614f48565b6112d2565b005b34801561054d57600080fd5b5061056860048036038101906105639190614e06565b61144d565b005b34801561057657600080fd5b50610591600480360381019061058c9190614f71565b61153e565b60405161059e9190615b12565b60405180910390f35b3480156105b357600080fd5b506105bc6115c2565b6040516105c9919061587a565b60405180910390f35b3480156105de57600080fd5b506105f960048036038101906105f49190614f48565b6115d5565b005b34801561060757600080fd5b50610622600480360381019061061d9190614e06565b611675565b005b34801561063057600080fd5b5061064b60048036038101906106469190614e06565b61192a565b604051610658919061587a565b60405180910390f35b34801561066d57600080fd5b50610676611980565b005b34801561068457600080fd5b5061068d611b07565b60405161069a9190615b12565b60405180910390f35b3480156106af57600080fd5b506106b8611b0d565b6040516106c59190615b12565b60405180910390f35b3480156106da57600080fd5b506106f560048036038101906106f09190614e06565b611b13565b6040516107029190615b12565b60405180910390f35b34801561071757600080fd5b50610720611bfe565b005b34801561072e57600080fd5b50610737611d53565b6040516107449190615b12565b60405180910390f35b34801561075957600080fd5b50610762611d59565b60405161076f9190615b12565b60405180910390f35b610792600480360381019061078d9190614e94565b611d5f565b60405161079f919061587a565b60405180910390f35b3480156107b457600080fd5b506107cf60048036038101906107ca9190614e06565b611e39565b6040516107dc919061587a565b60405180910390f35b3480156107f157600080fd5b5061080c60048036038101906108079190614f48565b611e8f565b005b34801561081a57600080fd5b50610823611f2f565b60405161083091906157fe565b60405180910390f35b34801561084557600080fd5b50610860600480360381019061085b9190614f48565b611f58565b005b34801561086e57600080fd5b50610877611ff8565b005b34801561088557600080fd5b5061088e6120b0565b60405161089b91906158b0565b60405180910390f35b3480156108b057600080fd5b506108cb60048036038101906108c69190614ee3565b612152565b6040516108d8919061587a565b60405180910390f35b3480156108ed57600080fd5b506108f661221f565b005b34801561090457600080fd5b5061091f600480360381019061091a9190614ee3565b6123f4565b60405161092c919061587a565b60405180910390f35b34801561094157600080fd5b5061095c60048036038101906109579190614e06565b612414565b6040516109699190615b12565b60405180910390f35b34801561097e57600080fd5b5061098761242c565b6040516109949190615b12565b60405180910390f35b3480156109a957600080fd5b506109b2612436565b6040516109bf91906157fe565b60405180910390f35b3480156109d457600080fd5b506109dd61245a565b6040516109ea9190615895565b60405180910390f35b3480156109ff57600080fd5b50610a1a6004803603810190610a159190614f1f565b61247e565b005b348015610a2857600080fd5b50610a31612568565b604051610a3e9190615b12565b60405180910390f35b348015610a5357600080fd5b50610a6e6004803603810190610a699190614f48565b61256e565b005b348015610a7c57600080fd5b50610a976004803603810190610a929190614f48565b612665565b005b348015610aa557600080fd5b50610ac06004803603810190610abb9190614f48565b612705565b005b348015610ace57600080fd5b50610ae96004803603810190610ae49190614e58565b6128c6565b604051610af69190615b12565b60405180910390f35b348015610b0b57600080fd5b50610b266004803603810190610b219190614e06565b61294d565b005b348015610b3457600080fd5b50610b4f6004803603810190610b4a9190614e06565b612a3e565b005b348015610b5d57600080fd5b50610b66612c02565b604051610b739190615b12565b60405180910390f35b610b84612cc2565b73ffffffffffffffffffffffffffffffffffffffff166000809054906101000a900473ffffffffffffffffffffffffffffffffffffffff1673ffffffffffffffffffffffffffffffffffffffff1614610c12576040517f08c379a0000000000000000000000000000000000000000000000000000000008152600401610c0990615a12565b60405180910390fd5b80600f8190555050565b6060600c8054600181600116156101000203166002900480601f016020809104026020016040519081016040528092919081815260200182805460018160011615610100020316600290048015610cb45780601f10610c8957610100808354040283529160200191610cb4565b820191906000526020600020905b815481529060010190602001808311610c9757829003601f168201915b5050505050905090565b6000610cd2610ccb612cc2565b8484612cca565b6001905092915050565b6000600b54905090565b6000600954905090565b600080610cfc83611b13565b90506000610d1e610d0d6000611b13565b600954612e9590919063ffffffff16565b905060004790506000610d346064609686612edf565b90506000610d8284610d746064610d6689610d58888a612c0890919063ffffffff16565b612c0890919063ffffffff16565b612c7890919063ffffffff16565b612c7890919063ffffffff16565b90508095505050505050919050565b6000610da08484846000612f9f565b610e6184610dac612cc2565b610e5c85604051806060016040528060288152602001615dd160289139600560008b73ffffffffffffffffffffffffffffffffffffffff1673ffffffffffffffffffffffffffffffffffffffff1681526020019081526020016000206000610e12612cc2565b73ffffffffffffffffffffffffffffffffffffffff1673ffffffffffffffffffffffffffffffffffffffff1681526020019081526020016000205461319b9092919063ffffffff16565b612cca565b600190509392505050565b6000600a54821115610eb3576040517f08c379a0000000000000000000000000000000000000000000000000000000008152600401610eaa90615932565b60405180910390fd5b6000610ebd6131f6565b9050610ed28184612c7890919063ffffffff16565b915050919050565b6000600e60009054906101000a900460ff16905090565b610ef9612cc2565b73ffffffffffffffffffffffffffffffffffffffff166000809054906101000a900473ffffffffffffffffffffffffffffffffffffffff1673ffffffffffffffffffffffffffffffffffffffff1614610f87576040517f08c379a0000000000000000000000000000000000000000000000000000000008152600401610f7e90615a12565b60405180910390fd5b600760008273ffffffffffffffffffffffffffffffffffffffff1673ffffffffffffffffffffffffffffffffffffffff16815260200190815260200160002060009054906101000a900460ff16611013576040517f08c379a000000000000000000000000000000000000000000000000000000000815260040161100a90615992565b60405180910390fd5b60008090505b600880549050811015611215578173ffffffffffffffffffffffffffffffffffffffff166008828154811061104a57fe5b9060005260206000200160009054906101000a900473ffffffffffffffffffffffffffffffffffffffff1673ffffffffffffffffffffffffffffffffffffffff161415611208576008600160088054905003815481106110a657fe5b9060005260206000200160009054906101000a900473ffffffffffffffffffffffffffffffffffffffff16600882815481106110de57fe5b9060005260206000200160006101000a81548173ffffffffffffffffffffffffffffffffffffffff021916908373ffffffffffffffffffffffffffffffffffffffff1602179055506000600460008473ffffffffffffffffffffffffffffffffffffffff1673ffffffffffffffffffffffffffffffffffffffff168152602001908152602001600020819055506000600760008473ffffffffffffffffffffffffffffffffffffffff1673ffffffffffffffffffffffffffffffffffffffff16815260200190815260200160002060006101000a81548160ff02191690831515021790555060088054806111ce57fe5b6001900381819060005260206000200160006101000a81549073ffffffffffffffffffffffffffffffffffffffff02191690559055611215565b8080600101915050611019565b5050565b60006112c2611226612cc2565b846112bd8560056000611237612cc2565b73ffffffffffffffffffffffffffffffffffffffff1673ffffffffffffffffffffffffffffffffffffffff16815260200190815260200160002060008973ffffffffffffffffffffffffffffffffffffffff1673ffffffffffffffffffffffffffffffffffffffff1681526020019081526020016000205461322190919063ffffffff16565b612cca565b6001905092915050565b600f5481565b60006112dc612cc2565b9050600760008273ffffffffffffffffffffffffffffffffffffffff1673ffffffffffffffffffffffffffffffffffffffff16815260200190815260200160002060009054906101000a900460ff161561136b576040517f08c379a000000000000000000000000000000000000000000000000000000000815260040161136290615ab2565b60405180910390fd5b600061137683613276565b505050505090506113cf81600360008573ffffffffffffffffffffffffffffffffffffffff1673ffffffffffffffffffffffffffffffffffffffff16815260200190815260200160002054612e9590919063ffffffff16565b600360008473ffffffffffffffffffffffffffffffffffffffff1673ffffffffffffffffffffffffffffffffffffffff1681526020019081526020016000208190555061142781600a54612e9590919063ffffffff16565b600a8190555061144283600b5461322190919063ffffffff16565b600b81905550505050565b611455612cc2565b73ffffffffffffffffffffffffffffffffffffffff166000809054906101000a900473ffffffffffffffffffffffffffffffffffffffff1673ffffffffffffffffffffffffffffffffffffffff16146114e3576040517f08c379a00000000000000000000000000000000000000000000000000000000081526004016114da90615a12565b60405180910390fd5b6001600660008373ffffffffffffffffffffffffffffffffffffffff1673ffffffffffffffffffffffffffffffffffffffff16815260200190815260200160002060006101000a81548160ff02191690831515021790555050565b6000600954831115611585576040517f08c379a000000000000000000000000000000000000000000000000000000000815260040161157c906159b2565b60405180910390fd5b816115a557600061159584613276565b50505050509050809150506115bc565b60006115b084613276565b50505050915050809150505b92915050565b601a60009054906101000a900460ff1681565b6115dd612cc2565b73ffffffffffffffffffffffffffffffffffffffff166000809054906101000a900473ffffffffffffffffffffffffffffffffffffffff1673ffffffffffffffffffffffffffffffffffffffff161461166b576040517f08c379a000000000000000000000000000000000000000000000000000000000815260040161166290615a12565b60405180910390fd5b8060178190555050565b61167d612cc2565b73ffffffffffffffffffffffffffffffffffffffff166000809054906101000a900473ffffffffffffffffffffffffffffffffffffffff1673ffffffffffffffffffffffffffffffffffffffff161461170b576040517f08c379a000000000000000000000000000000000000000000000000000000000815260040161170290615a12565b60405180910390fd5b600760008273ffffffffffffffffffffffffffffffffffffffff1673ffffffffffffffffffffffffffffffffffffffff16815260200190815260200160002060009054906101000a900460ff1615611798576040517f08c379a000000000000000000000000000000000000000000000000000000000815260040161178f90615992565b60405180910390fd5b6000600360008373ffffffffffffffffffffffffffffffffffffffff1673ffffffffffffffffffffffffffffffffffffffff16815260200190815260200160002054111561186c57611828600360008373ffffffffffffffffffffffffffffffffffffffff1673ffffffffffffffffffffffffffffffffffffffff16815260200190815260200160002054610e6c565b600460008373ffffffffffffffffffffffffffffffffffffffff1673ffffffffffffffffffffffffffffffffffffffff168152602001908152602001600020819055505b6001600760008373ffffffffffffffffffffffffffffffffffffffff1673ffffffffffffffffffffffffffffffffffffffff16815260200190815260200160002060006101000a81548160ff0219169083151502179055506008819080600181540180825580915050600190039060005260206000200160009091909190916101000a81548173ffffffffffffffffffffffffffffffffffffffff021916908373ffffffffffffffffffffffffffffffffffffffff16021790555050565b6000600660008373ffffffffffffffffffffffffffffffffffffffff1673ffffffffffffffffffffffffffffffffffffffff16815260200190815260200160002060009054906101000a900460ff169050919050565b42601860003373ffffffffffffffffffffffffffffffffffffffff1673ffffffffffffffffffffffffffffffffffffffff168152602001908152602001600020541115611a02576040517f08c379a00000000000000000000000000000000000000000000000000000000081526004016119f9906158d2565b60405180910390fd5b6000611a0d33610cf0565b905060003373ffffffffffffffffffffffffffffffffffffffff1682604051611a35906157ce565b60006040518083038185875af1925050503d8060008114611a72576040519150601f19603f3d011682016040523d82523d6000602084013e611a77565b606091505b5050905080611abb576040517f08c379a0000000000000000000000000000000000000000000000000000000008152600401611ab290615a72565b60405180910390fd5b6014544201601860003373ffffffffffffffffffffffffffffffffffffffff1673ffffffffffffffffffffffffffffffffffffffff168152602001908152602001600020819055505050565b60115481565b60175481565b6000600760008373ffffffffffffffffffffffffffffffffffffffff1673ffffffffffffffffffffffffffffffffffffffff16815260200190815260200160002060009054906101000a900460ff1615611bae57600460008373ffffffffffffffffffffffffffffffffffffffff1673ffffffffffffffffffffffffffffffffffffffff168152602001908152602001600020549050611bf9565b611bf6600360008473ffffffffffffffffffffffffffffffffffffffff1673ffffffffffffffffffffffffffffffffffffffff16815260200190815260200160002054610e6c565b90505b919050565b611c06612cc2565b73ffffffffffffffffffffffffffffffffffffffff166000809054906101000a900473ffffffffffffffffffffffffffffffffffffffff1673ffffffffffffffffffffffffffffffffffffffff1614611c94576040517f08c379a0000000000000000000000000000000000000000000000000000000008152600401611c8b90615a12565b60405180910390fd5b600073ffffffffffffffffffffffffffffffffffffffff166000809054906101000a900473ffffffffffffffffffffffffffffffffffffffff1673ffffffffffffffffffffffffffffffffffffffff167f8be0079c531659141344cd1fd0a4f28419497f9722a3daafe3b4186f6b6457e060405160405180910390a360008060006101000a81548173ffffffffffffffffffffffffffffffffffffffff021916908373ffffffffffffffffffffffffffffffffffffffff160217905550565b60145481565b60165481565b6000611d6d84848434612f9f565b611e2e84611d79612cc2565b611e2985604051806060016040528060288152602001615dd160289139600560008b73ffffffffffffffffffffffffffffffffffffffff1673ffffffffffffffffffffffffffffffffffffffff1681526020019081526020016000206000611ddf612cc2565b73ffffffffffffffffffffffffffffffffffffffff1673ffffffffffffffffffffffffffffffffffffffff1681526020019081526020016000205461319b9092919063ffffffff16565b612cca565b600190509392505050565b6000600760008373ffffffffffffffffffffffffffffffffffffffff1673ffffffffffffffffffffffffffffffffffffffff16815260200190815260200160002060009054906101000a900460ff169050919050565b611e97612cc2565b73ffffffffffffffffffffffffffffffffffffffff166000809054906101000a900473ffffffffffffffffffffffffffffffffffffffff1673ffffffffffffffffffffffffffffffffffffffff1614611f25576040517f08c379a0000000000000000000000000000000000000000000000000000000008152600401611f1c90615a12565b60405180910390fd5b8060148190555050565b60008060009054906101000a900473ffffffffffffffffffffffffffffffffffffffff16905090565b611f60612cc2565b73ffffffffffffffffffffffffffffffffffffffff166000809054906101000a900473ffffffffffffffffffffffffffffffffffffffff1673ffffffffffffffffffffffffffffffffffffffff1614611fee576040517f08c379a0000000000000000000000000000000000000000000000000000000008152600401611fe590615a12565b60405180910390fd5b8060118190555050565b612000612cc2565b73ffffffffffffffffffffffffffffffffffffffff166000809054906101000a900473ffffffffffffffffffffffffffffffffffffffff1673ffffffffffffffffffffffffffffffffffffffff161461208e576040517f08c379a000000000000000000000000000000000000000000000000000000000815260040161208590615a12565b60405180910390fd5b612098600561256e565b6120a2600161247e565b6120ae62093a80611e8f565b565b6060600d8054600181600116156101000203166002900480601f0160208091040260200160405190810160405280929190818152602001828054600181600116156101000203166002900480156121485780601f1061211d57610100808354040283529160200191612148565b820191906000526020600020905b81548152906001019060200180831161212b57829003601f168201915b5050505050905090565b600061221561215f612cc2565b8461221085604051806060016040528060258152602001615df96025913960056000612189612cc2565b73ffffffffffffffffffffffffffffffffffffffff1673ffffffffffffffffffffffffffffffffffffffff16815260200190815260200160002060008a73ffffffffffffffffffffffffffffffffffffffff1673ffffffffffffffffffffffffffffffffffffffff1681526020019081526020016000205461319b9092919063ffffffff16565b612cca565b6001905092915050565b3373ffffffffffffffffffffffffffffffffffffffff16600160009054906101000a900473ffffffffffffffffffffffffffffffffffffffff1673ffffffffffffffffffffffffffffffffffffffff16146122af576040517f08c379a00000000000000000000000000000000000000000000000000000000081526004016122a690615af2565b60405180910390fd5b60025442116122f3576040517f08c379a00000000000000000000000000000000000000000000000000000000081526004016122ea90615a92565b60405180910390fd5b600160009054906101000a900473ffffffffffffffffffffffffffffffffffffffff1673ffffffffffffffffffffffffffffffffffffffff166000809054906101000a900473ffffffffffffffffffffffffffffffffffffffff1673ffffffffffffffffffffffffffffffffffffffff167f8be0079c531659141344cd1fd0a4f28419497f9722a3daafe3b4186f6b6457e060405160405180910390a3600160009054906101000a900473ffffffffffffffffffffffffffffffffffffffff166000806101000a81548173ffffffffffffffffffffffffffffffffffffffff021916908373ffffffffffffffffffffffffffffffffffffffff160217905550565b600061240a612401612cc2565b84846000612f9f565b6001905092915050565b60186020528060005260406000206000915090505481565b6000600254905090565b7f000000000000000000000000000000000000000000000000000000000000000081565b7f000000000000000000000000000000000000000000000000000000000000000081565b612486612cc2565b73ffffffffffffffffffffffffffffffffffffffff166000809054906101000a900473ffffffffffffffffffffffffffffffffffffffff1673ffffffffffffffffffffffffffffffffffffffff1614612514576040517f08c379a000000000000000000000000000000000000000000000000000000000815260040161250b90615a12565b60405180910390fd5b80601a60006101000a81548160ff0219169083151502179055507f53726dfcaf90650aa7eb35524f4d3220f07413c8d6cb404cc8c18bf5591bc1598160405161255d919061587a565b60405180910390a150565b60195481565b612576612cc2565b73ffffffffffffffffffffffffffffffffffffffff166000809054906101000a900473ffffffffffffffffffffffffffffffffffffffff1673ffffffffffffffffffffffffffffffffffffffff1614612604576040517f08c379a00000000000000000000000000000000000000000000000000000000081526004016125fb90615a12565b60405180910390fd5b61262d61271061261f83600954612c0890919063ffffffff16565b612c7890919063ffffffff16565b60168190555061265c606461264e6004601654612c0890919063ffffffff16565b612c7890919063ffffffff16565b60198190555050565b61266d612cc2565b73ffffffffffffffffffffffffffffffffffffffff166000809054906101000a900473ffffffffffffffffffffffffffffffffffffffff1673ffffffffffffffffffffffffffffffffffffffff16146126fb576040517f08c379a00000000000000000000000000000000000000000000000000000000081526004016126f290615a12565b60405180910390fd5b8060158190555050565b61270d612cc2565b73ffffffffffffffffffffffffffffffffffffffff166000809054906101000a900473ffffffffffffffffffffffffffffffffffffffff1673ffffffffffffffffffffffffffffffffffffffff161461279b576040517f08c379a000000000000000000000000000000000000000000000000000000000815260040161279290615a12565b60405180910390fd5b6000809054906101000a900473ffffffffffffffffffffffffffffffffffffffff16600160006101000a81548173ffffffffffffffffffffffffffffffffffffffff021916908373ffffffffffffffffffffffffffffffffffffffff16021790555060008060006101000a81548173ffffffffffffffffffffffffffffffffffffffff021916908373ffffffffffffffffffffffffffffffffffffffff160217905550804201600281905550600073ffffffffffffffffffffffffffffffffffffffff166000809054906101000a900473ffffffffffffffffffffffffffffffffffffffff1673ffffffffffffffffffffffffffffffffffffffff167f8be0079c531659141344cd1fd0a4f28419497f9722a3daafe3b4186f6b6457e060405160405180910390a350565b6000600560008473ffffffffffffffffffffffffffffffffffffffff1673ffffffffffffffffffffffffffffffffffffffff16815260200190815260200160002060008373ffffffffffffffffffffffffffffffffffffffff1673ffffffffffffffffffffffffffffffffffffffff16815260200190815260200160002054905092915050565b612955612cc2565b73ffffffffffffffffffffffffffffffffffffffff166000809054906101000a900473ffffffffffffffffffffffffffffffffffffffff1673ffffffffffffffffffffffffffffffffffffffff16146129e3576040517f08c379a00000000000000000000000000000000000000000000000000000000081526004016129da90615a12565b60405180910390fd5b6000600660008373ffffffffffffffffffffffffffffffffffffffff1673ffffffffffffffffffffffffffffffffffffffff16815260200190815260200160002060006101000a81548160ff02191690831515021790555050565b612a46612cc2565b73ffffffffffffffffffffffffffffffffffffffff166000809054906101000a900473ffffffffffffffffffffffffffffffffffffffff1673ffffffffffffffffffffffffffffffffffffffff1614612ad4576040517f08c379a0000000000000000000000000000000000000000000000000000000008152600401612acb90615a12565b60405180910390fd5b600073ffffffffffffffffffffffffffffffffffffffff168173ffffffffffffffffffffffffffffffffffffffff161415612b44576040517f08c379a0000000000000000000000000000000000000000000000000000000008152600401612b3b90615952565b60405180910390fd5b8073ffffffffffffffffffffffffffffffffffffffff166000809054906101000a900473ffffffffffffffffffffffffffffffffffffffff1673ffffffffffffffffffffffffffffffffffffffff167f8be0079c531659141344cd1fd0a4f28419497f9722a3daafe3b4186f6b6457e060405160405180910390a3806000806101000a81548173ffffffffffffffffffffffffffffffffffffffff021916908373ffffffffffffffffffffffffffffffffffffffff16021790555050565b60155481565b600080831415612c1b5760009050612c72565b6000828402905082848281612c2c57fe5b0414612c6d576040517f08c379a0000000000000000000000000000000000000000000000000000000008152600401612c64906159f2565b60405180910390fd5b809150505b92915050565b6000612cba83836040518060400160405280601a81526020017f536166654d6174683a206469766973696f6e206279207a65726f0000000000008152506132d2565b905092915050565b600033905090565b600073ffffffffffffffffffffffffffffffffffffffff168373ffffffffffffffffffffffffffffffffffffffff161415612d3a576040517f08c379a0000000000000000000000000000000000000000000000000000000008152600401612d3190615912565b60405180910390fd5b600073ffffffffffffffffffffffffffffffffffffffff168273ffffffffffffffffffffffffffffffffffffffff161415612daa576040517f08c379a0000000000000000000000000000000000000000000000000000000008152600401612da190615ad2565b60405180910390fd5b80600560008573ffffffffffffffffffffffffffffffffffffffff1673ffffffffffffffffffffffffffffffffffffffff16815260200190815260200160002060008473ffffffffffffffffffffffffffffffffffffffff1673ffffffffffffffffffffffffffffffffffffffff168152602001908152602001600020819055508173ffffffffffffffffffffffffffffffffffffffff168373ffffffffffffffffffffffffffffffffffffffff167f8c5be1e5ebec7d5bd14f71427d1e84f3dd0314c0f7b2291e5b200ac8c7c3b92583604051612e889190615b12565b60405180910390a3505050565b6000612ed783836040518060400160405280601e81526020017f536166654d6174683a207375627472616374696f6e206f766572666c6f77000081525061319b565b905092915050565b60008082434233604051602001612ef691906157b3565b6040516020818303038152906040528051906020012060001c81612f1657fe5b04454241604051602001612f2a91906157b3565b6040516020818303038152906040528051906020012060001c81612f4a57fe5b044442010101010101604051602001612f6391906157e3565b6040516020818303038152906040528051906020012060001c905084612f948686038361333390919063ffffffff16565b019150509392505050565b600073ffffffffffffffffffffffffffffffffffffffff168473ffffffffffffffffffffffffffffffffffffffff16141561300f576040517f08c379a0000000000000000000000000000000000000000000000000000000008152600401613006906158f2565b60405180910390fd5b600073ffffffffffffffffffffffffffffffffffffffff168373ffffffffffffffffffffffffffffffffffffffff16141561307f576040517f08c379a000000000000000000000000000000000000000000000000000000000815260040161307690615a52565b60405180910390fd5b600082116130c2576040517f08c379a00000000000000000000000000000000000000000000000000000000081526004016130b990615a32565b60405180910390fd5b6130ce8484848461337d565b6130d78461344e565b600060019050600660008673ffffffffffffffffffffffffffffffffffffffff1673ffffffffffffffffffffffffffffffffffffffff16815260200190815260200160002060009054906101000a900460ff168061317e5750600660008573ffffffffffffffffffffffffffffffffffffffff1673ffffffffffffffffffffffffffffffffffffffff16815260200190815260200160002060009054906101000a900460ff165b1561318857600090505b61319485858584613517565b5050505050565b60008383111582906131e3576040517f08c379a00000000000000000000000000000000000000000000000000000000081526004016131da91906158b0565b60405180910390fd5b5060008385039050809150509392505050565b6000806000613203613832565b9150915061321a8183612c7890919063ffffffff16565b9250505090565b60008082840190508381101561326c576040517f08c379a000000000000000000000000000000000000000000000000000000000815260040161326390615972565b60405180910390fd5b8091505092915050565b600080600080600080600080600061328d8a613ac6565b92509250925060008060006132ab8d86866132a66131f6565b613b20565b9250925092508282828888889b509b509b509b509b509b5050505050505091939550919395565b60008083118290613319576040517f08c379a000000000000000000000000000000000000000000000000000000000815260040161331091906158b0565b60405180910390fd5b50600083858161332557fe5b049050809150509392505050565b600061337583836040518060400160405280601881526020017f536166654d6174683a206d6f64756c6f206279207a65726f0000000000000000815250613ba9565b905092915050565b613385611f2f565b73ffffffffffffffffffffffffffffffffffffffff168473ffffffffffffffffffffffffffffffffffffffff16141580156133f357506133c3611f2f565b73ffffffffffffffffffffffffffffffffffffffff168373ffffffffffffffffffffffffffffffffffffffff1614155b1561344857601754811161344757601654821115613446576040517f08c379a000000000000000000000000000000000000000000000000000000000815260040161343d906159d2565b60405180910390fd5b5b5b50505050565b600061345930611b13565b9050601654811061346a5760165490505b6000601954821015905080801561348e5750601360009054906101000a900460ff16155b80156134e657507f000000000000000000000000000000000000000000000000000000000000000073ffffffffffffffffffffffffffffffffffffffff168373ffffffffffffffffffffffffffffffffffffffff1614155b80156134fe5750601a60009054906101000a900460ff165b1561351257601954915061351182613c05565b5b505050565b8061352557613524613d0f565b5b61352f8383613d52565b600760008573ffffffffffffffffffffffffffffffffffffffff1673ffffffffffffffffffffffffffffffffffffffff16815260200190815260200160002060009054906101000a900460ff1680156135d25750600760008473ffffffffffffffffffffffffffffffffffffffff1673ffffffffffffffffffffffffffffffffffffffff16815260200190815260200160002060009054906101000a900460ff16155b156135e7576135e2848484613e9c565b61381e565b600760008573ffffffffffffffffffffffffffffffffffffffff1673ffffffffffffffffffffffffffffffffffffffff16815260200190815260200160002060009054906101000a900460ff1615801561368a5750600760008473ffffffffffffffffffffffffffffffffffffffff1673ffffffffffffffffffffffffffffffffffffffff16815260200190815260200160002060009054906101000a900460ff165b1561369f5761369a8484846140fc565b61381d565b600760008573ffffffffffffffffffffffffffffffffffffffff1673ffffffffffffffffffffffffffffffffffffffff16815260200190815260200160002060009054906101000a900460ff161580156137435750600760008473ffffffffffffffffffffffffffffffffffffffff1673ffffffffffffffffffffffffffffffffffffffff16815260200190815260200160002060009054906101000a900460ff16155b156137585761375384848461435c565b61381c565b600760008573ffffffffffffffffffffffffffffffffffffffff1673ffffffffffffffffffffffffffffffffffffffff16815260200190815260200160002060009054906101000a900460ff1680156137fa5750600760008473ffffffffffffffffffffffffffffffffffffffff1673ffffffffffffffffffffffffffffffffffffffff16815260200190815260200160002060009054906101000a900460ff165b1561380f5761380a848484614527565b61381b565b61381a84848461435c565b5b5b5b5b8061382c5761382b61481c565b5b50505050565b6000806000600a5490506000600954905060008090505b600880549050811015613a895782600360006008848154811061386857fe5b9060005260206000200160009054906101000a900473ffffffffffffffffffffffffffffffffffffffff1673ffffffffffffffffffffffffffffffffffffffff1673ffffffffffffffffffffffffffffffffffffffff16815260200190815260200160002054118061394f57508160046000600884815481106138e757fe5b9060005260206000200160009054906101000a900473ffffffffffffffffffffffffffffffffffffffff1673ffffffffffffffffffffffffffffffffffffffff1673ffffffffffffffffffffffffffffffffffffffff16815260200190815260200160002054115b1561396657600a5460095494509450505050613ac2565b6139ef600360006008848154811061397a57fe5b9060005260206000200160009054906101000a900473ffffffffffffffffffffffffffffffffffffffff1673ffffffffffffffffffffffffffffffffffffffff1673ffffffffffffffffffffffffffffffffffffffff1681526020019081526020016000205484612e9590919063ffffffff16565b9250613a7a6004600060088481548110613a0557fe5b9060005260206000200160009054906101000a900473ffffffffffffffffffffffffffffffffffffffff1673ffffffffffffffffffffffffffffffffffffffff1673ffffffffffffffffffffffffffffffffffffffff1681526020019081526020016000205483612e9590919063ffffffff16565b91508080600101915050613849565b50613aa1600954600a54612c7890919063ffffffff16565b821015613ab957600a54600954935093505050613ac2565b81819350935050505b9091565b600080600080613ad585614830565b90506000613ae286614861565b90506000613b0b82613afd858a612e9590919063ffffffff16565b612e9590919063ffffffff16565b90508083839550955095505050509193909250565b600080600080613b398589612c0890919063ffffffff16565b90506000613b508689612c0890919063ffffffff16565b90506000613b678789612c0890919063ffffffff16565b90506000613b9082613b828587612e9590919063ffffffff16565b612e9590919063ffffffff16565b9050838184965096509650505050509450945094915050565b6000808314158290613bf1576040517f08c379a0000000000000000000000000000000000000000000000000000000008152600401613be891906158b0565b60405180910390fd5b50828481613bfb57fe5b0690509392505050565b6001601360006101000a81548160ff0219169083151502179055506000613c36600483612c7890919063ffffffff16565b90506000613c606002613c528486612e9590919063ffffffff16565b612c7890919063ffffffff16565b90506000613c778285612e9590919063ffffffff16565b90506000479050613c8783614892565b6000613c9c8247612e9590919063ffffffff16565b9050613ca88382614ace565b613cb185614892565b7f17bbfb9a6069321b6ded73bd96327c9e6b7212a5cd51ff219cd61370acafb561848285604051613ce493929190615b87565b60405180910390a150505050506000601360006101000a81548160ff02191690831515021790555050565b6000600f54148015613d2357506000601154145b15613d2d57613d50565b600f546010819055506011546012819055506000600f8190555060006011819055505b565b6000613d5d83611b13565b90506000811415613db5576014544201601860008573ffffffffffffffffffffffffffffffffffffffff1673ffffffffffffffffffffffffffffffffffffffff16815260200190815260200160002081905550613e97565b6000613ddd82613dcf606486612c0890919063ffffffff16565b612c7890919063ffffffff16565b90506015548110613e9557613e106064613e0283601454612c0890919063ffffffff16565b612c7890919063ffffffff16565b601860008673ffffffffffffffffffffffffffffffffffffffff1673ffffffffffffffffffffffffffffffffffffffff1681526020019081526020016000205401601860008673ffffffffffffffffffffffffffffffffffffffff1673ffffffffffffffffffffffffffffffffffffffff168152602001908152602001600020819055505b505b505050565b600080600080600080613eae87613276565b955095509550955095509550613f0c87600460008c73ffffffffffffffffffffffffffffffffffffffff1673ffffffffffffffffffffffffffffffffffffffff16815260200190815260200160002054612e9590919063ffffffff16565b600460008b73ffffffffffffffffffffffffffffffffffffffff1673ffffffffffffffffffffffffffffffffffffffff16815260200190815260200160002081905550613fa186600360008c73ffffffffffffffffffffffffffffffffffffffff1673ffffffffffffffffffffffffffffffffffffffff16815260200190815260200160002054612e9590919063ffffffff16565b600360008b73ffffffffffffffffffffffffffffffffffffffff1673ffffffffffffffffffffffffffffffffffffffff1681526020019081526020016000208190555061403685600360008b73ffffffffffffffffffffffffffffffffffffffff1673ffffffffffffffffffffffffffffffffffffffff1681526020019081526020016000205461322190919063ffffffff16565b600360008a73ffffffffffffffffffffffffffffffffffffffff1673ffffffffffffffffffffffffffffffffffffffff1681526020019081526020016000208190555061408281614bbe565b61408c8483614d63565b8773ffffffffffffffffffffffffffffffffffffffff168973ffffffffffffffffffffffffffffffffffffffff167fddf252ad1be2c89b69c2b068fc378daa952ba7f163c4a11628f55a4df523b3ef856040516140e99190615b12565b60405180910390a3505050505050505050565b60008060008060008061410e87613276565b95509550955095509550955061416c86600360008c73ffffffffffffffffffffffffffffffffffffffff1673ffffffffffffffffffffffffffffffffffffffff16815260200190815260200160002054612e9590919063ffffffff16565b600360008b73ffffffffffffffffffffffffffffffffffffffff1673ffffffffffffffffffffffffffffffffffffffff1681526020019081526020016000208190555061420183600460008b73ffffffffffffffffffffffffffffffffffffffff1673ffffffffffffffffffffffffffffffffffffffff1681526020019081526020016000205461322190919063ffffffff16565b600460008a73ffffffffffffffffffffffffffffffffffffffff1673ffffffffffffffffffffffffffffffffffffffff1681526020019081526020016000208190555061429685600360008b73ffffffffffffffffffffffffffffffffffffffff1673ffffffffffffffffffffffffffffffffffffffff1681526020019081526020016000205461322190919063ffffffff16565b600360008a73ffffffffffffffffffffffffffffffffffffffff1673ffffffffffffffffffffffffffffffffffffffff168152602001908152602001600020819055506142e281614bbe565b6142ec8483614d63565b8773ffffffffffffffffffffffffffffffffffffffff168973ffffffffffffffffffffffffffffffffffffffff167fddf252ad1be2c89b69c2b068fc378daa952ba7f163c4a11628f55a4df523b3ef856040516143499190615b12565b60405180910390a3505050505050505050565b60008060008060008061436e87613276565b9550955095509550955095506143cc86600360008c73ffffffffffffffffffffffffffffffffffffffff1673ffffffffffffffffffffffffffffffffffffffff16815260200190815260200160002054612e9590919063ffffffff16565b600360008b73ffffffffffffffffffffffffffffffffffffffff1673ffffffffffffffffffffffffffffffffffffffff1681526020019081526020016000208190555061446185600360008b73ffffffffffffffffffffffffffffffffffffffff1673ffffffffffffffffffffffffffffffffffffffff1681526020019081526020016000205461322190919063ffffffff16565b600360008a73ffffffffffffffffffffffffffffffffffffffff1673ffffffffffffffffffffffffffffffffffffffff168152602001908152602001600020819055506144ad81614bbe565b6144b78483614d63565b8773ffffffffffffffffffffffffffffffffffffffff168973ffffffffffffffffffffffffffffffffffffffff167fddf252ad1be2c89b69c2b068fc378daa952ba7f163c4a11628f55a4df523b3ef856040516145149190615b12565b60405180910390a3505050505050505050565b60008060008060008061453987613276565b95509550955095509550955061459787600460008c73ffffffffffffffffffffffffffffffffffffffff1673ffffffffffffffffffffffffffffffffffffffff16815260200190815260200160002054612e9590919063ffffffff16565b600460008b73ffffffffffffffffffffffffffffffffffffffff1673ffffffffffffffffffffffffffffffffffffffff1681526020019081526020016000208190555061462c86600360008c73ffffffffffffffffffffffffffffffffffffffff1673ffffffffffffffffffffffffffffffffffffffff16815260200190815260200160002054612e9590919063ffffffff16565b600360008b73ffffffffffffffffffffffffffffffffffffffff1673ffffffffffffffffffffffffffffffffffffffff168152602001908152602001600020819055506146c183600460008b73ffffffffffffffffffffffffffffffffffffffff1673ffffffffffffffffffffffffffffffffffffffff1681526020019081526020016000205461322190919063ffffffff16565b600460008a73ffffffffffffffffffffffffffffffffffffffff1673ffffffffffffffffffffffffffffffffffffffff1681526020019081526020016000208190555061475685600360008b73ffffffffffffffffffffffffffffffffffffffff1673ffffffffffffffffffffffffffffffffffffffff1681526020019081526020016000205461322190919063ffffffff16565b600360008a73ffffffffffffffffffffffffffffffffffffffff1673ffffffffffffffffffffffffffffffffffffffff168152602001908152602001600020819055506147a281614bbe565b6147ac8483614d63565b8773ffffffffffffffffffffffffffffffffffffffff168973ffffffffffffffffffffffffffffffffffffffff167fddf252ad1be2c89b69c2b068fc378daa952ba7f163c4a11628f55a4df523b3ef856040516148099190615b12565b60405180910390a3505050505050505050565b601054600f81905550601254601181905550565b600061485a606461484c600f5485612c0890919063ffffffff16565b612c7890919063ffffffff16565b9050919050565b600061488b606461487d60115485612c0890919063ffffffff16565b612c7890919063ffffffff16565b9050919050565b6060600267ffffffffffffffff811180156148ac57600080fd5b506040519080825280602002602001820160405280156148db5781602001602082028036833780820191505090505b50905030816000815181106148ec57fe5b602002602001019073ffffffffffffffffffffffffffffffffffffffff16908173ffffffffffffffffffffffffffffffffffffffff16815250507f000000000000000000000000000000000000000000000000000000000000000073ffffffffffffffffffffffffffffffffffffffff1663ad5c46486040518163ffffffff1660e01b815260040160206040518083038186803b15801561498c57600080fd5b505afa1580156149a0573d6000803e3d6000fd5b505050506040513d601f19601f820116820180604052508101906149c49190614e2f565b816001815181106149d157fe5b602002602001019073ffffffffffffffffffffffffffffffffffffffff16908173ffffffffffffffffffffffffffffffffffffffff1681525050614a36307f000000000000000000000000000000000000000000000000000000000000000084612cca565b7f000000000000000000000000000000000000000000000000000000000000000073ffffffffffffffffffffffffffffffffffffffff1663791ac9478360008430426040518663ffffffff1660e01b8152600401614a98959493929190615b2d565b600060405180830381600087803b158015614ab257600080fd5b505af1158015614ac6573d6000803e3d6000fd5b505050505050565b614af9307f000000000000000000000000000000000000000000000000000000000000000084612cca565b7f000000000000000000000000000000000000000000000000000000000000000073ffffffffffffffffffffffffffffffffffffffff1663f305d719823085600080614b43611f2f565b426040518863ffffffff1660e01b8152600401614b6596959493929190615819565b6060604051808303818588803b158015614b7e57600080fd5b505af1158015614b92573d6000803e3d6000fd5b50505050506040513d601f19601f82011682018060405250810190614bb79190614fad565b5050505050565b6000614bc86131f6565b90506000614bdf8284612c0890919063ffffffff16565b9050614c3381600360003073ffffffffffffffffffffffffffffffffffffffff1673ffffffffffffffffffffffffffffffffffffffff1681526020019081526020016000205461322190919063ffffffff16565b600360003073ffffffffffffffffffffffffffffffffffffffff1673ffffffffffffffffffffffffffffffffffffffff16815260200190815260200160002081905550600760003073ffffffffffffffffffffffffffffffffffffffff1673ffffffffffffffffffffffffffffffffffffffff16815260200190815260200160002060009054906101000a900460ff1615614d5e57614d1a83600460003073ffffffffffffffffffffffffffffffffffffffff1673ffffffffffffffffffffffffffffffffffffffff1681526020019081526020016000205461322190919063ffffffff16565b600460003073ffffffffffffffffffffffffffffffffffffffff1673ffffffffffffffffffffffffffffffffffffffff168152602001908152602001600020819055505b505050565b614d7882600a54612e9590919063ffffffff16565b600a81905550614d9381600b5461322190919063ffffffff16565b600b819055505050565b600081359050614dac81615d8b565b92915050565b600081519050614dc181615d8b565b92915050565b600081359050614dd681615da2565b92915050565b600081359050614deb81615db9565b92915050565b600081519050614e0081615db9565b92915050565b600060208284031215614e1857600080fd5b6000614e2684828501614d9d565b91505092915050565b600060208284031215614e4157600080fd5b6000614e4f84828501614db2565b91505092915050565b60008060408385031215614e6b57600080fd5b6000614e7985828601614d9d565b9250506020614e8a85828601614d9d565b9150509250929050565b600080600060608486031215614ea957600080fd5b6000614eb786828701614d9d565b9350506020614ec886828701614d9d565b9250506040614ed986828701614ddc565b9150509250925092565b60008060408385031215614ef657600080fd5b6000614f0485828601614d9d565b9250506020614f1585828601614ddc565b9150509250929050565b600060208284031215614f3157600080fd5b6000614f3f84828501614dc7565b91505092915050565b600060208284031215614f5a57600080fd5b6000614f6884828501614ddc565b91505092915050565b60008060408385031215614f8457600080fd5b6000614f9285828601614ddc565b9250506020614fa385828601614dc7565b9150509250929050565b600080600060608486031215614fc257600080fd5b6000614fd086828701614df1565b9350506020614fe186828701614df1565b9250506040614ff286828701614df1565b9150509250925092565b6000615008838361503a565b60208301905092915050565b61501d81615ca0565b82525050565b61503461502f82615c4b565b615d3f565b82525050565b61504381615c39565b82525050565b61505281615c39565b82525050565b600061506382615be9565b61506d8185615c0c565b935061507883615bd9565b8060005b838110156150a95781516150908882614ffc565b975061509b83615bff565b92505060018101905061507c565b5085935050505092915050565b6150bf81615c5d565b82525050565b6150ce81615cb2565b82525050565b6150dd81615cd6565b82525050565b60006150ee82615bf4565b6150f88185615c28565b9350615108818560208601615d0c565b61511181615d6d565b840191505092915050565b6000615129602183615c28565b91507f4572726f723a206e65787420617661696c61626c65206e6f742072656163686560008301527f64000000000000000000000000000000000000000000000000000000000000006020830152604082019050919050565b600061518f602583615c28565b91507f42455032303a207472616e736665722066726f6d20746865207a65726f20616460008301527f64726573730000000000000000000000000000000000000000000000000000006020830152604082019050919050565b60006151f5602483615c28565b91507f42455032303a20617070726f76652066726f6d20746865207a65726f2061646460008301527f72657373000000000000000000000000000000000000000000000000000000006020830152604082019050919050565b600061525b602a83615c28565b91507f416d6f756e74206d757374206265206c657373207468616e20746f74616c207260008301527f65666c656374696f6e73000000000000000000000000000000000000000000006020830152604082019050919050565b60006152c1602683615c28565b91507f4f776e61626c653a206e6577206f776e657220697320746865207a65726f206160008301527f64647265737300000000000000000000000000000000000000000000000000006020830152604082019050919050565b6000615327601b83615c28565b91507f536166654d6174683a206164646974696f6e206f766572666c6f7700000000006000830152602082019050919050565b6000615367601b83615c28565b91507f4163636f756e7420697320616c7265616479206578636c7564656400000000006000830152602082019050919050565b60006153a7601f83615c28565b91507f416d6f756e74206d757374206265206c657373207468616e20737570706c79006000830152602082019050919050565b60006153e7602883615c28565b91507f5472616e7366657220616d6f756e74206578636565647320746865206d61785460008301527f78416d6f756e742e0000000000000000000000000000000000000000000000006020830152604082019050919050565b600061544d602183615c28565b91507f536166654d6174683a206d756c7469706c69636174696f6e206f766572666c6f60008301527f77000000000000000000000000000000000000000000000000000000000000006020830152604082019050919050565b60006154b3602083615c28565b91507f4f776e61626c653a2063616c6c6572206973206e6f7420746865206f776e65726000830152602082019050919050565b60006154f3602983615c28565b91507f5472616e7366657220616d6f756e74206d75737420626520677265617465722060008301527f7468616e207a65726f00000000000000000000000000000000000000000000006020830152604082019050919050565b6000615559602383615c28565b91507f42455032303a207472616e7366657220746f20746865207a65726f206164647260008301527f65737300000000000000000000000000000000000000000000000000000000006020830152604082019050919050565b60006155bf600083615c1d565b9150600082019050919050565b60006155d9601d83615c28565b91507f4572726f723a2043616e6e6f74207769746864726177207265776172640000006000830152602082019050919050565b6000615619601f83615c28565b91507f436f6e7472616374206973206c6f636b656420756e74696c20372064617973006000830152602082019050919050565b6000615659602c83615c28565b91507f4578636c75646564206164647265737365732063616e6e6f742063616c6c207460008301527f6869732066756e6374696f6e00000000000000000000000000000000000000006020830152604082019050919050565b60006156bf602283615c28565b91507f42455032303a20617070726f766520746f20746865207a65726f20616464726560008301527f73730000000000000000000000000000000000000000000000000000000000006020830152604082019050919050565b6000615725602383615c28565b91507f596f7520646f6e27742068617665207065726d697373696f6e20746f20756e6c60008301527f6f636b00000000000000000000000000000000000000000000000000000000006020830152604082019050919050565b61578781615c89565b82525050565b61579e61579982615c89565b615d63565b82525050565b6157ad81615c93565b82525050565b60006157bf8284615023565b60148201915081905092915050565b60006157d9826155b2565b9150819050919050565b60006157ef828461578d565b60208201915081905092915050565b60006020820190506158136000830184615049565b92915050565b600060c08201905061582e6000830189615014565b61583b602083018861577e565b61584860408301876150d4565b61585560608301866150d4565b6158626080830185615049565b61586f60a083018461577e565b979650505050505050565b600060208201905061588f60008301846150b6565b92915050565b60006020820190506158aa60008301846150c5565b92915050565b600060208201905081810360008301526158ca81846150e3565b905092915050565b600060208201905081810360008301526158eb8161511c565b9050919050565b6000602082019050818103600083015261590b81615182565b9050919050565b6000602082019050818103600083015261592b816151e8565b9050919050565b6000602082019050818103600083015261594b8161524e565b9050919050565b6000602082019050818103600083015261596b816152b4565b9050919050565b6000602082019050818103600083015261598b8161531a565b9050919050565b600060208201905081810360008301526159ab8161535a565b9050919050565b600060208201905081810360008301526159cb8161539a565b9050919050565b600060208201905081810360008301526159eb816153da565b9050919050565b60006020820190508181036000830152615a0b81615440565b9050919050565b60006020820190508181036000830152615a2b816154a6565b9050919050565b60006020820190508181036000830152615a4b816154e6565b9050919050565b60006020820190508181036000830152615a6b8161554c565b9050919050565b60006020820190508181036000830152615a8b816155cc565b9050919050565b60006020820190508181036000830152615aab8161560c565b9050919050565b60006020820190508181036000830152615acb8161564c565b9050919050565b60006020820190508181036000830152615aeb816156b2565b9050919050565b60006020820190508181036000830152615b0b81615718565b9050919050565b6000602082019050615b27600083018461577e565b92915050565b600060a082019050615b42600083018861577e565b615b4f60208301876150d4565b8181036040830152615b618186615058565b9050615b706060830185615014565b615b7d608083018461577e565b9695505050505050565b6000606082019050615b9c600083018661577e565b615ba9602083018561577e565b615bb6604083018461577e565b949350505050565b6000602082019050615bd360008301846157a4565b92915050565b6000819050602082019050919050565b600081519050919050565b600081519050919050565b6000602082019050919050565b600082825260208201905092915050565b600081905092915050565b600082825260208201905092915050565b6000615c4482615c69565b9050919050565b6000615c5682615c69565b9050919050565b60008115159050919050565b600073ffffffffffffffffffffffffffffffffffffffff82169050919050565b6000819050919050565b600060ff82169050919050565b6000615cab82615ce8565b9050919050565b6000615cbd82615cc4565b9050919050565b6000615ccf82615c69565b9050919050565b6000615ce182615c89565b9050919050565b6000615cf382615cfa565b9050919050565b6000615d0582615c69565b9050919050565b60005b83811015615d2a578082015181840152602081019050615d0f565b83811115615d39576000848401525b50505050565b6000615d4a82615d51565b9050919050565b6000615d5c82615d7e565b9050919050565b6000819050919050565b6000601f19601f8301169050919050565b60008160601b9050919050565b615d9481615c39565b8114615d9f57600080fd5b50565b615dab81615c5d565b8114615db657600080fd5b50565b615dc281615c89565b8114615dcd57600080fd5b5056fe42455032303a207472616e7366657220616d6f756e74206578636565647320616c6c6f77616e636542455032303a2064656372656173656420616c6c6f77616e63652062656c6f77207a65726fa2646970667358221220592ba49584db2d361ee59d31e7d41fc7e2bcf488660b9afcb79db0ac49a0af3764736f6c63430006080033",
  "linkReferences": {},
  "deployedLinkReferences": {}
}