{
  "_format": "hh-sol-artifact-1",
  "contractName": "MoonRatAirdrop",
  "sourceName": "contracts/distribution/MoonRatAirdrop.sol",
  "abi": [
    {
      "inputs": [
        {
          "internalType": "address",
          "name": "_tokenInstance",
          "type": "address"
        },
        {
          "internalType": "uint256",
          "name": "_claimableAmount",
          "type": "uint256"
        },
        {
          "internalType": "uint256",
          "name": "_nextPeriodWaitTime",
          "type": "uint256"
        },
        {
          "internalType": "uint256",
          "name": "_bonusMinRate",
          "type": "uint256"
        },
        {
          "internalType": "uint256",
          "name": "_bonusMaxRate",
          "type": "uint256"
        },
        {
          "internalType": "address",
          "name": "routerAddress",
          "type": "address"
        }
      ],
      "stateMutability": "nonpayable",
      "type": "constructor"
    },
    {
      "inputs": [],
      "name": "claimableAmount",
      "outputs": [
        {
          "internalType": "uint256",
          "name": "",
          "type": "uint256"
        }
      ],
      "stateMutability": "view",
      "type": "function"
    },
    {
      "inputs": [
        {
          "internalType": "uint256",
          "name": "amountSent",
          "type": "uint256"
        }
      ],
      "name": "emergencyWithdraw",
      "outputs": [],
      "stateMutability": "nonpayable",
      "type": "function"
    },
    {
      "inputs": [],
      "name": "pancakeRouter",
      "outputs": [
        {
          "internalType": "contract IPancakeRouter02",
          "name": "",
          "type": "address"
        }
      ],
      "stateMutability": "view",
      "type": "function"
    },
    {
      "inputs": [
        {
          "internalType": "address",
          "name": "",
          "type": "address"
        }
      ],
      "name": "participantWaitTime",
      "outputs": [
        {
          "internalType": "uint256",
          "name": "",
          "type": "uint256"
        }
      ],
      "stateMutability": "view",
      "type": "function"
    },
    {
      "inputs": [
        {
          "internalType": "address",
          "name": "who",
          "type": "address"
        }
      ],
      "name": "participantWaitTimeOf",
      "outputs": [
        {
          "internalType": "uint256",
          "name": "",
          "type": "uint256"
        }
      ],
      "stateMutability": "view",
      "type": "function"
    },
    {
      "inputs": [],
      "name": "primaryToken",
      "outputs": [
        {
          "internalType": "address",
          "name": "",
          "type": "address"
        }
      ],
      "stateMutability": "view",
      "type": "function"
    },
    {
      "inputs": [],
      "name": "requestTokens",
      "outputs": [],
      "stateMutability": "payable",
      "type": "function"
    },
    {
      "inputs": [
        {
          "internalType": "uint256",
          "name": "from",
          "type": "uint256"
        },
        {
          "internalType": "uint256",
          "name": "to",
          "type": "uint256"
        }
      ],
      "name": "setBonusRate",
      "outputs": [],
      "stateMutability": "nonpayable",
      "type": "function"
    },
    {
      "inputs": [
        {
          "internalType": "uint256",
          "name": "_claimableAmount",
          "type": "uint256"
        }
      ],
      "name": "setClaimableAmount",
      "outputs": [],
      "stateMutability": "nonpayable",
      "type": "function"
    },
    {
      "inputs": [
        {
          "internalType": "bool",
          "name": "value",
          "type": "bool"
        }
      ],
      "name": "setEnableTaxFee",
      "outputs": [],
      "stateMutability": "nonpayable",
      "type": "function"
    },
    {
      "inputs": [
        {
          "internalType": "uint256",
          "name": "_nextPeriodWaitTime",
          "type": "uint256"
        }
      ],
      "name": "setNextPeriodWaitTime",
      "outputs": [],
      "stateMutability": "nonpayable",
      "type": "function"
    },
    {
      "inputs": [
        {
          "internalType": "address",
          "name": "_tokenInstance",
          "type": "address"
        }
      ],
      "name": "setPrimaryToken",
      "outputs": [],
      "stateMutability": "nonpayable",
      "type": "function"
    },
    {
      "inputs": [
        {
          "internalType": "address",
          "name": "routerAddress",
          "type": "address"
        }
      ],
      "name": "setRouter",
      "outputs": [],
      "stateMutability": "nonpayable",
      "type": "function"
    },
    {
      "inputs": [],
      "name": "tokenInstance",
      "outputs": [
        {
          "internalType": "contract ERC20UpgradeSafe",
          "name": "",
          "type": "address"
        }
      ],
      "stateMutability": "view",
      "type": "function"
    }
  ],
  "bytecode": "0x60806040526001600760146101000a81548160ff0219169083151502179055503480156200002c57600080fd5b5060405162002c0038038062002c00833981810160405281019062000052919062000635565b33600360006101000a81548173ffffffffffffffffffffffffffffffffffffffff021916908373ffffffffffffffffffffffffffffffffffffffff160217905550620000a486620000f560201b60201c565b620000b5856200027f60201b60201c565b620000c6846200036260201b60201c565b620000d883836200044660201b60201c565b620000e9816200053060201b60201c565b50505050505062000b14565b3373ffffffffffffffffffffffffffffffffffffffff16600360009054906101000a900473ffffffffffffffffffffffffffffffffffffffff1673ffffffffffffffffffffffffffffffffffffffff161462000188576040517f08c379a00000000000000000000000000000000000000000000000000000000081526004016200017f90620009c5565b60405180910390fd5b600073ffffffffffffffffffffffffffffffffffffffff168173ffffffffffffffffffffffffffffffffffffffff161415620001fb576040517f08c379a0000000000000000000000000000000000000000000000000000000008152600401620001f290620009e7565b60405180910390fd5b806000806101000a81548173ffffffffffffffffffffffffffffffffffffffff021916908373ffffffffffffffffffffffffffffffffffffffff16021790555080600860006101000a81548173ffffffffffffffffffffffffffffffffffffffff021916908373ffffffffffffffffffffffffffffffffffffffff16021790555050565b3373ffffffffffffffffffffffffffffffffffffffff16600360009054906101000a900473ffffffffffffffffffffffffffffffffffffffff1673ffffffffffffffffffffffffffffffffffffffff161462000312576040517f08c379a0000000000000000000000000000000000000000000000000000000008152600401620003099062000a4d565b60405180910390fd5b6000811162000358576040517f08c379a00000000000000000000000000000000000000000000000000000000081526004016200034f9062000a09565b60405180910390fd5b8060018190555050565b3373ffffffffffffffffffffffffffffffffffffffff16600360009054906101000a900473ffffffffffffffffffffffffffffffffffffffff1673ffffffffffffffffffffffffffffffffffffffff1614620003f5576040517f08c379a0000000000000000000000000000000000000000000000000000000008152600401620003ec90620009a3565b60405180910390fd5b603c8110156200043c576040517f08c379a0000000000000000000000000000000000000000000000000000000008152600401620004339062000a6f565b60405180910390fd5b8060048190555050565b3373ffffffffffffffffffffffffffffffffffffffff16600360009054906101000a900473ffffffffffffffffffffffffffffffffffffffff1673ffffffffffffffffffffffffffffffffffffffff1614620004d9576040517f08c379a0000000000000000000000000000000000000000000000000000000008152600401620004d090620009c5565b60405180910390fd5b8082106200051e576040517f08c379a0000000000000000000000000000000000000000000000000000000008152600401620005159062000a2b565b60405180910390fd5b81600581905550806006819055505050565b3373ffffffffffffffffffffffffffffffffffffffff16600360009054906101000a900473ffffffffffffffffffffffffffffffffffffffff1673ffffffffffffffffffffffffffffffffffffffff1614620005c3576040517f08c379a0000000000000000000000000000000000000000000000000000000008152600401620005ba90620009c5565b60405180910390fd5b80600760006101000a81548173ffffffffffffffffffffffffffffffffffffffff021916908373ffffffffffffffffffffffffffffffffffffffff16021790555050565b600081519050620006188162000ae0565b92915050565b6000815190506200062f8162000afa565b92915050565b60008060008060008060c087890312156200064f57600080fd5b60006200065f89828a0162000607565b96505060206200067289828a016200061e565b95505060406200068589828a016200061e565b94505060606200069889828a016200061e565b9350506080620006ab89828a016200061e565b92505060a0620006be89828a0162000607565b9150509295509295509295565b6000620006da60268362000a91565b91507f4572726f723a206f6e6c79206f776e65722063616e2061646a7573742077616960008301527f742074696d6500000000000000000000000000000000000000000000000000006020830152604082019050919050565b60006200074260278362000a91565b91507f4572726f723a206f6e6c79206f776e65722063616e2061646a75737420626f6e60008301527f75732072617465000000000000000000000000000000000000000000000000006020830152604082019050919050565b6000620007aa60258362000a91565b91507f4572726f723a2063616e6e6f742061646420746f6b656e206174204e6f57686560008301527f7265203a290000000000000000000000000000000000000000000000000000006020830152604082019050919050565b60006200081260268362000a91565b91507f4572726f723a20636c61696d61626c6520616d6f756e742063616e6e6f74206260008301527f65207a65726f00000000000000000000000000000000000000000000000000006020830152604082019050919050565b60006200087a602c8362000a91565b91507f4572726f723a2066726f6d2076616c7565206d757374206265206c657373207460008301527f68616e20746f2076616c756500000000000000000000000000000000000000006020830152604082019050919050565b6000620008e2602d8362000a91565b91507f4572726f723a206f6e6c79206f776e65722063616e2061646a75737420636c6160008301527f696d61626c6520616d6f756e74000000000000000000000000000000000000006020830152604082019050919050565b60006200094a602d8362000a91565b91507f4572726f723a20576169742074696d652073686f756c64206265206174206c6560008301527f6173742031206d696e75746573000000000000000000000000000000000000006020830152604082019050919050565b60006020820190508181036000830152620009be81620006cb565b9050919050565b60006020820190508181036000830152620009e08162000733565b9050919050565b6000602082019050818103600083015262000a02816200079b565b9050919050565b6000602082019050818103600083015262000a248162000803565b9050919050565b6000602082019050818103600083015262000a46816200086b565b9050919050565b6000602082019050818103600083015262000a6881620008d3565b9050919050565b6000602082019050818103600083015262000a8a816200093b565b9050919050565b600082825260208201905092915050565b600062000aaf8262000ab6565b9050919050565b600073ffffffffffffffffffffffffffffffffffffffff82169050919050565b6000819050919050565b62000aeb8162000aa2565b811462000af757600080fd5b50565b62000b058162000ad6565b811462000b1157600080fd5b50565b6120dc8062000b246000396000f3fe6080604052600436106100dd5760003560e01c80638e7f15da1161007f578063a556f84611610059578063a556f84614610289578063a97cb8a7146102b4578063c0d78655146102dd578063c21ebd0714610306576100dd565b80638e7f15da146101e457806391ac094c146102215780639dd463e31461024c576100dd565b806354df144d116100bb57806354df144d1461013e5780636408406f14610167578063658030b3146101905780636691a7e7146101bb576100dd565b8063359cf2b7146100e25780634fabee2f146100ec5780635312ea8e14610115575b600080fd5b6100ea610331565b005b3480156100f857600080fd5b50610113600480360381019061010e919061151f565b61063c565b005b34801561012157600080fd5b5061013c60048036038101906101379190611571565b6106e9565b005b34801561014a57600080fd5b5061016560048036038101906101609190611571565b61082b565b005b34801561017357600080fd5b5061018e600480360381019061018991906114cd565b610908565b005b34801561019c57600080fd5b506101a5610a8c565b6040516101b29190611c64565b60405180910390f35b3480156101c757600080fd5b506101e260048036038101906101dd9190611571565b610ab1565b005b3480156101f057600080fd5b5061020b600480360381019061020691906114cd565b610b8f565b6040516102189190611e88565b60405180910390f35b34801561022d57600080fd5b50610236610ba7565b6040516102439190611bf7565b60405180910390f35b34801561025857600080fd5b50610273600480360381019061026e91906114cd565b610bcd565b6040516102809190611e88565b60405180910390f35b34801561029557600080fd5b5061029e610c16565b6040516102ab9190611e88565b60405180910390f35b3480156102c057600080fd5b506102db60048036038101906102d691906115c3565b610c1c565b005b3480156102e957600080fd5b5061030460048036038101906102ff91906114cd565b610d00565b005b34801561031257600080fd5b5061031b610dd4565b6040516103289190611c7f565b60405180910390f35b6000341015610375576040517f08c379a000000000000000000000000000000000000000000000000000000000815260040161036c90611e08565b60405180910390fd5b600061037f610dfa565b905060006103ab606461039d84600154610e2990919063ffffffff16565b610e9990919063ffffffff16565b90506000816000809054906101000a900473ffffffffffffffffffffffffffffffffffffffff1673ffffffffffffffffffffffffffffffffffffffff166370a08231306040518263ffffffff1660e01b815260040161040a9190611bf7565b60206040518083038186803b15801561042257600080fd5b505afa158015610436573d6000803e3d6000fd5b505050506040513d601f19601f8201168201806040525081019061045a919061159a565b039050600081136104a0576040517f08c379a000000000000000000000000000000000000000000000000000000000815260040161049790611e28565b60405180910390fd5b42600260003373ffffffffffffffffffffffffffffffffffffffff1673ffffffffffffffffffffffffffffffffffffffff168152602001908152602001600020541115610522576040517f08c379a000000000000000000000000000000000000000000000000000000000815260040161051990611d48565b60405180910390fd5b6000809054906101000a900473ffffffffffffffffffffffffffffffffffffffff1673ffffffffffffffffffffffffffffffffffffffff1663a9059cbb33846040518363ffffffff1660e01b815260040161057e929190611c12565b602060405180830381600087803b15801561059857600080fd5b505af11580156105ac573d6000803e3d6000fd5b505050506040513d601f19601f820116820180604052508101906105d09190611548565b506004544201600260003373ffffffffffffffffffffffffffffffffffffffff1673ffffffffffffffffffffffffffffffffffffffff16815260200190815260200160002081905550600760149054906101000a900460ff161561063757610636610ee3565b5b505050565b3373ffffffffffffffffffffffffffffffffffffffff16600360009054906101000a900473ffffffffffffffffffffffffffffffffffffffff1673ffffffffffffffffffffffffffffffffffffffff16146106cc576040517f08c379a00000000000000000000000000000000000000000000000000000000081526004016106c390611d28565b60405180910390fd5b80600760146101000a81548160ff02191690831515021790555050565b3373ffffffffffffffffffffffffffffffffffffffff16600360009054906101000a900473ffffffffffffffffffffffffffffffffffffffff1673ffffffffffffffffffffffffffffffffffffffff1614610779576040517f08c379a000000000000000000000000000000000000000000000000000000000815260040161077090611da8565b60405180910390fd5b6000809054906101000a900473ffffffffffffffffffffffffffffffffffffffff1673ffffffffffffffffffffffffffffffffffffffff1663a9059cbb33836040518363ffffffff1660e01b81526004016107d5929190611c12565b602060405180830381600087803b1580156107ef57600080fd5b505af1158015610803573d6000803e3d6000fd5b505050506040513d601f19601f820116820180604052508101906108279190611548565b5050565b3373ffffffffffffffffffffffffffffffffffffffff16600360009054906101000a900473ffffffffffffffffffffffffffffffffffffffff1673ffffffffffffffffffffffffffffffffffffffff16146108bb576040517f08c379a00000000000000000000000000000000000000000000000000000000081526004016108b290611e48565b60405180910390fd5b600081116108fe576040517f08c379a00000000000000000000000000000000000000000000000000000000081526004016108f590611dc8565b60405180910390fd5b8060018190555050565b3373ffffffffffffffffffffffffffffffffffffffff16600360009054906101000a900473ffffffffffffffffffffffffffffffffffffffff1673ffffffffffffffffffffffffffffffffffffffff1614610998576040517f08c379a000000000000000000000000000000000000000000000000000000000815260040161098f90611d28565b60405180910390fd5b600073ffffffffffffffffffffffffffffffffffffffff168173ffffffffffffffffffffffffffffffffffffffff161415610a08576040517f08c379a00000000000000000000000000000000000000000000000000000000081526004016109ff90611d68565b60405180910390fd5b806000806101000a81548173ffffffffffffffffffffffffffffffffffffffff021916908373ffffffffffffffffffffffffffffffffffffffff16021790555080600860006101000a81548173ffffffffffffffffffffffffffffffffffffffff021916908373ffffffffffffffffffffffffffffffffffffffff16021790555050565b6000809054906101000a900473ffffffffffffffffffffffffffffffffffffffff1681565b3373ffffffffffffffffffffffffffffffffffffffff16600360009054906101000a900473ffffffffffffffffffffffffffffffffffffffff1673ffffffffffffffffffffffffffffffffffffffff1614610b41576040517f08c379a0000000000000000000000000000000000000000000000000000000008152600401610b3890611d08565b60405180910390fd5b603c811015610b85576040517f08c379a0000000000000000000000000000000000000000000000000000000008152600401610b7c90611e68565b60405180910390fd5b8060048190555050565b60026020528060005260406000206000915090505481565b600860009054906101000a900473ffffffffffffffffffffffffffffffffffffffff1681565b6000600260008373ffffffffffffffffffffffffffffffffffffffff1673ffffffffffffffffffffffffffffffffffffffff168152602001908152602001600020549050919050565b60015481565b3373ffffffffffffffffffffffffffffffffffffffff16600360009054906101000a900473ffffffffffffffffffffffffffffffffffffffff1673ffffffffffffffffffffffffffffffffffffffff1614610cac576040517f08c379a0000000000000000000000000000000000000000000000000000000008152600401610ca390611d28565b60405180910390fd5b808210610cee576040517f08c379a0000000000000000000000000000000000000000000000000000000008152600401610ce590611de8565b60405180910390fd5b81600581905550806006819055505050565b3373ffffffffffffffffffffffffffffffffffffffff16600360009054906101000a900473ffffffffffffffffffffffffffffffffffffffff1673ffffffffffffffffffffffffffffffffffffffff1614610d90576040517f08c379a0000000000000000000000000000000000000000000000000000000008152600401610d8790611d28565b60405180910390fd5b80600760006101000a81548173ffffffffffffffffffffffffffffffffffffffff021916908373ffffffffffffffffffffffffffffffffffffffff16021790555050565b600760009054906101000a900473ffffffffffffffffffffffffffffffffffffffff1681565b600080610e20603260643373ffffffffffffffffffffffffffffffffffffffff16611288565b90508091505090565b600080831415610e3c5760009050610e93565b6000828402905082848281610e4d57fe5b0414610e8e576040517f08c379a0000000000000000000000000000000000000000000000000000000008152600401610e8590611d88565b60405180910390fd5b809150505b92915050565b6000610edb83836040518060400160405280601a81526020017f536166654d6174683a206469766973696f6e206279207a65726f000000000000815250611348565b905092915050565b6060600267ffffffffffffffff81118015610efd57600080fd5b50604051908082528060200260200182016040528015610f2c5781602001602082028036833780820191505090505b509050600760009054906101000a900473ffffffffffffffffffffffffffffffffffffffff1673ffffffffffffffffffffffffffffffffffffffff1663ad5c46486040518163ffffffff1660e01b815260040160206040518083038186803b158015610f9757600080fd5b505afa158015610fab573d6000803e3d6000fd5b505050506040513d601f19601f82011682018060405250810190610fcf91906114f6565b81600081518110610fdc57fe5b602002602001019073ffffffffffffffffffffffffffffffffffffffff16908173ffffffffffffffffffffffffffffffffffffffff1681525050600860009054906101000a900473ffffffffffffffffffffffffffffffffffffffff168160018151811061104657fe5b602002602001019073ffffffffffffffffffffffffffffffffffffffff16908173ffffffffffffffffffffffffffffffffffffffff168152505060003490508160008151811061109257fe5b602002602001015173ffffffffffffffffffffffffffffffffffffffff1663095ea7b330836040518363ffffffff1660e01b81526004016110d4929190611c3b565b602060405180830381600087803b1580156110ee57600080fd5b505af1158015611102573d6000803e3d6000fd5b505050506040513d601f19601f820116820180604052508101906111269190611548565b508160008151811061113457fe5b602002602001015173ffffffffffffffffffffffffffffffffffffffff1663095ea7b3600760009054906101000a900473ffffffffffffffffffffffffffffffffffffffff16836040518363ffffffff1660e01b8152600401611198929190611c3b565b602060405180830381600087803b1580156111b257600080fd5b505af11580156111c6573d6000803e3d6000fd5b505050506040513d601f19601f820116820180604052508101906111ea9190611548565b50600760009054906101000a900473ffffffffffffffffffffffffffffffffffffffff1673ffffffffffffffffffffffffffffffffffffffff1663b6f9de95826000853061016842016040518663ffffffff1660e01b81526004016112529493929190611c9a565b6000604051808303818588803b15801561126b57600080fd5b505af115801561127f573d6000803e3d6000fd5b50505050505050565b6000808243423360405160200161129f9190611bc1565b6040516020818303038152906040528051906020012060001c816112bf57fe5b044542416040516020016112d39190611bc1565b6040516020818303038152906040528051906020012060001c816112f357fe5b04444201010101010160405160200161130c9190611bdc565b6040516020818303038152906040528051906020012060001c90508461133d868603836113a990919063ffffffff16565b019150509392505050565b6000808311829061138f576040517f08c379a00000000000000000000000000000000000000000000000000000000081526004016113869190611ce6565b60405180910390fd5b50600083858161139b57fe5b049050809150509392505050565b60006113eb83836040518060400160405280601881526020017f536166654d6174683a206d6f64756c6f206279207a65726f00000000000000008152506113f3565b905092915050565b600080831415829061143b576040517f08c379a00000000000000000000000000000000000000000000000000000000081526004016114329190611ce6565b60405180910390fd5b5082848161144557fe5b0690509392505050565b60008135905061145e81612061565b92915050565b60008151905061147381612061565b92915050565b60008135905061148881612078565b92915050565b60008151905061149d81612078565b92915050565b6000813590506114b28161208f565b92915050565b6000815190506114c78161208f565b92915050565b6000602082840312156114df57600080fd5b60006114ed8482850161144f565b91505092915050565b60006020828403121561150857600080fd5b600061151684828501611464565b91505092915050565b60006020828403121561153157600080fd5b600061153f84828501611479565b91505092915050565b60006020828403121561155a57600080fd5b60006115688482850161148e565b91505092915050565b60006020828403121561158357600080fd5b6000611591848285016114a3565b91505092915050565b6000602082840312156115ac57600080fd5b60006115ba848285016114b8565b91505092915050565b600080604083850312156115d657600080fd5b60006115e4858286016114a3565b92505060206115f5858286016114a3565b9150509250929050565b600061160b838361163d565b60208301905092915050565b61162081611f52565b82525050565b61163761163282611f0a565b612015565b82525050565b61164681611ef8565b82525050565b61165581611ef8565b82525050565b600061166682611eb3565b6116708185611ed6565b935061167b83611ea3565b8060005b838110156116ac57815161169388826115ff565b975061169e83611ec9565b92505060018101905061167f565b5085935050505092915050565b6116c281611f64565b82525050565b6116d181611f88565b82525050565b6116e081611fac565b82525050565b60006116f182611ebe565b6116fb8185611ee7565b935061170b818560208601611fe2565b61171481612043565b840191505092915050565b600061172c602683611ee7565b91507f4572726f723a206f6e6c79206f776e65722063616e2061646a7573742077616960008301527f742074696d6500000000000000000000000000000000000000000000000000006020830152604082019050919050565b6000611792602783611ee7565b91507f4572726f723a206f6e6c79206f776e65722063616e2061646a75737420626f6e60008301527f75732072617465000000000000000000000000000000000000000000000000006020830152604082019050919050565b60006117f8602b83611ee7565b91507f4572726f723a207061727469636970616e7420776169742074696d652069732060008301527f6e6f7420726561636865640000000000000000000000000000000000000000006020830152604082019050919050565b600061185e602583611ee7565b91507f4572726f723a2063616e6e6f742061646420746f6b656e206174204e6f57686560008301527f7265203a290000000000000000000000000000000000000000000000000000006020830152604082019050919050565b60006118c4602183611ee7565b91507f536166654d6174683a206d756c7469706c69636174696f6e206f766572666c6f60008301527f77000000000000000000000000000000000000000000000000000000000000006020830152604082019050919050565b600061192a602b83611ee7565b91507f4572726f723a206f6e6c79206f776e65722063616e2068616e646c652074686960008301527f73206f7065726174696f6e0000000000000000000000000000000000000000006020830152604082019050919050565b6000611990602683611ee7565b91507f4572726f723a20636c61696d61626c6520616d6f756e742063616e6e6f74206260008301527f65207a65726f00000000000000000000000000000000000000000000000000006020830152604082019050919050565b60006119f6602c83611ee7565b91507f4572726f723a2066726f6d2076616c7565206d757374206265206c657373207460008301527f68616e20746f2076616c756500000000000000000000000000000000000000006020830152604082019050919050565b6000611a5c601f83611ee7565b91507f4572726f723a20656d70747920746178206973206e6f7420616c6c6f776564006000830152602082019050919050565b6000611a9c602083611ee7565b91507f4572726f723a20636f6e74726163742066756e642069732065786365656465646000830152602082019050919050565b6000611adc602d83611ee7565b91507f4572726f723a206f6e6c79206f776e65722063616e2061646a75737420636c6160008301527f696d61626c6520616d6f756e74000000000000000000000000000000000000006020830152604082019050919050565b6000611b42602d83611ee7565b91507f4572726f723a20576169742074696d652073686f756c64206265206174206c6560008301527f6173742031206d696e75746573000000000000000000000000000000000000006020830152604082019050919050565b611ba481611f48565b82525050565b611bbb611bb682611f48565b612039565b82525050565b6000611bcd8284611626565b60148201915081905092915050565b6000611be88284611baa565b60208201915081905092915050565b6000602082019050611c0c600083018461164c565b92915050565b6000604082019050611c276000830185611617565b611c346020830184611b9b565b9392505050565b6000604082019050611c50600083018561164c565b611c5d6020830184611b9b565b9392505050565b6000602082019050611c7960008301846116b9565b92915050565b6000602082019050611c9460008301846116c8565b92915050565b6000608082019050611caf60008301876116d7565b8181036020830152611cc1818661165b565b9050611cd0604083018561164c565b611cdd6060830184611b9b565b95945050505050565b60006020820190508181036000830152611d0081846116e6565b905092915050565b60006020820190508181036000830152611d218161171f565b9050919050565b60006020820190508181036000830152611d4181611785565b9050919050565b60006020820190508181036000830152611d61816117eb565b9050919050565b60006020820190508181036000830152611d8181611851565b9050919050565b60006020820190508181036000830152611da1816118b7565b9050919050565b60006020820190508181036000830152611dc18161191d565b9050919050565b60006020820190508181036000830152611de181611983565b9050919050565b60006020820190508181036000830152611e01816119e9565b9050919050565b60006020820190508181036000830152611e2181611a4f565b9050919050565b60006020820190508181036000830152611e4181611a8f565b9050919050565b60006020820190508181036000830152611e6181611acf565b9050919050565b60006020820190508181036000830152611e8181611b35565b9050919050565b6000602082019050611e9d6000830184611b9b565b92915050565b6000819050602082019050919050565b600081519050919050565b600081519050919050565b6000602082019050919050565b600082825260208201905092915050565b600082825260208201905092915050565b6000611f0382611f28565b9050919050565b6000611f1582611f28565b9050919050565b60008115159050919050565b600073ffffffffffffffffffffffffffffffffffffffff82169050919050565b6000819050919050565b6000611f5d82611fbe565b9050919050565b6000611f6f82611f76565b9050919050565b6000611f8182611f28565b9050919050565b6000611f9382611f9a565b9050919050565b6000611fa582611f28565b9050919050565b6000611fb782611f48565b9050919050565b6000611fc982611fd0565b9050919050565b6000611fdb82611f28565b9050919050565b60005b83811015612000578082015181840152602081019050611fe5565b8381111561200f576000848401525b50505050565b600061202082612027565b9050919050565b600061203282612054565b9050919050565b6000819050919050565b6000601f19601f8301169050919050565b60008160601b9050919050565b61206a81611ef8565b811461207557600080fd5b50565b61208181611f1c565b811461208c57600080fd5b50565b61209881611f48565b81146120a357600080fd5b5056fea2646970667358221220d38d0210bd8e5a374760b82d498cb305459e5287ac3de0148fc6bb4f9dcaabab64736f6c63430006080033",
  "linkReferences": {},
  "deployedLinkReferences": {}
}