{
  "_format": "hh-sol-artifact-1",
  "contractName": "PancakeHelper",
  "sourceName": "contracts/lib/PancakeHelper.sol",
  "abi": [
    {
      "inputs": [
        {
          "internalType": "address",
          "name": "tokenAddress",
          "type": "address"
        },
        {
          "internalType": "address payable",
          "name": "routerAddress",
          "type": "address"
        }
      ],
      "stateMutability": "nonpayable",
      "type": "constructor"
    },
    {
      "stateMutability": "payable",
      "type": "fallback"
    },
    {
      "inputs": [
        {
          "internalType": "bool",
          "name": "createPair",
          "type": "bool"
        }
      ],
      "name": "addLiquidity",
      "outputs": [],
      "stateMutability": "nonpayable",
      "type": "function"
    },
    {
      "inputs": [],
      "name": "emergencyWithdraw",
      "outputs": [],
      "stateMutability": "nonpayable",
      "type": "function"
    },
    {
      "inputs": [],
      "name": "pancakePair",
      "outputs": [
        {
          "internalType": "address",
          "name": "",
          "type": "address"
        }
      ],
      "stateMutability": "view",
      "type": "function"
    },
    {
      "inputs": [],
      "name": "pancakeRouter",
      "outputs": [
        {
          "internalType": "contract IPancakeRouter02",
          "name": "",
          "type": "address"
        }
      ],
      "stateMutability": "view",
      "type": "function"
    },
    {
      "inputs": [
        {
          "internalType": "address",
          "name": "newOwner",
          "type": "address"
        }
      ],
      "name": "setOwner",
      "outputs": [],
      "stateMutability": "nonpayable",
      "type": "function"
    },
    {
      "inputs": [
        {
          "internalType": "address",
          "name": "tokenAddress",
          "type": "address"
        }
      ],
      "name": "setPrimaryToken",
      "outputs": [],
      "stateMutability": "nonpayable",
      "type": "function"
    },
    {
      "inputs": [
        {
          "internalType": "address payable",
          "name": "routerAddress",
          "type": "address"
        }
      ],
      "name": "setRouter",
      "outputs": [],
      "stateMutability": "nonpayable",
      "type": "function"
    },
    {
      "inputs": [],
      "name": "swapBNBForTokens",
      "outputs": [],
      "stateMutability": "payable",
      "type": "function"
    },
    {
      "inputs": [],
      "name": "swapTokensForBNB",
      "outputs": [],
      "stateMutability": "nonpayable",
      "type": "function"
    },
    {
      "inputs": [],
      "name": "tokenInstance",
      "outputs": [
        {
          "internalType": "contract ERC20UpgradeSafe",
          "name": "",
          "type": "address"
        }
      ],
      "stateMutability": "view",
      "type": "function"
    }
  ],
  "bytecode": "0x60806040523480156200001157600080fd5b506040516200294638038062002946833981810160405281019062000037919062000331565b33600460006101000a81548173ffffffffffffffffffffffffffffffffffffffff021916908373ffffffffffffffffffffffffffffffffffffffff1602179055506200008982620000a260201b60201c565b6200009a816200022d60201b60201c565b505062000513565b600460009054906101000a900473ffffffffffffffffffffffffffffffffffffffff1673ffffffffffffffffffffffffffffffffffffffff163373ffffffffffffffffffffffffffffffffffffffff161462000135576040517f08c379a00000000000000000000000000000000000000000000000000000000081526004016200012c9062000442565b60405180910390fd5b600073ffffffffffffffffffffffffffffffffffffffff168173ffffffffffffffffffffffffffffffffffffffff161415620001a8576040517f08c379a00000000000000000000000000000000000000000000000000000000081526004016200019f9062000464565b60405180910390fd5b80600260006101000a81548173ffffffffffffffffffffffffffffffffffffffff021916908373ffffffffffffffffffffffffffffffffffffffff16021790555080600360006101000a81548173ffffffffffffffffffffffffffffffffffffffff021916908373ffffffffffffffffffffffffffffffffffffffff16021790555050565b600460009054906101000a900473ffffffffffffffffffffffffffffffffffffffff1673ffffffffffffffffffffffffffffffffffffffff163373ffffffffffffffffffffffffffffffffffffffff1614620002c0576040517f08c379a0000000000000000000000000000000000000000000000000000000008152600401620002b79062000442565b60405180910390fd5b806000806101000a81548173ffffffffffffffffffffffffffffffffffffffff021916908373ffffffffffffffffffffffffffffffffffffffff16021790555050565b6000815190506200031481620004df565b92915050565b6000815190506200032b81620004f9565b92915050565b600080604083850312156200034557600080fd5b6000620003558582860162000303565b925050602062000368858286016200031a565b9150509250929050565b600062000381602e8362000486565b91507f4572726f723a204f6e6c79206f776e65722063616e2068616e646c652074686960008301527f73206f7065726174696f6e203b290000000000000000000000000000000000006020830152604082019050919050565b6000620003e960258362000486565b91507f4572726f723a2063616e6e6f742061646420746f6b656e206174204e6f57686560008301527f7265203a290000000000000000000000000000000000000000000000000000006020830152604082019050919050565b600060208201905081810360008301526200045d8162000372565b9050919050565b600060208201905081810360008301526200047f81620003da565b9050919050565b600082825260208201905092915050565b6000620004a482620004bf565b9050919050565b6000620004b882620004bf565b9050919050565b600073ffffffffffffffffffffffffffffffffffffffff82169050919050565b620004ea8162000497565b8114620004f657600080fd5b50565b6200050481620004ab565b81146200051057600080fd5b50565b61242380620005236000396000f3fe6080604052600436106100955760003560e01c8063b8c9d25c11610059578063b8c9d25c14610136578063c0d7865514610161578063c21ebd071461018a578063da620cd7146101b5578063db2e21bc146101de57610096565b806313af4035146100985780634af1f461146100c15780636408406f146100d8578063658030b314610101578063b70fd1391461012c57610096565b5b005b3480156100a457600080fd5b506100bf60048036038101906100ba9190611b4f565b6101f5565b005b3480156100cd57600080fd5b506100d66102c9565b005b3480156100e457600080fd5b506100ff60048036038101906100fa9190611b4f565b6107cc565b005b34801561010d57600080fd5b50610116610951565b6040516101239190612085565b60405180910390f35b610134610977565b005b34801561014257600080fd5b5061014b610da9565b6040516101589190611f73565b60405180910390f35b34801561016d57600080fd5b5061018860048036038101906101839190611ba1565b610dcf565b005b34801561019657600080fd5b5061019f610ea2565b6040516101ac91906120a0565b60405180910390f35b3480156101c157600080fd5b506101dc60048036038101906101d79190611bca565b610ec7565b005b3480156101ea57600080fd5b506101f361171d565b005b600460009054906101000a900473ffffffffffffffffffffffffffffffffffffffff1673ffffffffffffffffffffffffffffffffffffffff163373ffffffffffffffffffffffffffffffffffffffff1614610285576040517f08c379a000000000000000000000000000000000000000000000000000000000815260040161027c90612129565b60405180910390fd5b80600460006101000a81548173ffffffffffffffffffffffffffffffffffffffff021916908373ffffffffffffffffffffffffffffffffffffffff16021790555050565b600460009054906101000a900473ffffffffffffffffffffffffffffffffffffffff1673ffffffffffffffffffffffffffffffffffffffff163373ffffffffffffffffffffffffffffffffffffffff1614610359576040517f08c379a000000000000000000000000000000000000000000000000000000000815260040161035090612129565b60405180910390fd5b6060600267ffffffffffffffff8111801561037357600080fd5b506040519080825280602002602001820160405280156103a25781602001602082028036833780820191505090505b509050600260009054906101000a900473ffffffffffffffffffffffffffffffffffffffff16816000815181106103d557fe5b602002602001019073ffffffffffffffffffffffffffffffffffffffff16908173ffffffffffffffffffffffffffffffffffffffff16815250506000809054906101000a900473ffffffffffffffffffffffffffffffffffffffff1673ffffffffffffffffffffffffffffffffffffffff1663ad5c46486040518163ffffffff1660e01b815260040160206040518083038186803b15801561047657600080fd5b505afa15801561048a573d6000803e3d6000fd5b505050506040513d601f19601f820116820180604052508101906104ae9190611b78565b816001815181106104bb57fe5b602002602001019073ffffffffffffffffffffffffffffffffffffffff16908173ffffffffffffffffffffffffffffffffffffffff168152505060006105c860646105ba6005600360009054906101000a900473ffffffffffffffffffffffffffffffffffffffff1673ffffffffffffffffffffffffffffffffffffffff166370a08231306040518263ffffffff1660e01b815260040161055c9190611f8e565b60206040518083038186803b15801561057457600080fd5b505afa158015610588573d6000803e3d6000fd5b505050506040513d601f19601f820116820180604052508101906105ac9190611c1c565b6119b690919063ffffffff16565b611a2690919063ffffffff16565b9050816000815181106105d757fe5b602002602001015173ffffffffffffffffffffffffffffffffffffffff1663095ea7b330836040518363ffffffff1660e01b8152600401610619929190611fa9565b602060405180830381600087803b15801561063357600080fd5b505af1158015610647573d6000803e3d6000fd5b505050506040513d601f19601f8201168201806040525081019061066b9190611bf3565b508160008151811061067957fe5b602002602001015173ffffffffffffffffffffffffffffffffffffffff1663095ea7b36000809054906101000a900473ffffffffffffffffffffffffffffffffffffffff16836040518363ffffffff1660e01b81526004016106dc929190611ffb565b602060405180830381600087803b1580156106f657600080fd5b505af115801561070a573d6000803e3d6000fd5b505050506040513d601f19601f8201168201806040525081019061072e9190611bf3565b506000809054906101000a900473ffffffffffffffffffffffffffffffffffffffff1673ffffffffffffffffffffffffffffffffffffffff1663791ac947826000853061016842016040518663ffffffff1660e01b81526004016107969594939291906121a9565b600060405180830381600087803b1580156107b057600080fd5b505af11580156107c4573d6000803e3d6000fd5b505050505050565b600460009054906101000a900473ffffffffffffffffffffffffffffffffffffffff1673ffffffffffffffffffffffffffffffffffffffff163373ffffffffffffffffffffffffffffffffffffffff161461085c576040517f08c379a000000000000000000000000000000000000000000000000000000000815260040161085390612129565b60405180910390fd5b600073ffffffffffffffffffffffffffffffffffffffff168173ffffffffffffffffffffffffffffffffffffffff1614156108cc576040517f08c379a00000000000000000000000000000000000000000000000000000000081526004016108c390612149565b60405180910390fd5b80600260006101000a81548173ffffffffffffffffffffffffffffffffffffffff021916908373ffffffffffffffffffffffffffffffffffffffff16021790555080600360006101000a81548173ffffffffffffffffffffffffffffffffffffffff021916908373ffffffffffffffffffffffffffffffffffffffff16021790555050565b600360009054906101000a900473ffffffffffffffffffffffffffffffffffffffff1681565b600460009054906101000a900473ffffffffffffffffffffffffffffffffffffffff1673ffffffffffffffffffffffffffffffffffffffff163373ffffffffffffffffffffffffffffffffffffffff1614610a07576040517f08c379a00000000000000000000000000000000000000000000000000000000081526004016109fe90612129565b60405180910390fd5b6060600267ffffffffffffffff81118015610a2157600080fd5b50604051908082528060200260200182016040528015610a505781602001602082028036833780820191505090505b5090506000809054906101000a900473ffffffffffffffffffffffffffffffffffffffff1673ffffffffffffffffffffffffffffffffffffffff1663ad5c46486040518163ffffffff1660e01b815260040160206040518083038186803b158015610aba57600080fd5b505afa158015610ace573d6000803e3d6000fd5b505050506040513d601f19601f82011682018060405250810190610af29190611b78565b81600081518110610aff57fe5b602002602001019073ffffffffffffffffffffffffffffffffffffffff16908173ffffffffffffffffffffffffffffffffffffffff1681525050600260009054906101000a900473ffffffffffffffffffffffffffffffffffffffff1681600181518110610b6957fe5b602002602001019073ffffffffffffffffffffffffffffffffffffffff16908173ffffffffffffffffffffffffffffffffffffffff1681525050600034905081600081518110610bb557fe5b602002602001015173ffffffffffffffffffffffffffffffffffffffff1663095ea7b330836040518363ffffffff1660e01b8152600401610bf7929190611fa9565b602060405180830381600087803b158015610c1157600080fd5b505af1158015610c25573d6000803e3d6000fd5b505050506040513d601f19601f82011682018060405250810190610c499190611bf3565b5081600081518110610c5757fe5b602002602001015173ffffffffffffffffffffffffffffffffffffffff1663095ea7b36000809054906101000a900473ffffffffffffffffffffffffffffffffffffffff16836040518363ffffffff1660e01b8152600401610cba929190611ffb565b602060405180830381600087803b158015610cd457600080fd5b505af1158015610ce8573d6000803e3d6000fd5b505050506040513d601f19601f82011682018060405250810190610d0c9190611bf3565b506000809054906101000a900473ffffffffffffffffffffffffffffffffffffffff1673ffffffffffffffffffffffffffffffffffffffff1663b6f9de95826000853061016842016040518663ffffffff1660e01b8152600401610d7394939291906120bb565b6000604051808303818588803b158015610d8c57600080fd5b505af1158015610da0573d6000803e3d6000fd5b50505050505050565b600160009054906101000a900473ffffffffffffffffffffffffffffffffffffffff1681565b600460009054906101000a900473ffffffffffffffffffffffffffffffffffffffff1673ffffffffffffffffffffffffffffffffffffffff163373ffffffffffffffffffffffffffffffffffffffff1614610e5f576040517f08c379a0000000000000000000000000000000000000000000000000000000008152600401610e5690612129565b60405180910390fd5b806000806101000a81548173ffffffffffffffffffffffffffffffffffffffff021916908373ffffffffffffffffffffffffffffffffffffffff16021790555050565b6000809054906101000a900473ffffffffffffffffffffffffffffffffffffffff1681565b600460009054906101000a900473ffffffffffffffffffffffffffffffffffffffff1673ffffffffffffffffffffffffffffffffffffffff163373ffffffffffffffffffffffffffffffffffffffff1614610f57576040517f08c379a0000000000000000000000000000000000000000000000000000000008152600401610f4e90612129565b60405180910390fd5b8015611189576000809054906101000a900473ffffffffffffffffffffffffffffffffffffffff1673ffffffffffffffffffffffffffffffffffffffff1663c45a01556040518163ffffffff1660e01b815260040160206040518083038186803b158015610fc457600080fd5b505afa158015610fd8573d6000803e3d6000fd5b505050506040513d601f19601f82011682018060405250810190610ffc9190611b78565b73ffffffffffffffffffffffffffffffffffffffff1663c9c65396600260009054906101000a900473ffffffffffffffffffffffffffffffffffffffff166000809054906101000a900473ffffffffffffffffffffffffffffffffffffffff1673ffffffffffffffffffffffffffffffffffffffff1663ad5c46486040518163ffffffff1660e01b815260040160206040518083038186803b1580156110a157600080fd5b505afa1580156110b5573d6000803e3d6000fd5b505050506040513d601f19601f820116820180604052508101906110d99190611b78565b6040518363ffffffff1660e01b81526004016110f6929190611fd2565b602060405180830381600087803b15801561111057600080fd5b505af1158015611124573d6000803e3d6000fd5b505050506040513d601f19601f820116820180604052508101906111489190611b78565b600160006101000a81548173ffffffffffffffffffffffffffffffffffffffff021916908373ffffffffffffffffffffffffffffffffffffffff1602179055505b6000600360009054906101000a900473ffffffffffffffffffffffffffffffffffffffff1673ffffffffffffffffffffffffffffffffffffffff166370a08231306040518263ffffffff1660e01b81526004016111e69190611f8e565b60206040518083038186803b1580156111fe57600080fd5b505afa158015611212573d6000803e3d6000fd5b505050506040513d601f19601f820116820180604052508101906112369190611c1c565b90506000479050600260009054906101000a900473ffffffffffffffffffffffffffffffffffffffff1673ffffffffffffffffffffffffffffffffffffffff1663095ea7b36000809054906101000a900473ffffffffffffffffffffffffffffffffffffffff16846040518363ffffffff1660e01b81526004016112bb929190611ffb565b602060405180830381600087803b1580156112d557600080fd5b505af11580156112e9573d6000803e3d6000fd5b505050506040513d601f19601f8201168201806040525081019061130d9190611bf3565b506000809054906101000a900473ffffffffffffffffffffffffffffffffffffffff1673ffffffffffffffffffffffffffffffffffffffff1663ad5c46486040518163ffffffff1660e01b815260040160206040518083038186803b15801561137557600080fd5b505afa158015611389573d6000803e3d6000fd5b505050506040513d601f19601f820116820180604052508101906113ad9190611b78565b73ffffffffffffffffffffffffffffffffffffffff1663095ea7b36000809054906101000a900473ffffffffffffffffffffffffffffffffffffffff16836040518363ffffffff1660e01b8152600401611408929190611ffb565b602060405180830381600087803b15801561142257600080fd5b505af1158015611436573d6000803e3d6000fd5b505050506040513d601f19601f8201168201806040525081019061145a9190611bf3565b50600260009054906101000a900473ffffffffffffffffffffffffffffffffffffffff1673ffffffffffffffffffffffffffffffffffffffff1663095ea7b330846040518363ffffffff1660e01b81526004016114b8929190611fa9565b602060405180830381600087803b1580156114d257600080fd5b505af11580156114e6573d6000803e3d6000fd5b505050506040513d601f19601f8201168201806040525081019061150a9190611bf3565b506000809054906101000a900473ffffffffffffffffffffffffffffffffffffffff1673ffffffffffffffffffffffffffffffffffffffff1663ad5c46486040518163ffffffff1660e01b815260040160206040518083038186803b15801561157257600080fd5b505afa158015611586573d6000803e3d6000fd5b505050506040513d601f19601f820116820180604052508101906115aa9190611b78565b73ffffffffffffffffffffffffffffffffffffffff1663095ea7b330836040518363ffffffff1660e01b81526004016115e4929190611fa9565b602060405180830381600087803b1580156115fe57600080fd5b505af1158015611612573d6000803e3d6000fd5b505050506040513d601f19601f820116820180604052508101906116369190611bf3565b506000809054906101000a900473ffffffffffffffffffffffffffffffffffffffff1673ffffffffffffffffffffffffffffffffffffffff1663f305d71982600260009054906101000a900473ffffffffffffffffffffffffffffffffffffffff16856000803361271042016040518863ffffffff1660e01b81526004016116c396959493929190612024565b6060604051808303818588803b1580156116dc57600080fd5b505af11580156116f0573d6000803e3d6000fd5b50505050506040513d601f19601f820116820180604052508101906117159190611c45565b505050505050565b600460009054906101000a900473ffffffffffffffffffffffffffffffffffffffff1673ffffffffffffffffffffffffffffffffffffffff163373ffffffffffffffffffffffffffffffffffffffff16146117ad576040517f08c379a00000000000000000000000000000000000000000000000000000000081526004016117a490612129565b60405180910390fd5b60003373ffffffffffffffffffffffffffffffffffffffff16476040516117d390611f5e565b60006040518083038185875af1925050503d8060008114611810576040519150601f19603f3d011682016040523d82523d6000602084013e611815565b606091505b5050905080611859576040517f08c379a000000000000000000000000000000000000000000000000000000000815260040161185090612189565b60405180910390fd5b600360009054906101000a900473ffffffffffffffffffffffffffffffffffffffff1673ffffffffffffffffffffffffffffffffffffffff1663a9059cbb33600360009054906101000a900473ffffffffffffffffffffffffffffffffffffffff1673ffffffffffffffffffffffffffffffffffffffff166370a08231306040518263ffffffff1660e01b81526004016118f39190611f8e565b60206040518083038186803b15801561190b57600080fd5b505afa15801561191f573d6000803e3d6000fd5b505050506040513d601f19601f820116820180604052508101906119439190611c1c565b6040518363ffffffff1660e01b8152600401611960929190611fa9565b602060405180830381600087803b15801561197a57600080fd5b505af115801561198e573d6000803e3d6000fd5b505050506040513d601f19601f820116820180604052508101906119b29190611bf3565b5050565b6000808314156119c95760009050611a20565b60008284029050828482816119da57fe5b0414611a1b576040517f08c379a0000000000000000000000000000000000000000000000000000000008152600401611a1290612169565b60405180910390fd5b809150505b92915050565b6000611a6883836040518060400160405280601a81526020017f536166654d6174683a206469766973696f6e206279207a65726f000000000000815250611a70565b905092915050565b60008083118290611ab7576040517f08c379a0000000000000000000000000000000000000000000000000000000008152600401611aae9190612107565b60405180910390fd5b506000838581611ac357fe5b049050809150509392505050565b600081359050611ae081612391565b92915050565b600081519050611af581612391565b92915050565b600081359050611b0a816123a8565b92915050565b600081359050611b1f816123bf565b92915050565b600081519050611b34816123bf565b92915050565b600081519050611b49816123d6565b92915050565b600060208284031215611b6157600080fd5b6000611b6f84828501611ad1565b91505092915050565b600060208284031215611b8a57600080fd5b6000611b9884828501611ae6565b91505092915050565b600060208284031215611bb357600080fd5b6000611bc184828501611afb565b91505092915050565b600060208284031215611bdc57600080fd5b6000611bea84828501611b10565b91505092915050565b600060208284031215611c0557600080fd5b6000611c1384828501611b25565b91505092915050565b600060208284031215611c2e57600080fd5b6000611c3c84828501611b3a565b91505092915050565b600080600060608486031215611c5a57600080fd5b6000611c6886828701611b3a565b9350506020611c7986828701611b3a565b9250506040611c8a86828701611b3a565b9150509250925092565b6000611ca08383611cbb565b60208301905092915050565b611cb5816122bd565b82525050565b611cc481612263565b82525050565b611cd381612263565b82525050565b6000611ce482612213565b611cee8185612236565b9350611cf983612203565b8060005b83811015611d2a578151611d118882611c94565b9750611d1c83612229565b925050600181019050611cfd565b5085935050505092915050565b611d40816122cf565b82525050565b611d4f816122f3565b82525050565b611d5e81612317565b82525050565b6000611d6f8261221e565b611d798185612252565b9350611d8981856020860161234d565b611d9281612380565b840191505092915050565b6000611daa602e83612252565b91507f4572726f723a204f6e6c79206f776e65722063616e2068616e646c652074686960008301527f73206f7065726174696f6e203b290000000000000000000000000000000000006020830152604082019050919050565b6000611e10602583612252565b91507f4572726f723a2063616e6e6f742061646420746f6b656e206174204e6f57686560008301527f7265203a290000000000000000000000000000000000000000000000000000006020830152604082019050919050565b6000611e76602183612252565b91507f536166654d6174683a206d756c7469706c69636174696f6e206f766572666c6f60008301527f77000000000000000000000000000000000000000000000000000000000000006020830152604082019050919050565b6000611edc600083612247565b9150600082019050919050565b6000611ef6603083612252565b91507f4572726f723a2043616e6e6f7420776974686472617720746f2074686520666f60008301527f756e646174696f6e2061646472657373000000000000000000000000000000006020830152604082019050919050565b611f58816122b3565b82525050565b6000611f6982611ecf565b9150819050919050565b6000602082019050611f886000830184611cca565b92915050565b6000602082019050611fa36000830184611cac565b92915050565b6000604082019050611fbe6000830185611cac565b611fcb6020830184611f4f565b9392505050565b6000604082019050611fe76000830185611cca565b611ff46020830184611cca565b9392505050565b60006040820190506120106000830185611cca565b61201d6020830184611f4f565b9392505050565b600060c0820190506120396000830189611cca565b6120466020830188611f4f565b6120536040830187611d55565b6120606060830186611d55565b61206d6080830185611cac565b61207a60a0830184611f4f565b979650505050505050565b600060208201905061209a6000830184611d37565b92915050565b60006020820190506120b56000830184611d46565b92915050565b60006080820190506120d06000830187611d55565b81810360208301526120e28186611cd9565b90506120f16040830185611cac565b6120fe6060830184611f4f565b95945050505050565b600060208201905081810360008301526121218184611d64565b905092915050565b6000602082019050818103600083015261214281611d9d565b9050919050565b6000602082019050818103600083015261216281611e03565b9050919050565b6000602082019050818103600083015261218281611e69565b9050919050565b600060208201905081810360008301526121a281611ee9565b9050919050565b600060a0820190506121be6000830188611f4f565b6121cb6020830187611d55565b81810360408301526121dd8186611cd9565b90506121ec6060830185611cac565b6121f96080830184611f4f565b9695505050505050565b6000819050602082019050919050565b600081519050919050565b600081519050919050565b6000602082019050919050565b600082825260208201905092915050565b600081905092915050565b600082825260208201905092915050565b600061226e82612293565b9050919050565b600061228082612293565b9050919050565b60008115159050919050565b600073ffffffffffffffffffffffffffffffffffffffff82169050919050565b6000819050919050565b60006122c882612329565b9050919050565b60006122da826122e1565b9050919050565b60006122ec82612293565b9050919050565b60006122fe82612305565b9050919050565b600061231082612293565b9050919050565b6000612322826122b3565b9050919050565b60006123348261233b565b9050919050565b600061234682612293565b9050919050565b60005b8381101561236b578082015181840152602081019050612350565b8381111561237a576000848401525b50505050565b6000601f19601f8301169050919050565b61239a81612263565b81146123a557600080fd5b50565b6123b181612275565b81146123bc57600080fd5b50565b6123c881612287565b81146123d357600080fd5b50565b6123df816122b3565b81146123ea57600080fd5b5056fea2646970667358221220034721a55ab198e4c0f4176599d72404bd8b5e26f8e8974541273587cdadac8264736f6c63430006080033",
  "linkReferences": {},
  "deployedLinkReferences": {}
}