{
  "_format": "hh-sol-artifact-1",
  "contractName": "PancakeHelper",
  "sourceName": "contracts/lib/PancakeHelper.sol",
  "abi": [
    {
      "inputs": [
        {
          "internalType": "address",
          "name": "tokenAddress",
          "type": "address"
        },
        {
          "internalType": "address payable",
          "name": "routerAddress",
          "type": "address"
        }
      ],
      "stateMutability": "nonpayable",
      "type": "constructor"
    },
    {
      "stateMutability": "payable",
      "type": "fallback"
    },
    {
      "inputs": [
        {
          "internalType": "bool",
          "name": "createPair",
          "type": "bool"
        }
      ],
      "name": "addLiquidity",
      "outputs": [],
      "stateMutability": "nonpayable",
      "type": "function"
    },
    {
      "inputs": [],
      "name": "emergencyWithdraw",
      "outputs": [],
      "stateMutability": "nonpayable",
      "type": "function"
    },
    {
      "inputs": [],
      "name": "pancakePair",
      "outputs": [
        {
          "internalType": "address",
          "name": "",
          "type": "address"
        }
      ],
      "stateMutability": "view",
      "type": "function"
    },
    {
      "inputs": [],
      "name": "pancakeRouter",
      "outputs": [
        {
          "internalType": "contract IPancakeRouter02",
          "name": "",
          "type": "address"
        }
      ],
      "stateMutability": "view",
      "type": "function"
    },
    {
      "inputs": [
        {
          "internalType": "address",
          "name": "newOwner",
          "type": "address"
        }
      ],
      "name": "setOwner",
      "outputs": [],
      "stateMutability": "nonpayable",
      "type": "function"
    },
    {
      "inputs": [
        {
          "internalType": "address",
          "name": "tokenAddress",
          "type": "address"
        }
      ],
      "name": "setPrimaryToken",
      "outputs": [],
      "stateMutability": "nonpayable",
      "type": "function"
    },
    {
      "inputs": [
        {
          "internalType": "address payable",
          "name": "routerAddress",
          "type": "address"
        }
      ],
      "name": "setRouter",
      "outputs": [],
      "stateMutability": "nonpayable",
      "type": "function"
    },
    {
      "inputs": [],
      "name": "swapBNBForTokens",
      "outputs": [],
      "stateMutability": "payable",
      "type": "function"
    },
    {
      "inputs": [
        {
          "internalType": "uint256",
          "name": "tokenAmount",
          "type": "uint256"
        }
      ],
      "name": "swapTokensForBNB",
      "outputs": [],
      "stateMutability": "nonpayable",
      "type": "function"
    },
    {
      "inputs": [],
      "name": "tokenInstance",
      "outputs": [
        {
          "internalType": "contract ERC20UpgradeSafe",
          "name": "",
          "type": "address"
        }
      ],
      "stateMutability": "view",
      "type": "function"
    }
  ],
  "bytecode": "0x60806040523480156200001157600080fd5b50604051620026f5380380620026f5833981810160405281019062000037919062000331565b33600460006101000a81548173ffffffffffffffffffffffffffffffffffffffff021916908373ffffffffffffffffffffffffffffffffffffffff1602179055506200008982620000a260201b60201c565b6200009a816200022d60201b60201c565b505062000513565b600460009054906101000a900473ffffffffffffffffffffffffffffffffffffffff1673ffffffffffffffffffffffffffffffffffffffff163373ffffffffffffffffffffffffffffffffffffffff161462000135576040517f08c379a00000000000000000000000000000000000000000000000000000000081526004016200012c9062000442565b60405180910390fd5b600073ffffffffffffffffffffffffffffffffffffffff168173ffffffffffffffffffffffffffffffffffffffff161415620001a8576040517f08c379a00000000000000000000000000000000000000000000000000000000081526004016200019f9062000464565b60405180910390fd5b80600260006101000a81548173ffffffffffffffffffffffffffffffffffffffff021916908373ffffffffffffffffffffffffffffffffffffffff16021790555080600360006101000a81548173ffffffffffffffffffffffffffffffffffffffff021916908373ffffffffffffffffffffffffffffffffffffffff16021790555050565b600460009054906101000a900473ffffffffffffffffffffffffffffffffffffffff1673ffffffffffffffffffffffffffffffffffffffff163373ffffffffffffffffffffffffffffffffffffffff1614620002c0576040517f08c379a0000000000000000000000000000000000000000000000000000000008152600401620002b79062000442565b60405180910390fd5b806000806101000a81548173ffffffffffffffffffffffffffffffffffffffff021916908373ffffffffffffffffffffffffffffffffffffffff16021790555050565b6000815190506200031481620004df565b92915050565b6000815190506200032b81620004f9565b92915050565b600080604083850312156200034557600080fd5b6000620003558582860162000303565b925050602062000368858286016200031a565b9150509250929050565b600062000381602e8362000486565b91507f4572726f723a204f6e6c79206f776e65722063616e2068616e646c652074686960008301527f73206f7065726174696f6e203b290000000000000000000000000000000000006020830152604082019050919050565b6000620003e960258362000486565b91507f4572726f723a2063616e6e6f742061646420746f6b656e206174204e6f57686560008301527f7265203a290000000000000000000000000000000000000000000000000000006020830152604082019050919050565b600060208201905081810360008301526200045d8162000372565b9050919050565b600060208201905081810360008301526200047f81620003da565b9050919050565b600082825260208201905092915050565b6000620004a482620004bf565b9050919050565b6000620004b882620004bf565b9050919050565b600073ffffffffffffffffffffffffffffffffffffffff82169050919050565b620004ea8162000497565b8114620004f657600080fd5b50565b6200050481620004ab565b81146200051057600080fd5b50565b6121d280620005236000396000f3fe6080604052600436106100955760003560e01c8063b8c9d25c11610059578063b8c9d25c14610148578063c0d7865514610173578063c21ebd071461019c578063da620cd7146101c7578063db2e21bc146101f057610096565b806313af40351461009857806356c3726b146100c15780636408406f146100ea578063658030b314610113578063b70fd1391461013e57610096565b5b005b3480156100a457600080fd5b506100bf60048036038101906100ba91906119ce565b610207565b005b3480156100cd57600080fd5b506100e860048036038101906100e39190611a9b565b6102db565b005b3480156100f657600080fd5b50610111600480360381019061010c91906119ce565b6107e1565b005b34801561011f57600080fd5b50610128610966565b6040516101359190611ec5565b60405180910390f35b61014661098c565b005b34801561015457600080fd5b5061015d610d2e565b60405161016a9190611d7c565b60405180910390f35b34801561017f57600080fd5b5061019a60048036038101906101959190611a20565b610d54565b005b3480156101a857600080fd5b506101b1610e27565b6040516101be9190611ee0565b60405180910390f35b3480156101d357600080fd5b506101ee60048036038101906101e99190611a49565b610e4c565b005b3480156101fc57600080fd5b506102056116a2565b005b600460009054906101000a900473ffffffffffffffffffffffffffffffffffffffff1673ffffffffffffffffffffffffffffffffffffffff163373ffffffffffffffffffffffffffffffffffffffff1614610297576040517f08c379a000000000000000000000000000000000000000000000000000000000815260040161028e90611f47565b60405180910390fd5b80600460006101000a81548173ffffffffffffffffffffffffffffffffffffffff021916908373ffffffffffffffffffffffffffffffffffffffff16021790555050565b600260009054906101000a900473ffffffffffffffffffffffffffffffffffffffff1673ffffffffffffffffffffffffffffffffffffffff1663095ea7b330836040518363ffffffff1660e01b8152600401610338929190611de9565b602060405180830381600087803b15801561035257600080fd5b505af1158015610366573d6000803e3d6000fd5b505050506040513d601f19601f8201168201806040525081019061038a9190611a72565b50600260009054906101000a900473ffffffffffffffffffffffffffffffffffffffff1673ffffffffffffffffffffffffffffffffffffffff166323b872dd3330846040518463ffffffff1660e01b81526004016103ea93929190611db2565b602060405180830381600087803b15801561040457600080fd5b505af1158015610418573d6000803e3d6000fd5b505050506040513d601f19601f8201168201806040525081019061043c9190611a72565b506060600267ffffffffffffffff8111801561045757600080fd5b506040519080825280602002602001820160405280156104865781602001602082028036833780820191505090505b509050600260009054906101000a900473ffffffffffffffffffffffffffffffffffffffff16816000815181106104b957fe5b602002602001019073ffffffffffffffffffffffffffffffffffffffff16908173ffffffffffffffffffffffffffffffffffffffff16815250506000809054906101000a900473ffffffffffffffffffffffffffffffffffffffff1673ffffffffffffffffffffffffffffffffffffffff1663ad5c46486040518163ffffffff1660e01b815260040160206040518083038186803b15801561055a57600080fd5b505afa15801561056e573d6000803e3d6000fd5b505050506040513d601f19601f8201168201806040525081019061059291906119f7565b8160018151811061059f57fe5b602002602001019073ffffffffffffffffffffffffffffffffffffffff16908173ffffffffffffffffffffffffffffffffffffffff16815250506000829050816000815181106105eb57fe5b602002602001015173ffffffffffffffffffffffffffffffffffffffff1663095ea7b330836040518363ffffffff1660e01b815260040161062d929190611de9565b602060405180830381600087803b15801561064757600080fd5b505af115801561065b573d6000803e3d6000fd5b505050506040513d601f19601f8201168201806040525081019061067f9190611a72565b508160008151811061068d57fe5b602002602001015173ffffffffffffffffffffffffffffffffffffffff1663095ea7b36000809054906101000a900473ffffffffffffffffffffffffffffffffffffffff16836040518363ffffffff1660e01b81526004016106f0929190611e3b565b602060405180830381600087803b15801561070a57600080fd5b505af115801561071e573d6000803e3d6000fd5b505050506040513d601f19601f820116820180604052508101906107429190611a72565b506000809054906101000a900473ffffffffffffffffffffffffffffffffffffffff1673ffffffffffffffffffffffffffffffffffffffff1663791ac947826000853361016842016040518663ffffffff1660e01b81526004016107aa959493929190611fa7565b600060405180830381600087803b1580156107c457600080fd5b505af11580156107d8573d6000803e3d6000fd5b50505050505050565b600460009054906101000a900473ffffffffffffffffffffffffffffffffffffffff1673ffffffffffffffffffffffffffffffffffffffff163373ffffffffffffffffffffffffffffffffffffffff1614610871576040517f08c379a000000000000000000000000000000000000000000000000000000000815260040161086890611f47565b60405180910390fd5b600073ffffffffffffffffffffffffffffffffffffffff168173ffffffffffffffffffffffffffffffffffffffff1614156108e1576040517f08c379a00000000000000000000000000000000000000000000000000000000081526004016108d890611f67565b60405180910390fd5b80600260006101000a81548173ffffffffffffffffffffffffffffffffffffffff021916908373ffffffffffffffffffffffffffffffffffffffff16021790555080600360006101000a81548173ffffffffffffffffffffffffffffffffffffffff021916908373ffffffffffffffffffffffffffffffffffffffff16021790555050565b600360009054906101000a900473ffffffffffffffffffffffffffffffffffffffff1681565b6060600267ffffffffffffffff811180156109a657600080fd5b506040519080825280602002602001820160405280156109d55781602001602082028036833780820191505090505b5090506000809054906101000a900473ffffffffffffffffffffffffffffffffffffffff1673ffffffffffffffffffffffffffffffffffffffff1663ad5c46486040518163ffffffff1660e01b815260040160206040518083038186803b158015610a3f57600080fd5b505afa158015610a53573d6000803e3d6000fd5b505050506040513d601f19601f82011682018060405250810190610a7791906119f7565b81600081518110610a8457fe5b602002602001019073ffffffffffffffffffffffffffffffffffffffff16908173ffffffffffffffffffffffffffffffffffffffff1681525050600260009054906101000a900473ffffffffffffffffffffffffffffffffffffffff1681600181518110610aee57fe5b602002602001019073ffffffffffffffffffffffffffffffffffffffff16908173ffffffffffffffffffffffffffffffffffffffff1681525050600034905081600081518110610b3a57fe5b602002602001015173ffffffffffffffffffffffffffffffffffffffff1663095ea7b330836040518363ffffffff1660e01b8152600401610b7c929190611de9565b602060405180830381600087803b158015610b9657600080fd5b505af1158015610baa573d6000803e3d6000fd5b505050506040513d601f19601f82011682018060405250810190610bce9190611a72565b5081600081518110610bdc57fe5b602002602001015173ffffffffffffffffffffffffffffffffffffffff1663095ea7b36000809054906101000a900473ffffffffffffffffffffffffffffffffffffffff16836040518363ffffffff1660e01b8152600401610c3f929190611e3b565b602060405180830381600087803b158015610c5957600080fd5b505af1158015610c6d573d6000803e3d6000fd5b505050506040513d601f19601f82011682018060405250810190610c919190611a72565b506000809054906101000a900473ffffffffffffffffffffffffffffffffffffffff1673ffffffffffffffffffffffffffffffffffffffff1663b6f9de95826000853361016842016040518663ffffffff1660e01b8152600401610cf89493929190611efb565b6000604051808303818588803b158015610d1157600080fd5b505af1158015610d25573d6000803e3d6000fd5b50505050505050565b600160009054906101000a900473ffffffffffffffffffffffffffffffffffffffff1681565b600460009054906101000a900473ffffffffffffffffffffffffffffffffffffffff1673ffffffffffffffffffffffffffffffffffffffff163373ffffffffffffffffffffffffffffffffffffffff1614610de4576040517f08c379a0000000000000000000000000000000000000000000000000000000008152600401610ddb90611f47565b60405180910390fd5b806000806101000a81548173ffffffffffffffffffffffffffffffffffffffff021916908373ffffffffffffffffffffffffffffffffffffffff16021790555050565b6000809054906101000a900473ffffffffffffffffffffffffffffffffffffffff1681565b600460009054906101000a900473ffffffffffffffffffffffffffffffffffffffff1673ffffffffffffffffffffffffffffffffffffffff163373ffffffffffffffffffffffffffffffffffffffff1614610edc576040517f08c379a0000000000000000000000000000000000000000000000000000000008152600401610ed390611f47565b60405180910390fd5b801561110e576000809054906101000a900473ffffffffffffffffffffffffffffffffffffffff1673ffffffffffffffffffffffffffffffffffffffff1663c45a01556040518163ffffffff1660e01b815260040160206040518083038186803b158015610f4957600080fd5b505afa158015610f5d573d6000803e3d6000fd5b505050506040513d601f19601f82011682018060405250810190610f8191906119f7565b73ffffffffffffffffffffffffffffffffffffffff1663c9c65396600260009054906101000a900473ffffffffffffffffffffffffffffffffffffffff166000809054906101000a900473ffffffffffffffffffffffffffffffffffffffff1673ffffffffffffffffffffffffffffffffffffffff1663ad5c46486040518163ffffffff1660e01b815260040160206040518083038186803b15801561102657600080fd5b505afa15801561103a573d6000803e3d6000fd5b505050506040513d601f19601f8201168201806040525081019061105e91906119f7565b6040518363ffffffff1660e01b815260040161107b929190611e12565b602060405180830381600087803b15801561109557600080fd5b505af11580156110a9573d6000803e3d6000fd5b505050506040513d601f19601f820116820180604052508101906110cd91906119f7565b600160006101000a81548173ffffffffffffffffffffffffffffffffffffffff021916908373ffffffffffffffffffffffffffffffffffffffff1602179055505b6000600360009054906101000a900473ffffffffffffffffffffffffffffffffffffffff1673ffffffffffffffffffffffffffffffffffffffff166370a08231306040518263ffffffff1660e01b815260040161116b9190611d97565b60206040518083038186803b15801561118357600080fd5b505afa158015611197573d6000803e3d6000fd5b505050506040513d601f19601f820116820180604052508101906111bb9190611ac4565b90506000479050600260009054906101000a900473ffffffffffffffffffffffffffffffffffffffff1673ffffffffffffffffffffffffffffffffffffffff1663095ea7b36000809054906101000a900473ffffffffffffffffffffffffffffffffffffffff16846040518363ffffffff1660e01b8152600401611240929190611e3b565b602060405180830381600087803b15801561125a57600080fd5b505af115801561126e573d6000803e3d6000fd5b505050506040513d601f19601f820116820180604052508101906112929190611a72565b506000809054906101000a900473ffffffffffffffffffffffffffffffffffffffff1673ffffffffffffffffffffffffffffffffffffffff1663ad5c46486040518163ffffffff1660e01b815260040160206040518083038186803b1580156112fa57600080fd5b505afa15801561130e573d6000803e3d6000fd5b505050506040513d601f19601f8201168201806040525081019061133291906119f7565b73ffffffffffffffffffffffffffffffffffffffff1663095ea7b36000809054906101000a900473ffffffffffffffffffffffffffffffffffffffff16836040518363ffffffff1660e01b815260040161138d929190611e3b565b602060405180830381600087803b1580156113a757600080fd5b505af11580156113bb573d6000803e3d6000fd5b505050506040513d601f19601f820116820180604052508101906113df9190611a72565b50600260009054906101000a900473ffffffffffffffffffffffffffffffffffffffff1673ffffffffffffffffffffffffffffffffffffffff1663095ea7b330846040518363ffffffff1660e01b815260040161143d929190611de9565b602060405180830381600087803b15801561145757600080fd5b505af115801561146b573d6000803e3d6000fd5b505050506040513d601f19601f8201168201806040525081019061148f9190611a72565b506000809054906101000a900473ffffffffffffffffffffffffffffffffffffffff1673ffffffffffffffffffffffffffffffffffffffff1663ad5c46486040518163ffffffff1660e01b815260040160206040518083038186803b1580156114f757600080fd5b505afa15801561150b573d6000803e3d6000fd5b505050506040513d601f19601f8201168201806040525081019061152f91906119f7565b73ffffffffffffffffffffffffffffffffffffffff1663095ea7b330836040518363ffffffff1660e01b8152600401611569929190611de9565b602060405180830381600087803b15801561158357600080fd5b505af1158015611597573d6000803e3d6000fd5b505050506040513d601f19601f820116820180604052508101906115bb9190611a72565b506000809054906101000a900473ffffffffffffffffffffffffffffffffffffffff1673ffffffffffffffffffffffffffffffffffffffff1663f305d71982600260009054906101000a900473ffffffffffffffffffffffffffffffffffffffff16856000803361271042016040518863ffffffff1660e01b815260040161164896959493929190611e64565b6060604051808303818588803b15801561166157600080fd5b505af1158015611675573d6000803e3d6000fd5b50505050506040513d601f19601f8201168201806040525081019061169a9190611aed565b505050505050565b600460009054906101000a900473ffffffffffffffffffffffffffffffffffffffff1673ffffffffffffffffffffffffffffffffffffffff163373ffffffffffffffffffffffffffffffffffffffff1614611732576040517f08c379a000000000000000000000000000000000000000000000000000000000815260040161172990611f47565b60405180910390fd5b60003373ffffffffffffffffffffffffffffffffffffffff164760405161175890611d67565b60006040518083038185875af1925050503d8060008114611795576040519150601f19603f3d011682016040523d82523d6000602084013e61179a565b606091505b50509050806117de576040517f08c379a00000000000000000000000000000000000000000000000000000000081526004016117d590611f87565b60405180910390fd5b600360009054906101000a900473ffffffffffffffffffffffffffffffffffffffff1673ffffffffffffffffffffffffffffffffffffffff1663a9059cbb33600360009054906101000a900473ffffffffffffffffffffffffffffffffffffffff1673ffffffffffffffffffffffffffffffffffffffff166370a08231306040518263ffffffff1660e01b81526004016118789190611d97565b60206040518083038186803b15801561189057600080fd5b505afa1580156118a4573d6000803e3d6000fd5b505050506040513d601f19601f820116820180604052508101906118c89190611ac4565b6040518363ffffffff1660e01b81526004016118e5929190611de9565b602060405180830381600087803b1580156118ff57600080fd5b505af1158015611913573d6000803e3d6000fd5b505050506040513d601f19601f820116820180604052508101906119379190611a72565b5050565b60008135905061194a81612140565b92915050565b60008151905061195f81612140565b92915050565b60008135905061197481612157565b92915050565b6000813590506119898161216e565b92915050565b60008151905061199e8161216e565b92915050565b6000813590506119b381612185565b92915050565b6000815190506119c881612185565b92915050565b6000602082840312156119e057600080fd5b60006119ee8482850161193b565b91505092915050565b600060208284031215611a0957600080fd5b6000611a1784828501611950565b91505092915050565b600060208284031215611a3257600080fd5b6000611a4084828501611965565b91505092915050565b600060208284031215611a5b57600080fd5b6000611a698482850161197a565b91505092915050565b600060208284031215611a8457600080fd5b6000611a928482850161198f565b91505092915050565b600060208284031215611aad57600080fd5b6000611abb848285016119a4565b91505092915050565b600060208284031215611ad657600080fd5b6000611ae4848285016119b9565b91505092915050565b600080600060608486031215611b0257600080fd5b6000611b10868287016119b9565b9350506020611b21868287016119b9565b9250506040611b32868287016119b9565b9150509250925092565b6000611b488383611b63565b60208301905092915050565b611b5d816120b0565b82525050565b611b6c81612056565b82525050565b611b7b81612056565b82525050565b6000611b8c82612011565b611b968185612029565b9350611ba183612001565b8060005b83811015611bd2578151611bb98882611b3c565b9750611bc48361201c565b925050600181019050611ba5565b5085935050505092915050565b611be8816120c2565b82525050565b611bf7816120e6565b82525050565b611c068161210a565b82525050565b6000611c19602e83612045565b91507f4572726f723a204f6e6c79206f776e65722063616e2068616e646c652074686960008301527f73206f7065726174696f6e203b290000000000000000000000000000000000006020830152604082019050919050565b6000611c7f602583612045565b91507f4572726f723a2063616e6e6f742061646420746f6b656e206174204e6f57686560008301527f7265203a290000000000000000000000000000000000000000000000000000006020830152604082019050919050565b6000611ce560008361203a565b9150600082019050919050565b6000611cff603083612045565b91507f4572726f723a2043616e6e6f7420776974686472617720746f2074686520666f60008301527f756e646174696f6e2061646472657373000000000000000000000000000000006020830152604082019050919050565b611d61816120a6565b82525050565b6000611d7282611cd8565b9150819050919050565b6000602082019050611d916000830184611b72565b92915050565b6000602082019050611dac6000830184611b54565b92915050565b6000606082019050611dc76000830186611b54565b611dd46020830185611b54565b611de16040830184611d58565b949350505050565b6000604082019050611dfe6000830185611b54565b611e0b6020830184611d58565b9392505050565b6000604082019050611e276000830185611b72565b611e346020830184611b72565b9392505050565b6000604082019050611e506000830185611b72565b611e5d6020830184611d58565b9392505050565b600060c082019050611e796000830189611b72565b611e866020830188611d58565b611e936040830187611bfd565b611ea06060830186611bfd565b611ead6080830185611b54565b611eba60a0830184611d58565b979650505050505050565b6000602082019050611eda6000830184611bdf565b92915050565b6000602082019050611ef56000830184611bee565b92915050565b6000608082019050611f106000830187611bfd565b8181036020830152611f228186611b81565b9050611f316040830185611b54565b611f3e6060830184611d58565b95945050505050565b60006020820190508181036000830152611f6081611c0c565b9050919050565b60006020820190508181036000830152611f8081611c72565b9050919050565b60006020820190508181036000830152611fa081611cf2565b9050919050565b600060a082019050611fbc6000830188611d58565b611fc96020830187611bfd565b8181036040830152611fdb8186611b81565b9050611fea6060830185611b54565b611ff76080830184611d58565b9695505050505050565b6000819050602082019050919050565b600081519050919050565b6000602082019050919050565b600082825260208201905092915050565b600081905092915050565b600082825260208201905092915050565b600061206182612086565b9050919050565b600061207382612086565b9050919050565b60008115159050919050565b600073ffffffffffffffffffffffffffffffffffffffff82169050919050565b6000819050919050565b60006120bb8261211c565b9050919050565b60006120cd826120d4565b9050919050565b60006120df82612086565b9050919050565b60006120f1826120f8565b9050919050565b600061210382612086565b9050919050565b6000612115826120a6565b9050919050565b60006121278261212e565b9050919050565b600061213982612086565b9050919050565b61214981612056565b811461215457600080fd5b50565b61216081612068565b811461216b57600080fd5b50565b6121778161207a565b811461218257600080fd5b50565b61218e816120a6565b811461219957600080fd5b5056fea2646970667358221220fa9b2c23a86d0ccca97573140f5dff7c4270047d94bc7bda0e0242ddb0c0fad064736f6c63430006080033",
  "linkReferences": {},
  "deployedLinkReferences": {}
}